{"contracts/FULVotingSystem.sol":{"FULVotingSystem":{"abi":[{"inputs":[],"stateMutability":"nonpayable","type":"constructor"},{"anonymous":false,"inputs":[{"indexed":false,"internalType":"uint256","name":"candidateId","type":"uint256"},{"indexed":false,"internalType":"string","name":"name","type":"string"},{"indexed":false,"internalType":"string","name":"studentId","type":"string"}],"name":"CandidateAdded","type":"event"},{"anonymous":false,"inputs":[{"indexed":false,"internalType":"uint256","name":"endTime","type":"uint256"}],"name":"ElectionEnded","type":"event"},{"anonymous":false,"inputs":[],"name":"ElectionReset","type":"event"},{"anonymous":false,"inputs":[{"indexed":false,"internalType":"string","name":"title","type":"string"},{"indexed":false,"internalType":"uint256","name":"startTime","type":"uint256"}],"name":"ElectionStarted","type":"event"},{"anonymous":false,"inputs":[{"indexed":false,"internalType":"string","name":"voterStudentId","type":"string"},{"indexed":false,"internalType":"uint256","name":"candidateId","type":"uint256"}],"name":"VoteCast","type":"event"},{"anonymous":false,"inputs":[{"indexed":false,"internalType":"string","name":"studentId","type":"string"},{"indexed":false,"internalType":"address","name":"voterAddress","type":"address"}],"name":"VoterRegistered","type":"event"},{"inputs":[{"internalType":"string","name":"name","type":"string"},{"internalType":"string","name":"studentId","type":"string"}],"name":"addCandidate","outputs":[],"stateMutability":"nonpayable","type":"function"},{"inputs":[],"name":"admin","outputs":[{"internalType":"address","name":"","type":"address"}],"stateMutability":"view","type":"function"},{"inputs":[{"internalType":"string","name":"studentId","type":"string"}],"name":"canVote","outputs":[{"internalType":"bool","name":"","type":"bool"}],"stateMutability":"view","type":"function"},{"inputs":[],"name":"candidateCount","outputs":[{"internalType":"uint256","name":"","type":"uint256"}],"stateMutability":"view","type":"function"},{"inputs":[{"internalType":"uint256","name":"","type":"uint256"}],"name":"candidates","outputs":[{"internalType":"uint256","name":"id","type":"uint256"},{"internalType":"string","name":"name","type":"string"},{"internalType":"string","name":"studentId","type":"string"},{"internalType":"uint256","name":"voteCount","type":"uint256"},{"internalType":"bool","name":"exists","type":"bool"}],"stateMutability":"view","type":"function"},{"inputs":[],"name":"currentElection","outputs":[{"internalType":"string","name":"title","type":"string"},{"internalType":"string","name":"description","type":"string"},{"internalType":"uint256","name":"startTime","type":"uint256"},{"internalType":"uint256","name":"endTime","type":"uint256"},{"internalType":"bool","name":"isActive","type":"bool"},{"internalType":"bool","name":"exists","type":"bool"}],"stateMutability":"view","type":"function"},{"inputs":[],"name":"emergencyStop","outputs":[],"stateMutability":"nonpayable","type":"function"},{"inputs":[],"name":"endElection","outputs":[],"stateMutability":"nonpayable","type":"function"},{"inputs":[],"name":"getAllCandidates","outputs":[{"internalType":"uint256[]","name":"","type":"uint256[]"},{"internalType":"string[]","name":"","type":"string[]"},{"internalType":"string[]","name":"","type":"string[]"},{"internalType":"uint256[]","name":"","type":"uint256[]"}],"stateMutability":"view","type":"function"},{"inputs":[{"internalType":"uint256","name":"candidateId","type":"uint256"}],"name":"getCandidate","outputs":[{"internalType":"uint256","name":"","type":"uint256"},{"internalType":"string","name":"","type":"string"},{"internalType":"string","name":"","type":"string"},{"internalType":"uint256","name":"","type":"uint256"}],"stateMutability":"view","type":"function"},{"inputs":[],"name":"getElectionInfo","outputs":[{"internalType":"string","name":"","type":"string"},{"internalType":"string","name":"","type":"string"},{"internalType":"uint256","name":"","type":"uint256"},{"internalType":"uint256","name":"","type":"uint256"},{"internalType":"bool","name":"","type":"bool"}],"stateMutability":"view","type":"function"},{"inputs":[],"name":"getElectionStats","outputs":[{"internalType":"uint256","name":"","type":"uint256"},{"internalType":"uint256","name":"","type":"uint256"},{"internalType":"uint256","name":"","type":"uint256"},{"internalType":"bool","name":"","type":"bool"},{"internalType":"bool","name":"","type":"bool"}],"stateMutability":"view","type":"function"},{"inputs":[],"name":"getTimeRemaining","outputs":[{"internalType":"uint256","name":"","type":"uint256"}],"stateMutability":"view","type":"function"},{"inputs":[{"internalType":"string","name":"studentId","type":"string"}],"name":"getVoter","outputs":[{"internalType":"string","name":"","type":"string"},{"internalType":"bool","name":"","type":"bool"},{"internalType":"uint256","name":"","type":"uint256"}],"stateMutability":"view","type":"function"},{"inputs":[],"name":"getWinner","outputs":[{"internalType":"uint256","name":"","type":"uint256"},{"internalType":"string","name":"","type":"string"},{"internalType":"uint256","name":"","type":"uint256"}],"stateMutability":"view","type":"function"},{"inputs":[{"internalType":"string","name":"studentId","type":"string"},{"internalType":"address","name":"voterAddress","type":"address"}],"name":"registerVoter","outputs":[],"stateMutability":"nonpayable","type":"function"},{"inputs":[{"internalType":"string","name":"","type":"string"}],"name":"registeredStudentIds","outputs":[{"internalType":"bool","name":"","type":"bool"}],"stateMutability":"view","type":"function"},{"inputs":[],"name":"resetElection","outputs":[],"stateMutability":"nonpayable","type":"function"},{"inputs":[{"internalType":"uint256","name":"durationInMinutes","type":"uint256"}],"name":"startElection","outputs":[],"stateMutability":"nonpayable","type":"function"},{"inputs":[],"name":"totalVotes","outputs":[{"internalType":"uint256","name":"","type":"uint256"}],"stateMutability":"view","type":"function"},{"inputs":[{"internalType":"address","name":"newAdmin","type":"address"}],"name":"transferAdmin","outputs":[],"stateMutability":"nonpayable","type":"function"},{"inputs":[{"internalType":"uint256","name":"candidateId","type":"uint256"},{"internalType":"string","name":"voterStudentId","type":"string"}],"name":"vote","outputs":[],"stateMutability":"nonpayable","type":"function"},{"inputs":[{"internalType":"address","name":"","type":"address"}],"name":"voterAddresses","outputs":[{"internalType":"string","name":"","type":"string"}],"stateMutability":"view","type":"function"},{"inputs":[],"name":"voterCount","outputs":[{"internalType":"uint256","name":"","type":"uint256"}],"stateMutability":"view","type":"function"},{"inputs":[{"internalType":"string","name":"","type":"string"}],"name":"voters","outputs":[{"internalType":"string","name":"studentId","type":"string"},{"internalType":"bool","name":"hasVoted","type":"bool"},{"internalType":"bool","name":"isRegistered","type":"bool"},{"internalType":"uint256","name":"votedCandidateId","type":"uint256"}],"stateMutability":"view","type":"function"},{"inputs":[],"name":"votingEnded","outputs":[{"internalType":"bool","name":"","type":"bool"}],"stateMutability":"view","type":"function"},{"inputs":[],"name":"votingStarted","outputs":[{"internalType":"bool","name":"","type":"bool"}],"stateMutability":"view","type":"function"}],"evm":{"bytecode":{"linkReferences":{},"object":"60806040523480156200001157600080fd5b50336000806101000a81548173ffffffffffffffffffffffffffffffffffffffff021916908373ffffffffffffffffffffffffffffffffffffffff1602179055506000600181905550600060028190555060006003819055506000600460006101000a81548160ff0219169083151502179055506000600460016101000a81548160ff0219169083151502179055506040518060c001604052806040518060600160405280602681526020016200476e6026913981526020016040518060800160405280604181526020016200472d6041913981526020016000815260200160008152602001600015158152602001600115158152506009600082015181600001908162000120919062000410565b50602082015181600101908162000138919062000410565b50604082015181600201556060820151816003015560808201518160040160006101000a81548160ff02191690831515021790555060a08201518160040160016101000a81548160ff021916908315150217905550905050620004f7565b600081519050919050565b7f4e487b7100000000000000000000000000000000000000000000000000000000600052604160045260246000fd5b7f4e487b7100000000000000000000000000000000000000000000000000000000600052602260045260246000fd5b600060028204905060018216806200021857607f821691505b6020821081036200022e576200022d620001d0565b5b50919050565b60008190508160005260206000209050919050565b60006020601f8301049050919050565b600082821b905092915050565b600060088302620002987fffffffffffffffffffffffffffffffffffffffffffffffffffffffffffffffff8262000259565b620002a4868362000259565b95508019841693508086168417925050509392505050565b6000819050919050565b6000819050919050565b6000620002f1620002eb620002e584620002bc565b620002c6565b620002bc565b9050919050565b6000819050919050565b6200030d83620002d0565b620003256200031c82620002f8565b84845462000266565b825550505050565b600090565b6200033c6200032d565b6200034981848462000302565b505050565b5b8181101562000371576200036560008262000332565b6001810190506200034f565b5050565b601f821115620003c0576200038a8162000234565b620003958462000249565b81016020851015620003a5578190505b620003bd620003b48562000249565b8301826200034e565b50505b505050565b600082821c905092915050565b6000620003e560001984600802620003c5565b1980831691505092915050565b6000620004008383620003d2565b9150826002028217905092915050565b6200041b8262000196565b67ffffffffffffffff811115620004375762000436620001a1565b5b620004438254620001ff565b6200045082828562000375565b600060209050601f83116001811462000488576000841562000473578287015190505b6200047f8582620003f2565b865550620004ef565b601f198416620004988662000234565b60005b82811015620004c2578489015182556001820191506020850194506020810190506200049b565b86831015620004e25784890151620004de601f891682620003d2565b8355505b6001600288020188555050505b505050505050565b61422680620005076000396000f3fe608060405234801561001057600080fd5b50600436106101a95760003560e01c806363a599a4116100f957806391ca78d111610097578063dac6270d11610071578063dac6270d146104c5578063e8f30523146104e3578063f851a440146104ed578063fcae83a71461050b576101a9565b806391ca78d1146104595780639d5a052914610489578063a9a981a3146104a7576101a9565b806383d948b7116100d357806383d948b7146103d757806386852dca146103f55780638e7ea5b214610417578063906ad2a914610437576101a9565b806363a599a4146103955780636d32dc4b1461039f57806375829def146103bb576101a9565b80632e6997fe1161016657806342169e481161014057806342169e481461031e5780634a075de21461033c57806353fa2e641461035857806359f784681461038b576101a9565b80632e6997fe146102965780633477ee2e146102b757806335b8e820146102eb576101a9565b806303727283146101ae5780630484aca1146101de5780630d15fd771461020e57806314a0069a1461022c578063241084751461025e57806326541b561461027a575b600080fd5b6101c860048036038101906101c39190612884565b61052e565b6040516101d59190612941565b60405180910390f35b6101f860048036038101906101f39190612a98565b6105ce565b6040516102059190612afc565b60405180910390f35b610216610604565b6040516102239190612b30565b60405180910390f35b61024660048036038101906102419190612a98565b61060a565b60405161025593929190612b4b565b60405180910390f35b61027860048036038101906102739190612bb5565b610799565b005b610294600480360381019061028f9190612c11565b610b6a565b005b61029e610dce565b6040516102ae9493929190612e53565b60405180910390f35b6102d160048036038101906102cc9190612eb4565b611194565b6040516102e2959493929190612ee1565b60405180910390f35b61030560048036038101906103009190612eb4565b6112e7565b6040516103159493929190612f42565b60405180910390f35b6103266114ea565b6040516103339190612b30565b60405180910390f35b61035660048036038101906103519190612f95565b6114f0565b005b610372600480360381019061036d9190612a98565b61188e565b6040516103829493929190612ff1565b60405180910390f35b610393611976565b005b61039d611b1f565b005b6103b960048036038101906103b49190612eb4565b611be8565b005b6103d560048036038101906103d09190612884565b611e57565b005b6103df611f97565b6040516103ec9190612afc565b60405180910390f35b6103fd611faa565b60405161040e95949392919061303d565b60405180910390f35b61041f612104565b60405161042e9392919061309e565b60405180910390f35b61043f612307565b6040516104509594939291906130dc565b60405180910390f35b610473600480360381019061046e9190612a98565b612349565b6040516104809190612afc565b60405180910390f35b61049161240c565b60405161049e9190612afc565b60405180910390f35b6104af61241f565b6040516104bc9190612b30565b60405180910390f35b6104cd612425565b6040516104da9190612b30565b60405180910390f35b6104eb612489565b005b6104f561263d565b604051610502919061313e565b60405180910390f35b610513612661565b60405161052596959493929190613159565b60405180910390f35b6007602052806000526040600020600091509050805461054d906131f7565b80601f0160208091040260200160405190810160405280929190818152602001828054610579906131f7565b80156105c65780601f1061059b576101008083540402835291602001916105c6565b820191906000526020600020905b8154815290600101906020018083116105a957829003601f168201915b505050505081565b6008818051602081018201805184825260208301602085012081835280955050505050506000915054906101000a900460ff1681565b60035481565b606060008060068460405161061f9190613264565b908152602001604051809103902060010160019054906101000a900460ff1661067d576040517f08c379a0000000000000000000000000000000000000000000000000000000008152600401610674906132c7565b60405180910390fd5b600060068560405161068f9190613264565b90815260200160405180910390206040518060800160405290816000820180546106b8906131f7565b80601f01602080910402602001604051908101604052809291908181526020018280546106e4906131f7565b80156107315780601f1061070657610100808354040283529160200191610731565b820191906000526020600020905b81548152906001019060200180831161071457829003601f168201915b505050505081526020016001820160009054906101000a900460ff161515151581526020016001820160019054906101000a900460ff161515151581526020016002820154815250509050806000015181602001518260600151935093509350509193909250565b600460009054906101000a900460ff1680156107c25750600460019054906101000a900460ff16155b610801576040517f08c379a00000000000000000000000000000000000000000000000000000000081526004016107f890613333565b60405180910390fd5b600960020154421015801561081b57506009600301544211155b61085a576040517f08c379a00000000000000000000000000000000000000000000000000000000081526004016108519061339f565b60405180910390fd5b8060068160405161086b9190613264565b908152602001604051809103902060010160019054906101000a900460ff166108c9576040517f08c379a00000000000000000000000000000000000000000000000000000000081526004016108c0906132c7565b60405180910390fd5b6006816040516108d99190613264565b908152602001604051809103902060010160009054906101000a900460ff1615610938576040517f08c379a000000000000000000000000000000000000000000000000000000000815260040161092f9061340b565b60405180910390fd5b8080519060200120600760003373ffffffffffffffffffffffffffffffffffffffff1673ffffffffffffffffffffffffffffffffffffffff16815260200190815260200160002060405161098c91906134ce565b6040518091039020146109d4576040517f08c379a00000000000000000000000000000000000000000000000000000000081526004016109cb90613557565b60405180910390fd5b6005600084815260200190815260200160002060040160009054906101000a900460ff16610a37576040517f08c379a0000000000000000000000000000000000000000000000000000000008152600401610a2e906135c3565b60405180910390fd5b6001548311158015610a495750600083115b610a88576040517f08c379a0000000000000000000000000000000000000000000000000000000008152600401610a7f9061362f565b60405180910390fd5b6001600683604051610a9a9190613264565b908152602001604051809103902060010160006101000a81548160ff02191690831515021790555082600683604051610ad39190613264565b908152602001604051809103902060020181905550600560008481526020019081526020016000206003016000815480929190610b0f9061367e565b919050555060036000815480929190610b279061367e565b91905055507f777e12406713e556f995ae7467576ea751d01f243ff84668ef43b36634f3fa888284604051610b5d9291906136c6565b60405180910390a1505050565b60008054906101000a900473ffffffffffffffffffffffffffffffffffffffff1673ffffffffffffffffffffffffffffffffffffffff163373ffffffffffffffffffffffffffffffffffffffff1614610bf8576040517f08c379a0000000000000000000000000000000000000000000000000000000008152600401610bef90613768565b60405180910390fd5b600460009054906101000a900460ff1615610c48576040517f08c379a0000000000000000000000000000000000000000000000000000000008152600401610c3f906137d4565b60405180910390fd5b6000825111610c8c576040517f08c379a0000000000000000000000000000000000000000000000000000000008152600401610c8390613840565b60405180910390fd5b6000815111610cd0576040517f08c379a0000000000000000000000000000000000000000000000000000000008152600401610cc7906138ac565b60405180910390fd5b60016000815480929190610ce39061367e565b91905055506040518060a0016040528060015481526020018381526020018281526020016000815260200160011515815250600560006001548152602001908152602001600020600082015181600001556020820151816001019081610d499190613a78565b506040820151816002019081610d5f9190613a78565b506060820151816003015560808201518160040160006101000a81548160ff0219169083151502179055509050507fe64f834082661dd9ed89427b87edb6270fd6dad17198b0938f0edd058914c87f6001548383604051610dc293929190613b4a565b60405180910390a15050565b606080606080600060015467ffffffffffffffff811115610df257610df161296d565b5b604051908082528060200260200182016040528015610e205781602001602082028036833780820191505090505b509050600060015467ffffffffffffffff811115610e4157610e4061296d565b5b604051908082528060200260200182016040528015610e7457816020015b6060815260200190600190039081610e5f5790505b509050600060015467ffffffffffffffff811115610e9557610e9461296d565b5b604051908082528060200260200182016040528015610ec857816020015b6060815260200190600190039081610eb35790505b509050600060015467ffffffffffffffff811115610ee957610ee861296d565b5b604051908082528060200260200182016040528015610f175781602001602082028036833780820191505090505b5090506000600190505b600154811161117d576005600082815260200190815260200160002060040160009054906101000a900460ff161561116a57600560008281526020019081526020016000206000015485600183610f789190613b8f565b81518110610f8957610f88613bc3565b5b602002602001018181525050600560008281526020019081526020016000206001018054610fb6906131f7565b80601f0160208091040260200160405190810160405280929190818152602001828054610fe2906131f7565b801561102f5780601f106110045761010080835404028352916020019161102f565b820191906000526020600020905b81548152906001019060200180831161101257829003601f168201915b5050505050846001836110429190613b8f565b8151811061105357611052613bc3565b5b602002602001018190525060056000828152602001908152602001600020600201805461107f906131f7565b80601f01602080910402602001604051908101604052809291908181526020018280546110ab906131f7565b80156110f85780601f106110cd576101008083540402835291602001916110f8565b820191906000526020600020905b8154815290600101906020018083116110db57829003601f168201915b50505050508360018361110b9190613b8f565b8151811061111c5761111b613bc3565b5b602002602001018190525060056000828152602001908152602001600020600301548260018361114c9190613b8f565b8151811061115d5761115c613bc3565b5b6020026020010181815250505b80806111759061367e565b915050610f21565b508383838397509750975097505050505090919293565b60056020528060005260406000206000915090508060000154908060010180546111bd906131f7565b80601f01602080910402602001604051908101604052809291908181526020018280546111e9906131f7565b80156112365780601f1061120b57610100808354040283529160200191611236565b820191906000526020600020905b81548152906001019060200180831161121957829003601f168201915b50505050509080600201805461124b906131f7565b80601f0160208091040260200160405190810160405280929190818152602001828054611277906131f7565b80156112c45780601f10611299576101008083540402835291602001916112c4565b820191906000526020600020905b8154815290600101906020018083116112a757829003601f168201915b5050505050908060030154908060040160009054906101000a900460ff16905085565b600060608060006005600086815260200190815260200160002060040160009054906101000a900460ff16611351576040517f08c379a00000000000000000000000000000000000000000000000000000000081526004016113489061362f565b60405180910390fd5b6000600560008781526020019081526020016000206040518060a00160405290816000820154815260200160018201805461138b906131f7565b80601f01602080910402602001604051908101604052809291908181526020018280546113b7906131f7565b80156114045780601f106113d957610100808354040283529160200191611404565b820191906000526020600020905b8154815290600101906020018083116113e757829003601f168201915b5050505050815260200160028201805461141d906131f7565b80601f0160208091040260200160405190810160405280929190818152602001828054611449906131f7565b80156114965780601f1061146b57610100808354040283529160200191611496565b820191906000526020600020905b81548152906001019060200180831161147957829003601f168201915b50505050508152602001600382015481526020016004820160009054906101000a900460ff161515151581525050905080600001518160200151826040015183606001519450945094509450509193509193565b60025481565b60008054906101000a900473ffffffffffffffffffffffffffffffffffffffff1673ffffffffffffffffffffffffffffffffffffffff163373ffffffffffffffffffffffffffffffffffffffff161461157e576040517f08c379a000000000000000000000000000000000000000000000000000000000815260040161157590613768565b60405180910390fd5b600460009054906101000a900460ff16156115ce576040517f08c379a00000000000000000000000000000000000000000000000000000000081526004016115c5906137d4565b60405180910390fd5b6008826040516115de9190613264565b908152602001604051809103902060009054906101000a900460ff161561163a576040517f08c379a000000000000000000000000000000000000000000000000000000000815260040161163190613c3e565b60405180910390fd5b6000600760008373ffffffffffffffffffffffffffffffffffffffff1673ffffffffffffffffffffffffffffffffffffffff1681526020019081526020016000208054611686906131f7565b9050146116c8576040517f08c379a00000000000000000000000000000000000000000000000000000000081526004016116bf90613caa565b60405180910390fd5b600082511161170c576040517f08c379a000000000000000000000000000000000000000000000000000000000815260040161170390613d16565b60405180910390fd5b604051806080016040528083815260200160001515815260200160011515815260200160008152506006836040516117449190613264565b908152602001604051809103902060008201518160000190816117679190613a78565b5060208201518160010160006101000a81548160ff02191690831515021790555060408201518160010160016101000a81548160ff0219169083151502179055506060820151816002015590505081600760008373ffffffffffffffffffffffffffffffffffffffff1673ffffffffffffffffffffffffffffffffffffffff16815260200190815260200160002090816118019190613a78565b5060016008836040516118149190613264565b908152602001604051809103902060006101000a81548160ff0219169083151502179055506002600081548092919061184c9061367e565b91905055507ffb56e28feaff07a8d23b3119a966e036ae7f64ff72a539debc67c6e8cd7872168282604051611882929190613d36565b60405180910390a15050565b6006818051602081018201805184825260208301602085012081835280955050505050506000915090508060000180546118c7906131f7565b80601f01602080910402602001604051908101604052809291908181526020018280546118f3906131f7565b80156119405780601f1061191557610100808354040283529160200191611940565b820191906000526020600020905b81548152906001019060200180831161192357829003601f168201915b5050505050908060010160009054906101000a900460ff16908060010160019054906101000a900460ff16908060020154905084565b60008054906101000a900473ffffffffffffffffffffffffffffffffffffffff1673ffffffffffffffffffffffffffffffffffffffff163373ffffffffffffffffffffffffffffffffffffffff1614611a04576040517f08c379a00000000000000000000000000000000000000000000000000000000081526004016119fb90613768565b60405180910390fd5b600460009054906101000a900460ff16611a53576040517f08c379a0000000000000000000000000000000000000000000000000000000008152600401611a4a90613db2565b60405180910390fd5b600460019054906101000a900460ff1615611aa3576040517f08c379a0000000000000000000000000000000000000000000000000000000008152600401611a9a90613e1e565b60405180910390fd5b6001600460016101000a81548160ff0219169083151502179055506000600960040160006101000a81548160ff021916908315150217905550426009600301819055507f562cd572b2ba3b666cd989fc4ca98419ec81e75f04528df9d9d76fdb7807ee7142604051611b159190612b30565b60405180910390a1565b60008054906101000a900473ffffffffffffffffffffffffffffffffffffffff1673ffffffffffffffffffffffffffffffffffffffff163373ffffffffffffffffffffffffffffffffffffffff1614611bad576040517f08c379a0000000000000000000000000000000000000000000000000000000008152600401611ba490613768565b60405180910390fd5b6001600460016101000a81548160ff0219169083151502179055506000600960040160006101000a81548160ff021916908315150217905550565b60008054906101000a900473ffffffffffffffffffffffffffffffffffffffff1673ffffffffffffffffffffffffffffffffffffffff163373ffffffffffffffffffffffffffffffffffffffff1614611c76576040517f08c379a0000000000000000000000000000000000000000000000000000000008152600401611c6d90613768565b60405180910390fd5b600460009054906101000a900460ff1615611cc6576040517f08c379a0000000000000000000000000000000000000000000000000000000008152600401611cbd906137d4565b60405180910390fd5b600060015411611d0b576040517f08c379a0000000000000000000000000000000000000000000000000000000008152600401611d0290613e8a565b60405180910390fd5b600060025411611d50576040517f08c379a0000000000000000000000000000000000000000000000000000000008152600401611d4790613ef6565b60405180910390fd5b60008111611d93576040517f08c379a0000000000000000000000000000000000000000000000000000000008152600401611d8a90613f62565b60405180910390fd5b42600960020181905550603c81611daa9190613f82565b42611db59190613fc4565b6009600301819055506001600960040160006101000a81548160ff0219169083151502179055506001600460006101000a81548160ff0219169083151502179055506000600460016101000a81548160ff0219169083151502179055507f627fedc2c091c67f445c74dafa73901e80b09b2f142b1fc11fe75960202b41fd6009600001600960020154604051611e4c92919061407c565b60405180910390a150565b60008054906101000a900473ffffffffffffffffffffffffffffffffffffffff1673ffffffffffffffffffffffffffffffffffffffff163373ffffffffffffffffffffffffffffffffffffffff1614611ee5576040517f08c379a0000000000000000000000000000000000000000000000000000000008152600401611edc90613768565b60405180910390fd5b600073ffffffffffffffffffffffffffffffffffffffff168173ffffffffffffffffffffffffffffffffffffffff1603611f54576040517f08c379a0000000000000000000000000000000000000000000000000000000008152600401611f4b906140f8565b60405180910390fd5b806000806101000a81548173ffffffffffffffffffffffffffffffffffffffff021916908373ffffffffffffffffffffffffffffffffffffffff16021790555050565b600460009054906101000a900460ff1681565b606080600080600060096000016009600101600960020154600960030154600960040160009054906101000a900460ff16848054611fe7906131f7565b80601f0160208091040260200160405190810160405280929190818152602001828054612013906131f7565b80156120605780601f1061203557610100808354040283529160200191612060565b820191906000526020600020905b81548152906001019060200180831161204357829003601f168201915b50505050509450838054612073906131f7565b80601f016020809104026020016040519081016040528092919081815260200182805461209f906131f7565b80156120ec5780601f106120c1576101008083540402835291602001916120ec565b820191906000526020600020905b8154815290600101906020018083116120cf57829003601f168201915b50505050509350945094509450945094509091929394565b600060606000600460019054906101000a900460ff1680612170575060008054906101000a900473ffffffffffffffffffffffffffffffffffffffff1673ffffffffffffffffffffffffffffffffffffffff163373ffffffffffffffffffffffffffffffffffffffff16145b6121af576040517f08c379a00000000000000000000000000000000000000000000000000000000081526004016121a690614164565b60405180910390fd5b6000600354116121f4576040517f08c379a00000000000000000000000000000000000000000000000000000000081526004016121eb906141d0565b60405180910390fd5b6000806000600190505b600154811161225557826005600083815260200190815260200160002060030154111561224257600560008281526020019081526020016000206003015492508091505b808061224d9061367e565b9150506121fe565b5080600560008381526020019081526020016000206001018381805461227a906131f7565b80601f01602080910402602001604051908101604052809291908181526020018280546122a6906131f7565b80156122f35780601f106122c8576101008083540402835291602001916122f3565b820191906000526020600020905b8154815290600101906020018083116122d657829003601f168201915b505050505091509450945094505050909192565b6000806000806000600154600254600354600460009054906101000a900460ff16600460019054906101000a900460ff16945094509450945094509091929394565b600060068260405161235b9190613264565b908152602001604051809103902060010160019054906101000a900460ff1680156123b257506006826040516123919190613264565b908152602001604051809103902060010160009054906101000a900460ff16155b80156123ca5750600460009054906101000a900460ff165b80156123e35750600460019054906101000a900460ff16155b80156123f457506009600201544210155b801561240557506009600301544211155b9050919050565b600460019054906101000a900460ff1681565b60015481565b6000600460009054906101000a900460ff16158061244f5750600460019054906101000a900460ff165b1561245d5760009050612486565b60096003015442106124725760009050612486565b426009600301546124839190613b8f565b90505b90565b60008054906101000a900473ffffffffffffffffffffffffffffffffffffffff1673ffffffffffffffffffffffffffffffffffffffff163373ffffffffffffffffffffffffffffffffffffffff1614612517576040517f08c379a000000000000000000000000000000000000000000000000000000000815260040161250e90613768565b60405180910390fd5b6000600190505b6001548111612594576005600082815260200190815260200160002060008082016000905560018201600061255391906127b5565b60028201600061256391906127b5565b60038201600090556004820160006101000a81549060ff02191690555050808061258c9061367e565b91505061251e565b506000600460006101000a81548160ff0219169083151502179055506000600460016101000a81548160ff02191690831515021790555060006001819055506000600381905550600060096002018190555060006009600301819055506000600960040160006101000a81548160ff0219169083151502179055507f8d1085cd9eceaab0b77fd20c66dea55df08e5ef2d52859c2cb4a1e16ba9476c060405160405180910390a1565b60008054906101000a900473ffffffffffffffffffffffffffffffffffffffff1681565b6009806000018054612672906131f7565b80601f016020809104026020016040519081016040528092919081815260200182805461269e906131f7565b80156126eb5780601f106126c0576101008083540402835291602001916126eb565b820191906000526020600020905b8154815290600101906020018083116126ce57829003601f168201915b505050505090806001018054612700906131f7565b80601f016020809104026020016040519081016040528092919081815260200182805461272c906131f7565b80156127795780601f1061274e57610100808354040283529160200191612779565b820191906000526020600020905b81548152906001019060200180831161275c57829003601f168201915b5050505050908060020154908060030154908060040160009054906101000a900460ff16908060040160019054906101000a900460ff16905086565b5080546127c1906131f7565b6000825580601f106127d357506127f2565b601f0160209004906000526020600020908101906127f191906127f5565b5b50565b5b8082111561280e5760008160009055506001016127f6565b5090565b6000604051905090565b600080fd5b600080fd5b600073ffffffffffffffffffffffffffffffffffffffff82169050919050565b600061285182612826565b9050919050565b61286181612846565b811461286c57600080fd5b50565b60008135905061287e81612858565b92915050565b60006020828403121561289a5761289961281c565b5b60006128a88482850161286f565b91505092915050565b600081519050919050565b600082825260208201905092915050565b60005b838110156128eb5780820151818401526020810190506128d0565b60008484015250505050565b6000601f19601f8301169050919050565b6000612913826128b1565b61291d81856128bc565b935061292d8185602086016128cd565b612936816128f7565b840191505092915050565b6000602082019050818103600083015261295b8184612908565b905092915050565b600080fd5b600080fd5b7f4e487b7100000000000000000000000000000000000000000000000000000000600052604160045260246000fd5b6129a5826128f7565b810181811067ffffffffffffffff821117156129c4576129c361296d565b5b80604052505050565b60006129d7612812565b90506129e3828261299c565b919050565b600067ffffffffffffffff821115612a0357612a0261296d565b5b612a0c826128f7565b9050602081019050919050565b82818337600083830152505050565b6000612a3b612a36846129e8565b6129cd565b905082815260208101848484011115612a5757612a56612968565b5b612a62848285612a19565b509392505050565b600082601f830112612a7f57612a7e612963565b5b8135612a8f848260208601612a28565b91505092915050565b600060208284031215612aae57612aad61281c565b5b600082013567ffffffffffffffff811115612acc57612acb612821565b5b612ad884828501612a6a565b91505092915050565b60008115159050919050565b612af681612ae1565b82525050565b6000602082019050612b116000830184612aed565b92915050565b6000819050919050565b612b2a81612b17565b82525050565b6000602082019050612b456000830184612b21565b92915050565b60006060820190508181036000830152612b658186612908565b9050612b746020830185612aed565b612b816040830184612b21565b949350505050565b612b9281612b17565b8114612b9d57600080fd5b50565b600081359050612baf81612b89565b92915050565b60008060408385031215612bcc57612bcb61281c565b5b6000612bda85828601612ba0565b925050602083013567ffffffffffffffff811115612bfb57612bfa612821565b5b612c0785828601612a6a565b9150509250929050565b60008060408385031215612c2857612c2761281c565b5b600083013567ffffffffffffffff811115612c4657612c45612821565b5b612c5285828601612a6a565b925050602083013567ffffffffffffffff811115612c7357612c72612821565b5b612c7f85828601612a6a565b9150509250929050565b600081519050919050565b600082825260208201905092915050565b6000819050602082019050919050565b612cbe81612b17565b82525050565b6000612cd08383612cb5565b60208301905092915050565b6000602082019050919050565b6000612cf482612c89565b612cfe8185612c94565b9350612d0983612ca5565b8060005b83811015612d3a578151612d218882612cc4565b9750612d2c83612cdc565b925050600181019050612d0d565b5085935050505092915050565b600081519050919050565b600082825260208201905092915050565b6000819050602082019050919050565b600082825260208201905092915050565b6000612d8f826128b1565b612d998185612d73565b9350612da98185602086016128cd565b612db2816128f7565b840191505092915050565b6000612dc98383612d84565b905092915050565b6000602082019050919050565b6000612de982612d47565b612df38185612d52565b935083602082028501612e0585612d63565b8060005b85811015612e415784840389528151612e228582612dbd565b9450612e2d83612dd1565b925060208a01995050600181019050612e09565b50829750879550505050505092915050565b60006080820190508181036000830152612e6d8187612ce9565b90508181036020830152612e818186612dde565b90508181036040830152612e958185612dde565b90508181036060830152612ea98184612ce9565b905095945050505050565b600060208284031215612eca57612ec961281c565b5b6000612ed884828501612ba0565b91505092915050565b600060a082019050612ef66000830188612b21565b8181036020830152612f088187612908565b90508181036040830152612f1c8186612908565b9050612f2b6060830185612b21565b612f386080830184612aed565b9695505050505050565b6000608082019050612f576000830187612b21565b8181036020830152612f698186612908565b90508181036040830152612f7d8185612908565b9050612f8c6060830184612b21565b95945050505050565b60008060408385031215612fac57612fab61281c565b5b600083013567ffffffffffffffff811115612fca57612fc9612821565b5b612fd685828601612a6a565b9250506020612fe78582860161286f565b9150509250929050565b6000608082019050818103600083015261300b8187612908565b905061301a6020830186612aed565b6130276040830185612aed565b6130346060830184612b21565b95945050505050565b600060a08201905081810360008301526130578188612908565b9050818103602083015261306b8187612908565b905061307a6040830186612b21565b6130876060830185612b21565b6130946080830184612aed565b9695505050505050565b60006060820190506130b36000830186612b21565b81810360208301526130c58185612908565b90506130d46040830184612b21565b949350505050565b600060a0820190506130f16000830188612b21565b6130fe6020830187612b21565b61310b6040830186612b21565b6131186060830185612aed565b6131256080830184612aed565b9695505050505050565b61313881612846565b82525050565b6000602082019050613153600083018461312f565b92915050565b600060c08201905081810360008301526131738189612908565b905081810360208301526131878188612908565b90506131966040830187612b21565b6131a36060830186612b21565b6131b06080830185612aed565b6131bd60a0830184612aed565b979650505050505050565b7f4e487b7100000000000000000000000000000000000000000000000000000000600052602260045260246000fd5b6000600282049050600182168061320f57607f821691505b602082108103613222576132216131c8565b5b50919050565b600081905092915050565b600061323e826128b1565b6132488185613228565b93506132588185602086016128cd565b80840191505092915050565b60006132708284613233565b915081905092915050565b7f566f746572206e6f742072656769737465726564000000000000000000000000600082015250565b60006132b16014836128bc565b91506132bc8261327b565b602082019050919050565b600060208201905081810360008301526132e0816132a4565b9050919050565b7f566f74696e67206973206e6f7420616374697665000000000000000000000000600082015250565b600061331d6014836128bc565b9150613328826132e7565b602082019050919050565b6000602082019050818103600083015261334c81613310565b9050919050565b7f456c656374696f6e206e6f7420696e2070726f67726573730000000000000000600082015250565b60006133896018836128bc565b915061339482613353565b602082019050919050565b600060208201905081810360008301526133b88161337c565b9050919050565b7f566f7465722068617320616c726561647920766f746564000000000000000000600082015250565b60006133f56017836128bc565b9150613400826133bf565b602082019050919050565b60006020820190508181036000830152613424816133e8565b9050919050565b600081905092915050565b60008190508160005260206000209050919050565b60008154613458816131f7565b613462818661342b565b9450600182166000811461347d5760018114613492576134c5565b60ff19831686528115158202860193506134c5565b61349b85613436565b60005b838110156134bd5781548189015260018201915060208101905061349e565b838801955050505b50505092915050565b60006134da828461344b565b915081905092915050565b7f53656e646572206164647265737320646f65736e2774206d617463682072656760008201527f697374657265642073747564656e742049440000000000000000000000000000602082015250565b60006135416032836128bc565b915061354c826134e5565b604082019050919050565b6000602082019050818103600083015261357081613534565b9050919050565b7f496e76616c69642063616e646964617465000000000000000000000000000000600082015250565b60006135ad6011836128bc565b91506135b882613577565b602082019050919050565b600060208201905081810360008301526135dc816135a0565b9050919050565b7f43616e64696461746520646f6573206e6f742065786973740000000000000000600082015250565b60006136196018836128bc565b9150613624826135e3565b602082019050919050565b600060208201905081810360008301526136488161360c565b9050919050565b7f4e487b7100000000000000000000000000000000000000000000000000000000600052601160045260246000fd5b600061368982612b17565b91507fffffffffffffffffffffffffffffffffffffffffffffffffffffffffffffffff82036136bb576136ba61364f565b5b600182019050919050565b600060408201905081810360008301526136e08185612908565b90506136ef6020830184612b21565b9392505050565b7f4f6e6c792061646d696e2063616e20706572666f726d2074686973206163746960008201527f6f6e000000000000000000000000000000000000000000000000000000000000602082015250565b60006137526022836128bc565b915061375d826136f6565b604082019050919050565b6000602082019050818103600083015261378181613745565b9050919050565b7f566f74696e672068617320616c72656164792073746172746564000000000000600082015250565b60006137be601a836128bc565b91506137c982613788565b602082019050919050565b600060208201905081810360008301526137ed816137b1565b9050919050565b7f43616e646964617465206e616d652063616e6e6f7420626520656d7074790000600082015250565b600061382a601e836128bc565b9150613835826137f4565b602082019050919050565b600060208201905081810360008301526138598161381d565b9050919050565b7f53747564656e742049442063616e6e6f7420626520656d707479000000000000600082015250565b6000613896601a836128bc565b91506138a182613860565b602082019050919050565b600060208201905081810360008301526138c581613889565b9050919050565b60008190508160005260206000209050919050565b60006020601f8301049050919050565b600082821b905092915050565b60006008830261392e7fffffffffffffffffffffffffffffffffffffffffffffffffffffffffffffffff826138f1565b61393886836138f1565b95508019841693508086168417925050509392505050565b6000819050919050565b600061397561397061396b84612b17565b613950565b612b17565b9050919050565b6000819050919050565b61398f8361395a565b6139a361399b8261397c565b8484546138fe565b825550505050565b600090565b6139b86139ab565b6139c3818484613986565b505050565b5b818110156139e7576139dc6000826139b0565b6001810190506139c9565b5050565b601f821115613a2c576139fd816138cc565b613a06846138e1565b81016020851015613a15578190505b613a29613a21856138e1565b8301826139c8565b50505b505050565b600082821c905092915050565b6000613a4f60001984600802613a31565b1980831691505092915050565b6000613a688383613a3e565b9150826002028217905092915050565b613a81826128b1565b67ffffffffffffffff811115613a9a57613a9961296d565b5b613aa482546131f7565b613aaf8282856139eb565b600060209050601f831160018114613ae25760008415613ad0578287015190505b613ada8582613a5c565b865550613b42565b601f198416613af0866138cc565b60005b82811015613b1857848901518255600182019150602085019450602081019050613af3565b86831015613b355784890151613b31601f891682613a3e565b8355505b6001600288020188555050505b505050505050565b6000606082019050613b5f6000830186612b21565b8181036020830152613b718185612908565b90508181036040830152613b858184612908565b9050949350505050565b6000613b9a82612b17565b9150613ba583612b17565b9250828203905081811115613bbd57613bbc61364f565b5b92915050565b7f4e487b7100000000000000000000000000000000000000000000000000000000600052603260045260246000fd5b7f53747564656e7420494420616c72656164792072656769737465726564000000600082015250565b6000613c28601d836128bc565b9150613c3382613bf2565b602082019050919050565b60006020820190508181036000830152613c5781613c1b565b9050919050565b7f4164647265737320616c72656164792072656769737465726564000000000000600082015250565b6000613c94601a836128bc565b9150613c9f82613c5e565b602082019050919050565b60006020820190508181036000830152613cc381613c87565b9050919050565b7f496e76616c69642073747564656e742049440000000000000000000000000000600082015250565b6000613d006012836128bc565b9150613d0b82613cca565b602082019050919050565b60006020820190508181036000830152613d2f81613cf3565b9050919050565b60006040820190508181036000830152613d508185612908565b9050613d5f602083018461312f565b9392505050565b7f566f74696e67206861736e277420737461727465642079657400000000000000600082015250565b6000613d9c6019836128bc565b9150613da782613d66565b602082019050919050565b60006020820190508181036000830152613dcb81613d8f565b9050919050565b7f566f74696e6720616c726561647920656e646564000000000000000000000000600082015250565b6000613e086014836128bc565b9150613e1382613dd2565b602082019050919050565b60006020820190508181036000830152613e3781613dfb565b9050919050565b7f4e6f2063616e6469646174657320726567697374657265640000000000000000600082015250565b6000613e746018836128bc565b9150613e7f82613e3e565b602082019050919050565b60006020820190508181036000830152613ea381613e67565b9050919050565b7f4e6f20766f746572732072656769737465726564000000000000000000000000600082015250565b6000613ee06014836128bc565b9150613eeb82613eaa565b602082019050919050565b60006020820190508181036000830152613f0f81613ed3565b9050919050565b7f496e76616c6964206475726174696f6e00000000000000000000000000000000600082015250565b6000613f4c6010836128bc565b9150613f5782613f16565b602082019050919050565b60006020820190508181036000830152613f7b81613f3f565b9050919050565b6000613f8d82612b17565b9150613f9883612b17565b9250828202613fa681612b17565b91508282048414831517613fbd57613fbc61364f565b5b5092915050565b6000613fcf82612b17565b9150613fda83612b17565b9250828201905080821115613ff257613ff161364f565b5b92915050565b60008154614005816131f7565b61400f81866128bc565b9450600182166000811461402a576001811461404057614073565b60ff198316865281151560200286019350614073565b614049856138cc565b60005b8381101561406b5781548189015260018201915060208101905061404c565b808801955050505b50505092915050565b600060408201905081810360008301526140968185613ff8565b90506140a56020830184612b21565b9392505050565b7f496e76616c69642061646d696e20616464726573730000000000000000000000600082015250565b60006140e26015836128bc565b91506140ed826140ac565b602082019050919050565b60006020820190508181036000830152614111816140d5565b9050919050565b7f566f74696e67207374696c6c20696e2070726f67726573730000000000000000600082015250565b600061414e6018836128bc565b915061415982614118565b602082019050919050565b6000602082019050818103600083015261417d81614141565b9050919050565b7f4e6f20766f746573206361737400000000000000000000000000000000000000600082015250565b60006141ba600d836128bc565b91506141c582614184565b602082019050919050565b600060208201905081810360008301526141e9816141ad565b905091905056fea26469706673582212209e2c0906f18713ee1ee45781ab7bbf92310d858c563b2cb982210877a8ca414064736f6c63430008130033456c656374696f6e20666f722053747564656e7420556e696f6e20507265736964656e74206174204665646572616c20556e6976657273697479204c6f6b6f6a6153747564656e7420556e696f6e2045786563757469766520456c656374696f6e732032303234","opcodes":"PUSH1 0x80 PUSH1 0x40 MSTORE CALLVALUE DUP1 ISZERO PUSH3 0x11 JUMPI PUSH1 0x0 DUP1 REVERT JUMPDEST POP CALLER PUSH1 0x0 DUP1 PUSH2 0x100 EXP DUP2 SLOAD DUP2 PUSH20 0xFFFFFFFFFFFFFFFFFFFFFFFFFFFFFFFFFFFFFFFF MUL NOT AND SWAP1 DUP4 PUSH20 0xFFFFFFFFFFFFFFFFFFFFFFFFFFFFFFFFFFFFFFFF AND MUL OR SWAP1 SSTORE POP PUSH1 0x0 PUSH1 0x1 DUP2 SWAP1 SSTORE POP PUSH1 0x0 PUSH1 0x2 DUP2 SWAP1 SSTORE POP PUSH1 0x0 PUSH1 0x3 DUP2 SWAP1 SSTORE POP PUSH1 0x0 PUSH1 0x4 PUSH1 0x0 PUSH2 0x100 EXP DUP2 SLOAD DUP2 PUSH1 0xFF MUL NOT AND SWAP1 DUP4 ISZERO ISZERO MUL OR SWAP1 SSTORE POP PUSH1 0x0 PUSH1 0x4 PUSH1 0x1 PUSH2 0x100 EXP DUP2 SLOAD DUP2 PUSH1 0xFF MUL NOT AND SWAP1 DUP4 ISZERO ISZERO MUL OR SWAP1 SSTORE POP PUSH1 0x40 MLOAD DUP1 PUSH1 0xC0 ADD PUSH1 0x40 MSTORE DUP1 PUSH1 0x40 MLOAD DUP1 PUSH1 0x60 ADD PUSH1 0x40 MSTORE DUP1 PUSH1 0x26 DUP2 MSTORE PUSH1 0x20 ADD PUSH3 0x476E PUSH1 0x26 SWAP2 CODECOPY DUP2 MSTORE PUSH1 0x20 ADD PUSH1 0x40 MLOAD DUP1 PUSH1 0x80 ADD PUSH1 0x40 MSTORE DUP1 PUSH1 0x41 DUP2 MSTORE PUSH1 0x20 ADD PUSH3 0x472D PUSH1 0x41 SWAP2 CODECOPY DUP2 MSTORE PUSH1 0x20 ADD PUSH1 0x0 DUP2 MSTORE PUSH1 0x20 ADD PUSH1 0x0 DUP2 MSTORE PUSH1 0x20 ADD PUSH1 0x0 ISZERO ISZERO DUP2 MSTORE PUSH1 0x20 ADD PUSH1 0x1 ISZERO ISZERO DUP2 MSTORE POP PUSH1 0x9 PUSH1 0x0 DUP3 ADD MLOAD DUP2 PUSH1 0x0 ADD SWAP1 DUP2 PUSH3 0x120 SWAP2 SWAP1 PUSH3 0x410 JUMP JUMPDEST POP PUSH1 0x20 DUP3 ADD MLOAD DUP2 PUSH1 0x1 ADD SWAP1 DUP2 PUSH3 0x138 SWAP2 SWAP1 PUSH3 0x410 JUMP JUMPDEST POP PUSH1 0x40 DUP3 ADD MLOAD DUP2 PUSH1 0x2 ADD SSTORE PUSH1 0x60 DUP3 ADD MLOAD DUP2 PUSH1 0x3 ADD SSTORE PUSH1 0x80 DUP3 ADD MLOAD DUP2 PUSH1 0x4 ADD PUSH1 0x0 PUSH2 0x100 EXP DUP2 SLOAD DUP2 PUSH1 0xFF MUL NOT AND SWAP1 DUP4 ISZERO ISZERO MUL OR SWAP1 SSTORE POP PUSH1 0xA0 DUP3 ADD MLOAD DUP2 PUSH1 0x4 ADD PUSH1 0x1 PUSH2 0x100 EXP DUP2 SLOAD DUP2 PUSH1 0xFF MUL NOT AND SWAP1 DUP4 ISZERO ISZERO MUL OR SWAP1 SSTORE POP SWAP1 POP POP PUSH3 0x4F7 JUMP JUMPDEST PUSH1 0x0 DUP2 MLOAD SWAP1 POP SWAP2 SWAP1 POP JUMP JUMPDEST PUSH32 0x4E487B7100000000000000000000000000000000000000000000000000000000 PUSH1 0x0 MSTORE PUSH1 0x41 PUSH1 0x4 MSTORE PUSH1 0x24 PUSH1 0x0 REVERT JUMPDEST PUSH32 0x4E487B7100000000000000000000000000000000000000000000000000000000 PUSH1 0x0 MSTORE PUSH1 0x22 PUSH1 0x4 MSTORE PUSH1 0x24 PUSH1 0x0 REVERT JUMPDEST PUSH1 0x0 PUSH1 0x2 DUP3 DIV SWAP1 POP PUSH1 0x1 DUP3 AND DUP1 PUSH3 0x218 JUMPI PUSH1 0x7F DUP3 AND SWAP2 POP JUMPDEST PUSH1 0x20 DUP3 LT DUP2 SUB PUSH3 0x22E JUMPI PUSH3 0x22D PUSH3 0x1D0 JUMP JUMPDEST JUMPDEST POP SWAP2 SWAP1 POP JUMP JUMPDEST PUSH1 0x0 DUP2 SWAP1 POP DUP2 PUSH1 0x0 MSTORE PUSH1 0x20 PUSH1 0x0 KECCAK256 SWAP1 POP SWAP2 SWAP1 POP JUMP JUMPDEST PUSH1 0x0 PUSH1 0x20 PUSH1 0x1F DUP4 ADD DIV SWAP1 POP SWAP2 SWAP1 POP JUMP JUMPDEST PUSH1 0x0 DUP3 DUP3 SHL SWAP1 POP SWAP3 SWAP2 POP POP JUMP JUMPDEST PUSH1 0x0 PUSH1 0x8 DUP4 MUL PUSH3 0x298 PUSH32 0xFFFFFFFFFFFFFFFFFFFFFFFFFFFFFFFFFFFFFFFFFFFFFFFFFFFFFFFFFFFFFFFF DUP3 PUSH3 0x259 JUMP JUMPDEST PUSH3 0x2A4 DUP7 DUP4 PUSH3 0x259 JUMP JUMPDEST SWAP6 POP DUP1 NOT DUP5 AND SWAP4 POP DUP1 DUP7 AND DUP5 OR SWAP3 POP POP POP SWAP4 SWAP3 POP POP POP JUMP JUMPDEST PUSH1 0x0 DUP2 SWAP1 POP SWAP2 SWAP1 POP JUMP JUMPDEST PUSH1 0x0 DUP2 SWAP1 POP SWAP2 SWAP1 POP JUMP JUMPDEST PUSH1 0x0 PUSH3 0x2F1 PUSH3 0x2EB PUSH3 0x2E5 DUP5 PUSH3 0x2BC JUMP JUMPDEST PUSH3 0x2C6 JUMP JUMPDEST PUSH3 0x2BC JUMP JUMPDEST SWAP1 POP SWAP2 SWAP1 POP JUMP JUMPDEST PUSH1 0x0 DUP2 SWAP1 POP SWAP2 SWAP1 POP JUMP JUMPDEST PUSH3 0x30D DUP4 PUSH3 0x2D0 JUMP JUMPDEST PUSH3 0x325 PUSH3 0x31C DUP3 PUSH3 0x2F8 JUMP JUMPDEST DUP5 DUP5 SLOAD PUSH3 0x266 JUMP JUMPDEST DUP3 SSTORE POP POP POP POP JUMP JUMPDEST PUSH1 0x0 SWAP1 JUMP JUMPDEST PUSH3 0x33C PUSH3 0x32D JUMP JUMPDEST PUSH3 0x349 DUP2 DUP5 DUP5 PUSH3 0x302 JUMP JUMPDEST POP POP POP JUMP JUMPDEST JUMPDEST DUP2 DUP2 LT ISZERO PUSH3 0x371 JUMPI PUSH3 0x365 PUSH1 0x0 DUP3 PUSH3 0x332 JUMP JUMPDEST PUSH1 0x1 DUP2 ADD SWAP1 POP PUSH3 0x34F JUMP JUMPDEST POP POP JUMP JUMPDEST PUSH1 0x1F DUP3 GT ISZERO PUSH3 0x3C0 JUMPI PUSH3 0x38A DUP2 PUSH3 0x234 JUMP JUMPDEST PUSH3 0x395 DUP5 PUSH3 0x249 JUMP JUMPDEST DUP2 ADD PUSH1 0x20 DUP6 LT ISZERO PUSH3 0x3A5 JUMPI DUP2 SWAP1 POP JUMPDEST PUSH3 0x3BD PUSH3 0x3B4 DUP6 PUSH3 0x249 JUMP JUMPDEST DUP4 ADD DUP3 PUSH3 0x34E JUMP JUMPDEST POP POP JUMPDEST POP POP POP JUMP JUMPDEST PUSH1 0x0 DUP3 DUP3 SHR SWAP1 POP SWAP3 SWAP2 POP POP JUMP JUMPDEST PUSH1 0x0 PUSH3 0x3E5 PUSH1 0x0 NOT DUP5 PUSH1 0x8 MUL PUSH3 0x3C5 JUMP JUMPDEST NOT DUP1 DUP4 AND SWAP2 POP POP SWAP3 SWAP2 POP POP JUMP JUMPDEST PUSH1 0x0 PUSH3 0x400 DUP4 DUP4 PUSH3 0x3D2 JUMP JUMPDEST SWAP2 POP DUP3 PUSH1 0x2 MUL DUP3 OR SWAP1 POP SWAP3 SWAP2 POP POP JUMP JUMPDEST PUSH3 0x41B DUP3 PUSH3 0x196 JUMP JUMPDEST PUSH8 0xFFFFFFFFFFFFFFFF DUP2 GT ISZERO PUSH3 0x437 JUMPI PUSH3 0x436 PUSH3 0x1A1 JUMP JUMPDEST JUMPDEST PUSH3 0x443 DUP3 SLOAD PUSH3 0x1FF JUMP JUMPDEST PUSH3 0x450 DUP3 DUP3 DUP6 PUSH3 0x375 JUMP JUMPDEST PUSH1 0x0 PUSH1 0x20 SWAP1 POP PUSH1 0x1F DUP4 GT PUSH1 0x1 DUP2 EQ PUSH3 0x488 JUMPI PUSH1 0x0 DUP5 ISZERO PUSH3 0x473 JUMPI DUP3 DUP8 ADD MLOAD SWAP1 POP JUMPDEST PUSH3 0x47F DUP6 DUP3 PUSH3 0x3F2 JUMP JUMPDEST DUP7 SSTORE POP PUSH3 0x4EF JUMP JUMPDEST PUSH1 0x1F NOT DUP5 AND PUSH3 0x498 DUP7 PUSH3 0x234 JUMP JUMPDEST PUSH1 0x0 JUMPDEST DUP3 DUP2 LT ISZERO PUSH3 0x4C2 JUMPI DUP5 DUP10 ADD MLOAD DUP3 SSTORE PUSH1 0x1 DUP3 ADD SWAP2 POP PUSH1 0x20 DUP6 ADD SWAP5 POP PUSH1 0x20 DUP2 ADD SWAP1 POP PUSH3 0x49B JUMP JUMPDEST DUP7 DUP4 LT ISZERO PUSH3 0x4E2 JUMPI DUP5 DUP10 ADD MLOAD PUSH3 0x4DE PUSH1 0x1F DUP10 AND DUP3 PUSH3 0x3D2 JUMP JUMPDEST DUP4 SSTORE POP JUMPDEST PUSH1 0x1 PUSH1 0x2 DUP9 MUL ADD DUP9 SSTORE POP POP POP JUMPDEST POP POP POP POP POP POP JUMP JUMPDEST PUSH2 0x4226 DUP1 PUSH3 0x507 PUSH1 0x0 CODECOPY PUSH1 0x0 RETURN INVALID PUSH1 0x80 PUSH1 0x40 MSTORE CALLVALUE DUP1 ISZERO PUSH2 0x10 JUMPI PUSH1 0x0 DUP1 REVERT JUMPDEST POP PUSH1 0x4 CALLDATASIZE LT PUSH2 0x1A9 JUMPI PUSH1 0x0 CALLDATALOAD PUSH1 0xE0 SHR DUP1 PUSH4 0x63A599A4 GT PUSH2 0xF9 JUMPI DUP1 PUSH4 0x91CA78D1 GT PUSH2 0x97 JUMPI DUP1 PUSH4 0xDAC6270D GT PUSH2 0x71 JUMPI DUP1 PUSH4 0xDAC6270D EQ PUSH2 0x4C5 JUMPI DUP1 PUSH4 0xE8F30523 EQ PUSH2 0x4E3 JUMPI DUP1 PUSH4 0xF851A440 EQ PUSH2 0x4ED JUMPI DUP1 PUSH4 0xFCAE83A7 EQ PUSH2 0x50B JUMPI PUSH2 0x1A9 JUMP JUMPDEST DUP1 PUSH4 0x91CA78D1 EQ PUSH2 0x459 JUMPI DUP1 PUSH4 0x9D5A0529 EQ PUSH2 0x489 JUMPI DUP1 PUSH4 0xA9A981A3 EQ PUSH2 0x4A7 JUMPI PUSH2 0x1A9 JUMP JUMPDEST DUP1 PUSH4 0x83D948B7 GT PUSH2 0xD3 JUMPI DUP1 PUSH4 0x83D948B7 EQ PUSH2 0x3D7 JUMPI DUP1 PUSH4 0x86852DCA EQ PUSH2 0x3F5 JUMPI DUP1 PUSH4 0x8E7EA5B2 EQ PUSH2 0x417 JUMPI DUP1 PUSH4 0x906AD2A9 EQ PUSH2 0x437 JUMPI PUSH2 0x1A9 JUMP JUMPDEST DUP1 PUSH4 0x63A599A4 EQ PUSH2 0x395 JUMPI DUP1 PUSH4 0x6D32DC4B EQ PUSH2 0x39F JUMPI DUP1 PUSH4 0x75829DEF EQ PUSH2 0x3BB JUMPI PUSH2 0x1A9 JUMP JUMPDEST DUP1 PUSH4 0x2E6997FE GT PUSH2 0x166 JUMPI DUP1 PUSH4 0x42169E48 GT PUSH2 0x140 JUMPI DUP1 PUSH4 0x42169E48 EQ PUSH2 0x31E JUMPI DUP1 PUSH4 0x4A075DE2 EQ PUSH2 0x33C JUMPI DUP1 PUSH4 0x53FA2E64 EQ PUSH2 0x358 JUMPI DUP1 PUSH4 0x59F78468 EQ PUSH2 0x38B JUMPI PUSH2 0x1A9 JUMP JUMPDEST DUP1 PUSH4 0x2E6997FE EQ PUSH2 0x296 JUMPI DUP1 PUSH4 0x3477EE2E EQ PUSH2 0x2B7 JUMPI DUP1 PUSH4 0x35B8E820 EQ PUSH2 0x2EB JUMPI PUSH2 0x1A9 JUMP JUMPDEST DUP1 PUSH4 0x3727283 EQ PUSH2 0x1AE JUMPI DUP1 PUSH4 0x484ACA1 EQ PUSH2 0x1DE JUMPI DUP1 PUSH4 0xD15FD77 EQ PUSH2 0x20E JUMPI DUP1 PUSH4 0x14A0069A EQ PUSH2 0x22C JUMPI DUP1 PUSH4 0x24108475 EQ PUSH2 0x25E JUMPI DUP1 PUSH4 0x26541B56 EQ PUSH2 0x27A JUMPI JUMPDEST PUSH1 0x0 DUP1 REVERT JUMPDEST PUSH2 0x1C8 PUSH1 0x4 DUP1 CALLDATASIZE SUB DUP2 ADD SWAP1 PUSH2 0x1C3 SWAP2 SWAP1 PUSH2 0x2884 JUMP JUMPDEST PUSH2 0x52E JUMP JUMPDEST PUSH1 0x40 MLOAD PUSH2 0x1D5 SWAP2 SWAP1 PUSH2 0x2941 JUMP JUMPDEST PUSH1 0x40 MLOAD DUP1 SWAP2 SUB SWAP1 RETURN JUMPDEST PUSH2 0x1F8 PUSH1 0x4 DUP1 CALLDATASIZE SUB DUP2 ADD SWAP1 PUSH2 0x1F3 SWAP2 SWAP1 PUSH2 0x2A98 JUMP JUMPDEST PUSH2 0x5CE JUMP JUMPDEST PUSH1 0x40 MLOAD PUSH2 0x205 SWAP2 SWAP1 PUSH2 0x2AFC JUMP JUMPDEST PUSH1 0x40 MLOAD DUP1 SWAP2 SUB SWAP1 RETURN JUMPDEST PUSH2 0x216 PUSH2 0x604 JUMP JUMPDEST PUSH1 0x40 MLOAD PUSH2 0x223 SWAP2 SWAP1 PUSH2 0x2B30 JUMP JUMPDEST PUSH1 0x40 MLOAD DUP1 SWAP2 SUB SWAP1 RETURN JUMPDEST PUSH2 0x246 PUSH1 0x4 DUP1 CALLDATASIZE SUB DUP2 ADD SWAP1 PUSH2 0x241 SWAP2 SWAP1 PUSH2 0x2A98 JUMP JUMPDEST PUSH2 0x60A JUMP JUMPDEST PUSH1 0x40 MLOAD PUSH2 0x255 SWAP4 SWAP3 SWAP2 SWAP1 PUSH2 0x2B4B JUMP JUMPDEST PUSH1 0x40 MLOAD DUP1 SWAP2 SUB SWAP1 RETURN JUMPDEST PUSH2 0x278 PUSH1 0x4 DUP1 CALLDATASIZE SUB DUP2 ADD SWAP1 PUSH2 0x273 SWAP2 SWAP1 PUSH2 0x2BB5 JUMP JUMPDEST PUSH2 0x799 JUMP JUMPDEST STOP JUMPDEST PUSH2 0x294 PUSH1 0x4 DUP1 CALLDATASIZE SUB DUP2 ADD SWAP1 PUSH2 0x28F SWAP2 SWAP1 PUSH2 0x2C11 JUMP JUMPDEST PUSH2 0xB6A JUMP JUMPDEST STOP JUMPDEST PUSH2 0x29E PUSH2 0xDCE JUMP JUMPDEST PUSH1 0x40 MLOAD PUSH2 0x2AE SWAP5 SWAP4 SWAP3 SWAP2 SWAP1 PUSH2 0x2E53 JUMP JUMPDEST PUSH1 0x40 MLOAD DUP1 SWAP2 SUB SWAP1 RETURN JUMPDEST PUSH2 0x2D1 PUSH1 0x4 DUP1 CALLDATASIZE SUB DUP2 ADD SWAP1 PUSH2 0x2CC SWAP2 SWAP1 PUSH2 0x2EB4 JUMP JUMPDEST PUSH2 0x1194 JUMP JUMPDEST PUSH1 0x40 MLOAD PUSH2 0x2E2 SWAP6 SWAP5 SWAP4 SWAP3 SWAP2 SWAP1 PUSH2 0x2EE1 JUMP JUMPDEST PUSH1 0x40 MLOAD DUP1 SWAP2 SUB SWAP1 RETURN JUMPDEST PUSH2 0x305 PUSH1 0x4 DUP1 CALLDATASIZE SUB DUP2 ADD SWAP1 PUSH2 0x300 SWAP2 SWAP1 PUSH2 0x2EB4 JUMP JUMPDEST PUSH2 0x12E7 JUMP JUMPDEST PUSH1 0x40 MLOAD PUSH2 0x315 SWAP5 SWAP4 SWAP3 SWAP2 SWAP1 PUSH2 0x2F42 JUMP JUMPDEST PUSH1 0x40 MLOAD DUP1 SWAP2 SUB SWAP1 RETURN JUMPDEST PUSH2 0x326 PUSH2 0x14EA JUMP JUMPDEST PUSH1 0x40 MLOAD PUSH2 0x333 SWAP2 SWAP1 PUSH2 0x2B30 JUMP JUMPDEST PUSH1 0x40 MLOAD DUP1 SWAP2 SUB SWAP1 RETURN JUMPDEST PUSH2 0x356 PUSH1 0x4 DUP1 CALLDATASIZE SUB DUP2 ADD SWAP1 PUSH2 0x351 SWAP2 SWAP1 PUSH2 0x2F95 JUMP JUMPDEST PUSH2 0x14F0 JUMP JUMPDEST STOP JUMPDEST PUSH2 0x372 PUSH1 0x4 DUP1 CALLDATASIZE SUB DUP2 ADD SWAP1 PUSH2 0x36D SWAP2 SWAP1 PUSH2 0x2A98 JUMP JUMPDEST PUSH2 0x188E JUMP JUMPDEST PUSH1 0x40 MLOAD PUSH2 0x382 SWAP5 SWAP4 SWAP3 SWAP2 SWAP1 PUSH2 0x2FF1 JUMP JUMPDEST PUSH1 0x40 MLOAD DUP1 SWAP2 SUB SWAP1 RETURN JUMPDEST PUSH2 0x393 PUSH2 0x1976 JUMP JUMPDEST STOP JUMPDEST PUSH2 0x39D PUSH2 0x1B1F JUMP JUMPDEST STOP JUMPDEST PUSH2 0x3B9 PUSH1 0x4 DUP1 CALLDATASIZE SUB DUP2 ADD SWAP1 PUSH2 0x3B4 SWAP2 SWAP1 PUSH2 0x2EB4 JUMP JUMPDEST PUSH2 0x1BE8 JUMP JUMPDEST STOP JUMPDEST PUSH2 0x3D5 PUSH1 0x4 DUP1 CALLDATASIZE SUB DUP2 ADD SWAP1 PUSH2 0x3D0 SWAP2 SWAP1 PUSH2 0x2884 JUMP JUMPDEST PUSH2 0x1E57 JUMP JUMPDEST STOP JUMPDEST PUSH2 0x3DF PUSH2 0x1F97 JUMP JUMPDEST PUSH1 0x40 MLOAD PUSH2 0x3EC SWAP2 SWAP1 PUSH2 0x2AFC JUMP JUMPDEST PUSH1 0x40 MLOAD DUP1 SWAP2 SUB SWAP1 RETURN JUMPDEST PUSH2 0x3FD PUSH2 0x1FAA JUMP JUMPDEST PUSH1 0x40 MLOAD PUSH2 0x40E SWAP6 SWAP5 SWAP4 SWAP3 SWAP2 SWAP1 PUSH2 0x303D JUMP JUMPDEST PUSH1 0x40 MLOAD DUP1 SWAP2 SUB SWAP1 RETURN JUMPDEST PUSH2 0x41F PUSH2 0x2104 JUMP JUMPDEST PUSH1 0x40 MLOAD PUSH2 0x42E SWAP4 SWAP3 SWAP2 SWAP1 PUSH2 0x309E JUMP JUMPDEST PUSH1 0x40 MLOAD DUP1 SWAP2 SUB SWAP1 RETURN JUMPDEST PUSH2 0x43F PUSH2 0x2307 JUMP JUMPDEST PUSH1 0x40 MLOAD PUSH2 0x450 SWAP6 SWAP5 SWAP4 SWAP3 SWAP2 SWAP1 PUSH2 0x30DC JUMP JUMPDEST PUSH1 0x40 MLOAD DUP1 SWAP2 SUB SWAP1 RETURN JUMPDEST PUSH2 0x473 PUSH1 0x4 DUP1 CALLDATASIZE SUB DUP2 ADD SWAP1 PUSH2 0x46E SWAP2 SWAP1 PUSH2 0x2A98 JUMP JUMPDEST PUSH2 0x2349 JUMP JUMPDEST PUSH1 0x40 MLOAD PUSH2 0x480 SWAP2 SWAP1 PUSH2 0x2AFC JUMP JUMPDEST PUSH1 0x40 MLOAD DUP1 SWAP2 SUB SWAP1 RETURN JUMPDEST PUSH2 0x491 PUSH2 0x240C JUMP JUMPDEST PUSH1 0x40 MLOAD PUSH2 0x49E SWAP2 SWAP1 PUSH2 0x2AFC JUMP JUMPDEST PUSH1 0x40 MLOAD DUP1 SWAP2 SUB SWAP1 RETURN JUMPDEST PUSH2 0x4AF PUSH2 0x241F JUMP JUMPDEST PUSH1 0x40 MLOAD PUSH2 0x4BC SWAP2 SWAP1 PUSH2 0x2B30 JUMP JUMPDEST PUSH1 0x40 MLOAD DUP1 SWAP2 SUB SWAP1 RETURN JUMPDEST PUSH2 0x4CD PUSH2 0x2425 JUMP JUMPDEST PUSH1 0x40 MLOAD PUSH2 0x4DA SWAP2 SWAP1 PUSH2 0x2B30 JUMP JUMPDEST PUSH1 0x40 MLOAD DUP1 SWAP2 SUB SWAP1 RETURN JUMPDEST PUSH2 0x4EB PUSH2 0x2489 JUMP JUMPDEST STOP JUMPDEST PUSH2 0x4F5 PUSH2 0x263D JUMP JUMPDEST PUSH1 0x40 MLOAD PUSH2 0x502 SWAP2 SWAP1 PUSH2 0x313E JUMP JUMPDEST PUSH1 0x40 MLOAD DUP1 SWAP2 SUB SWAP1 RETURN JUMPDEST PUSH2 0x513 PUSH2 0x2661 JUMP JUMPDEST PUSH1 0x40 MLOAD PUSH2 0x525 SWAP7 SWAP6 SWAP5 SWAP4 SWAP3 SWAP2 SWAP1 PUSH2 0x3159 JUMP JUMPDEST PUSH1 0x40 MLOAD DUP1 SWAP2 SUB SWAP1 RETURN JUMPDEST PUSH1 0x7 PUSH1 0x20 MSTORE DUP1 PUSH1 0x0 MSTORE PUSH1 0x40 PUSH1 0x0 KECCAK256 PUSH1 0x0 SWAP2 POP SWAP1 POP DUP1 SLOAD PUSH2 0x54D SWAP1 PUSH2 0x31F7 JUMP JUMPDEST DUP1 PUSH1 0x1F ADD PUSH1 0x20 DUP1 SWAP2 DIV MUL PUSH1 0x20 ADD PUSH1 0x40 MLOAD SWAP1 DUP2 ADD PUSH1 0x40 MSTORE DUP1 SWAP3 SWAP2 SWAP1 DUP2 DUP2 MSTORE PUSH1 0x20 ADD DUP3 DUP1 SLOAD PUSH2 0x579 SWAP1 PUSH2 0x31F7 JUMP JUMPDEST DUP1 ISZERO PUSH2 0x5C6 JUMPI DUP1 PUSH1 0x1F LT PUSH2 0x59B JUMPI PUSH2 0x100 DUP1 DUP4 SLOAD DIV MUL DUP4 MSTORE SWAP2 PUSH1 0x20 ADD SWAP2 PUSH2 0x5C6 JUMP JUMPDEST DUP3 ADD SWAP2 SWAP1 PUSH1 0x0 MSTORE PUSH1 0x20 PUSH1 0x0 KECCAK256 SWAP1 JUMPDEST DUP2 SLOAD DUP2 MSTORE SWAP1 PUSH1 0x1 ADD SWAP1 PUSH1 0x20 ADD DUP1 DUP4 GT PUSH2 0x5A9 JUMPI DUP3 SWAP1 SUB PUSH1 0x1F AND DUP3 ADD SWAP2 JUMPDEST POP POP POP POP POP DUP2 JUMP JUMPDEST PUSH1 0x8 DUP2 DUP1 MLOAD PUSH1 0x20 DUP2 ADD DUP3 ADD DUP1 MLOAD DUP5 DUP3 MSTORE PUSH1 0x20 DUP4 ADD PUSH1 0x20 DUP6 ADD KECCAK256 DUP2 DUP4 MSTORE DUP1 SWAP6 POP POP POP POP POP POP PUSH1 0x0 SWAP2 POP SLOAD SWAP1 PUSH2 0x100 EXP SWAP1 DIV PUSH1 0xFF AND DUP2 JUMP JUMPDEST PUSH1 0x3 SLOAD DUP2 JUMP JUMPDEST PUSH1 0x60 PUSH1 0x0 DUP1 PUSH1 0x6 DUP5 PUSH1 0x40 MLOAD PUSH2 0x61F SWAP2 SWAP1 PUSH2 0x3264 JUMP JUMPDEST SWAP1 DUP2 MSTORE PUSH1 0x20 ADD PUSH1 0x40 MLOAD DUP1 SWAP2 SUB SWAP1 KECCAK256 PUSH1 0x1 ADD PUSH1 0x1 SWAP1 SLOAD SWAP1 PUSH2 0x100 EXP SWAP1 DIV PUSH1 0xFF AND PUSH2 0x67D JUMPI PUSH1 0x40 MLOAD PUSH32 0x8C379A000000000000000000000000000000000000000000000000000000000 DUP2 MSTORE PUSH1 0x4 ADD PUSH2 0x674 SWAP1 PUSH2 0x32C7 JUMP JUMPDEST PUSH1 0x40 MLOAD DUP1 SWAP2 SUB SWAP1 REVERT JUMPDEST PUSH1 0x0 PUSH1 0x6 DUP6 PUSH1 0x40 MLOAD PUSH2 0x68F SWAP2 SWAP1 PUSH2 0x3264 JUMP JUMPDEST SWAP1 DUP2 MSTORE PUSH1 0x20 ADD PUSH1 0x40 MLOAD DUP1 SWAP2 SUB SWAP1 KECCAK256 PUSH1 0x40 MLOAD DUP1 PUSH1 0x80 ADD PUSH1 0x40 MSTORE SWAP1 DUP2 PUSH1 0x0 DUP3 ADD DUP1 SLOAD PUSH2 0x6B8 SWAP1 PUSH2 0x31F7 JUMP JUMPDEST DUP1 PUSH1 0x1F ADD PUSH1 0x20 DUP1 SWAP2 DIV MUL PUSH1 0x20 ADD PUSH1 0x40 MLOAD SWAP1 DUP2 ADD PUSH1 0x40 MSTORE DUP1 SWAP3 SWAP2 SWAP1 DUP2 DUP2 MSTORE PUSH1 0x20 ADD DUP3 DUP1 SLOAD PUSH2 0x6E4 SWAP1 PUSH2 0x31F7 JUMP JUMPDEST DUP1 ISZERO PUSH2 0x731 JUMPI DUP1 PUSH1 0x1F LT PUSH2 0x706 JUMPI PUSH2 0x100 DUP1 DUP4 SLOAD DIV MUL DUP4 MSTORE SWAP2 PUSH1 0x20 ADD SWAP2 PUSH2 0x731 JUMP JUMPDEST DUP3 ADD SWAP2 SWAP1 PUSH1 0x0 MSTORE PUSH1 0x20 PUSH1 0x0 KECCAK256 SWAP1 JUMPDEST DUP2 SLOAD DUP2 MSTORE SWAP1 PUSH1 0x1 ADD SWAP1 PUSH1 0x20 ADD DUP1 DUP4 GT PUSH2 0x714 JUMPI DUP3 SWAP1 SUB PUSH1 0x1F AND DUP3 ADD SWAP2 JUMPDEST POP POP POP POP POP DUP2 MSTORE PUSH1 0x20 ADD PUSH1 0x1 DUP3 ADD PUSH1 0x0 SWAP1 SLOAD SWAP1 PUSH2 0x100 EXP SWAP1 DIV PUSH1 0xFF AND ISZERO ISZERO ISZERO ISZERO DUP2 MSTORE PUSH1 0x20 ADD PUSH1 0x1 DUP3 ADD PUSH1 0x1 SWAP1 SLOAD SWAP1 PUSH2 0x100 EXP SWAP1 DIV PUSH1 0xFF AND ISZERO ISZERO ISZERO ISZERO DUP2 MSTORE PUSH1 0x20 ADD PUSH1 0x2 DUP3 ADD SLOAD DUP2 MSTORE POP POP SWAP1 POP DUP1 PUSH1 0x0 ADD MLOAD DUP2 PUSH1 0x20 ADD MLOAD DUP3 PUSH1 0x60 ADD MLOAD SWAP4 POP SWAP4 POP SWAP4 POP POP SWAP2 SWAP4 SWAP1 SWAP3 POP JUMP JUMPDEST PUSH1 0x4 PUSH1 0x0 SWAP1 SLOAD SWAP1 PUSH2 0x100 EXP SWAP1 DIV PUSH1 0xFF AND DUP1 ISZERO PUSH2 0x7C2 JUMPI POP PUSH1 0x4 PUSH1 0x1 SWAP1 SLOAD SWAP1 PUSH2 0x100 EXP SWAP1 DIV PUSH1 0xFF AND ISZERO JUMPDEST PUSH2 0x801 JUMPI PUSH1 0x40 MLOAD PUSH32 0x8C379A000000000000000000000000000000000000000000000000000000000 DUP2 MSTORE PUSH1 0x4 ADD PUSH2 0x7F8 SWAP1 PUSH2 0x3333 JUMP JUMPDEST PUSH1 0x40 MLOAD DUP1 SWAP2 SUB SWAP1 REVERT JUMPDEST PUSH1 0x9 PUSH1 0x2 ADD SLOAD TIMESTAMP LT ISZERO DUP1 ISZERO PUSH2 0x81B JUMPI POP PUSH1 0x9 PUSH1 0x3 ADD SLOAD TIMESTAMP GT ISZERO JUMPDEST PUSH2 0x85A JUMPI PUSH1 0x40 MLOAD PUSH32 0x8C379A000000000000000000000000000000000000000000000000000000000 DUP2 MSTORE PUSH1 0x4 ADD PUSH2 0x851 SWAP1 PUSH2 0x339F JUMP JUMPDEST PUSH1 0x40 MLOAD DUP1 SWAP2 SUB SWAP1 REVERT JUMPDEST DUP1 PUSH1 0x6 DUP2 PUSH1 0x40 MLOAD PUSH2 0x86B SWAP2 SWAP1 PUSH2 0x3264 JUMP JUMPDEST SWAP1 DUP2 MSTORE PUSH1 0x20 ADD PUSH1 0x40 MLOAD DUP1 SWAP2 SUB SWAP1 KECCAK256 PUSH1 0x1 ADD PUSH1 0x1 SWAP1 SLOAD SWAP1 PUSH2 0x100 EXP SWAP1 DIV PUSH1 0xFF AND PUSH2 0x8C9 JUMPI PUSH1 0x40 MLOAD PUSH32 0x8C379A000000000000000000000000000000000000000000000000000000000 DUP2 MSTORE PUSH1 0x4 ADD PUSH2 0x8C0 SWAP1 PUSH2 0x32C7 JUMP JUMPDEST PUSH1 0x40 MLOAD DUP1 SWAP2 SUB SWAP1 REVERT JUMPDEST PUSH1 0x6 DUP2 PUSH1 0x40 MLOAD PUSH2 0x8D9 SWAP2 SWAP1 PUSH2 0x3264 JUMP JUMPDEST SWAP1 DUP2 MSTORE PUSH1 0x20 ADD PUSH1 0x40 MLOAD DUP1 SWAP2 SUB SWAP1 KECCAK256 PUSH1 0x1 ADD PUSH1 0x0 SWAP1 SLOAD SWAP1 PUSH2 0x100 EXP SWAP1 DIV PUSH1 0xFF AND ISZERO PUSH2 0x938 JUMPI PUSH1 0x40 MLOAD PUSH32 0x8C379A000000000000000000000000000000000000000000000000000000000 DUP2 MSTORE PUSH1 0x4 ADD PUSH2 0x92F SWAP1 PUSH2 0x340B JUMP JUMPDEST PUSH1 0x40 MLOAD DUP1 SWAP2 SUB SWAP1 REVERT JUMPDEST DUP1 DUP1 MLOAD SWAP1 PUSH1 0x20 ADD KECCAK256 PUSH1 0x7 PUSH1 0x0 CALLER PUSH20 0xFFFFFFFFFFFFFFFFFFFFFFFFFFFFFFFFFFFFFFFF AND PUSH20 0xFFFFFFFFFFFFFFFFFFFFFFFFFFFFFFFFFFFFFFFF AND DUP2 MSTORE PUSH1 0x20 ADD SWAP1 DUP2 MSTORE PUSH1 0x20 ADD PUSH1 0x0 KECCAK256 PUSH1 0x40 MLOAD PUSH2 0x98C SWAP2 SWAP1 PUSH2 0x34CE JUMP JUMPDEST PUSH1 0x40 MLOAD DUP1 SWAP2 SUB SWAP1 KECCAK256 EQ PUSH2 0x9D4 JUMPI PUSH1 0x40 MLOAD PUSH32 0x8C379A000000000000000000000000000000000000000000000000000000000 DUP2 MSTORE PUSH1 0x4 ADD PUSH2 0x9CB SWAP1 PUSH2 0x3557 JUMP JUMPDEST PUSH1 0x40 MLOAD DUP1 SWAP2 SUB SWAP1 REVERT JUMPDEST PUSH1 0x5 PUSH1 0x0 DUP5 DUP2 MSTORE PUSH1 0x20 ADD SWAP1 DUP2 MSTORE PUSH1 0x20 ADD PUSH1 0x0 KECCAK256 PUSH1 0x4 ADD PUSH1 0x0 SWAP1 SLOAD SWAP1 PUSH2 0x100 EXP SWAP1 DIV PUSH1 0xFF AND PUSH2 0xA37 JUMPI PUSH1 0x40 MLOAD PUSH32 0x8C379A000000000000000000000000000000000000000000000000000000000 DUP2 MSTORE PUSH1 0x4 ADD PUSH2 0xA2E SWAP1 PUSH2 0x35C3 JUMP JUMPDEST PUSH1 0x40 MLOAD DUP1 SWAP2 SUB SWAP1 REVERT JUMPDEST PUSH1 0x1 SLOAD DUP4 GT ISZERO DUP1 ISZERO PUSH2 0xA49 JUMPI POP PUSH1 0x0 DUP4 GT JUMPDEST PUSH2 0xA88 JUMPI PUSH1 0x40 MLOAD PUSH32 0x8C379A000000000000000000000000000000000000000000000000000000000 DUP2 MSTORE PUSH1 0x4 ADD PUSH2 0xA7F SWAP1 PUSH2 0x362F JUMP JUMPDEST PUSH1 0x40 MLOAD DUP1 SWAP2 SUB SWAP1 REVERT JUMPDEST PUSH1 0x1 PUSH1 0x6 DUP4 PUSH1 0x40 MLOAD PUSH2 0xA9A SWAP2 SWAP1 PUSH2 0x3264 JUMP JUMPDEST SWAP1 DUP2 MSTORE PUSH1 0x20 ADD PUSH1 0x40 MLOAD DUP1 SWAP2 SUB SWAP1 KECCAK256 PUSH1 0x1 ADD PUSH1 0x0 PUSH2 0x100 EXP DUP2 SLOAD DUP2 PUSH1 0xFF MUL NOT AND SWAP1 DUP4 ISZERO ISZERO MUL OR SWAP1 SSTORE POP DUP3 PUSH1 0x6 DUP4 PUSH1 0x40 MLOAD PUSH2 0xAD3 SWAP2 SWAP1 PUSH2 0x3264 JUMP JUMPDEST SWAP1 DUP2 MSTORE PUSH1 0x20 ADD PUSH1 0x40 MLOAD DUP1 SWAP2 SUB SWAP1 KECCAK256 PUSH1 0x2 ADD DUP2 SWAP1 SSTORE POP PUSH1 0x5 PUSH1 0x0 DUP5 DUP2 MSTORE PUSH1 0x20 ADD SWAP1 DUP2 MSTORE PUSH1 0x20 ADD PUSH1 0x0 KECCAK256 PUSH1 0x3 ADD PUSH1 0x0 DUP2 SLOAD DUP1 SWAP3 SWAP2 SWAP1 PUSH2 0xB0F SWAP1 PUSH2 0x367E JUMP JUMPDEST SWAP2 SWAP1 POP SSTORE POP PUSH1 0x3 PUSH1 0x0 DUP2 SLOAD DUP1 SWAP3 SWAP2 SWAP1 PUSH2 0xB27 SWAP1 PUSH2 0x367E JUMP JUMPDEST SWAP2 SWAP1 POP SSTORE POP PUSH32 0x777E12406713E556F995AE7467576EA751D01F243FF84668EF43B36634F3FA88 DUP3 DUP5 PUSH1 0x40 MLOAD PUSH2 0xB5D SWAP3 SWAP2 SWAP1 PUSH2 0x36C6 JUMP JUMPDEST PUSH1 0x40 MLOAD DUP1 SWAP2 SUB SWAP1 LOG1 POP POP POP JUMP JUMPDEST PUSH1 0x0 DUP1 SLOAD SWAP1 PUSH2 0x100 EXP SWAP1 DIV PUSH20 0xFFFFFFFFFFFFFFFFFFFFFFFFFFFFFFFFFFFFFFFF AND PUSH20 0xFFFFFFFFFFFFFFFFFFFFFFFFFFFFFFFFFFFFFFFF AND CALLER PUSH20 0xFFFFFFFFFFFFFFFFFFFFFFFFFFFFFFFFFFFFFFFF AND EQ PUSH2 0xBF8 JUMPI PUSH1 0x40 MLOAD PUSH32 0x8C379A000000000000000000000000000000000000000000000000000000000 DUP2 MSTORE PUSH1 0x4 ADD PUSH2 0xBEF SWAP1 PUSH2 0x3768 JUMP JUMPDEST PUSH1 0x40 MLOAD DUP1 SWAP2 SUB SWAP1 REVERT JUMPDEST PUSH1 0x4 PUSH1 0x0 SWAP1 SLOAD SWAP1 PUSH2 0x100 EXP SWAP1 DIV PUSH1 0xFF AND ISZERO PUSH2 0xC48 JUMPI PUSH1 0x40 MLOAD PUSH32 0x8C379A000000000000000000000000000000000000000000000000000000000 DUP2 MSTORE PUSH1 0x4 ADD PUSH2 0xC3F SWAP1 PUSH2 0x37D4 JUMP JUMPDEST PUSH1 0x40 MLOAD DUP1 SWAP2 SUB SWAP1 REVERT JUMPDEST PUSH1 0x0 DUP3 MLOAD GT PUSH2 0xC8C JUMPI PUSH1 0x40 MLOAD PUSH32 0x8C379A000000000000000000000000000000000000000000000000000000000 DUP2 MSTORE PUSH1 0x4 ADD PUSH2 0xC83 SWAP1 PUSH2 0x3840 JUMP JUMPDEST PUSH1 0x40 MLOAD DUP1 SWAP2 SUB SWAP1 REVERT JUMPDEST PUSH1 0x0 DUP2 MLOAD GT PUSH2 0xCD0 JUMPI PUSH1 0x40 MLOAD PUSH32 0x8C379A000000000000000000000000000000000000000000000000000000000 DUP2 MSTORE PUSH1 0x4 ADD PUSH2 0xCC7 SWAP1 PUSH2 0x38AC JUMP JUMPDEST PUSH1 0x40 MLOAD DUP1 SWAP2 SUB SWAP1 REVERT JUMPDEST PUSH1 0x1 PUSH1 0x0 DUP2 SLOAD DUP1 SWAP3 SWAP2 SWAP1 PUSH2 0xCE3 SWAP1 PUSH2 0x367E JUMP JUMPDEST SWAP2 SWAP1 POP SSTORE POP PUSH1 0x40 MLOAD DUP1 PUSH1 0xA0 ADD PUSH1 0x40 MSTORE DUP1 PUSH1 0x1 SLOAD DUP2 MSTORE PUSH1 0x20 ADD DUP4 DUP2 MSTORE PUSH1 0x20 ADD DUP3 DUP2 MSTORE PUSH1 0x20 ADD PUSH1 0x0 DUP2 MSTORE PUSH1 0x20 ADD PUSH1 0x1 ISZERO ISZERO DUP2 MSTORE POP PUSH1 0x5 PUSH1 0x0 PUSH1 0x1 SLOAD DUP2 MSTORE PUSH1 0x20 ADD SWAP1 DUP2 MSTORE PUSH1 0x20 ADD PUSH1 0x0 KECCAK256 PUSH1 0x0 DUP3 ADD MLOAD DUP2 PUSH1 0x0 ADD SSTORE PUSH1 0x20 DUP3 ADD MLOAD DUP2 PUSH1 0x1 ADD SWAP1 DUP2 PUSH2 0xD49 SWAP2 SWAP1 PUSH2 0x3A78 JUMP JUMPDEST POP PUSH1 0x40 DUP3 ADD MLOAD DUP2 PUSH1 0x2 ADD SWAP1 DUP2 PUSH2 0xD5F SWAP2 SWAP1 PUSH2 0x3A78 JUMP JUMPDEST POP PUSH1 0x60 DUP3 ADD MLOAD DUP2 PUSH1 0x3 ADD SSTORE PUSH1 0x80 DUP3 ADD MLOAD DUP2 PUSH1 0x4 ADD PUSH1 0x0 PUSH2 0x100 EXP DUP2 SLOAD DUP2 PUSH1 0xFF MUL NOT AND SWAP1 DUP4 ISZERO ISZERO MUL OR SWAP1 SSTORE POP SWAP1 POP POP PUSH32 0xE64F834082661DD9ED89427B87EDB6270FD6DAD17198B0938F0EDD058914C87F PUSH1 0x1 SLOAD DUP4 DUP4 PUSH1 0x40 MLOAD PUSH2 0xDC2 SWAP4 SWAP3 SWAP2 SWAP1 PUSH2 0x3B4A JUMP JUMPDEST PUSH1 0x40 MLOAD DUP1 SWAP2 SUB SWAP1 LOG1 POP POP JUMP JUMPDEST PUSH1 0x60 DUP1 PUSH1 0x60 DUP1 PUSH1 0x0 PUSH1 0x1 SLOAD PUSH8 0xFFFFFFFFFFFFFFFF DUP2 GT ISZERO PUSH2 0xDF2 JUMPI PUSH2 0xDF1 PUSH2 0x296D JUMP JUMPDEST JUMPDEST PUSH1 0x40 MLOAD SWAP1 DUP1 DUP3 MSTORE DUP1 PUSH1 0x20 MUL PUSH1 0x20 ADD DUP3 ADD PUSH1 0x40 MSTORE DUP1 ISZERO PUSH2 0xE20 JUMPI DUP2 PUSH1 0x20 ADD PUSH1 0x20 DUP3 MUL DUP1 CALLDATASIZE DUP4 CALLDATACOPY DUP1 DUP3 ADD SWAP2 POP POP SWAP1 POP JUMPDEST POP SWAP1 POP PUSH1 0x0 PUSH1 0x1 SLOAD PUSH8 0xFFFFFFFFFFFFFFFF DUP2 GT ISZERO PUSH2 0xE41 JUMPI PUSH2 0xE40 PUSH2 0x296D JUMP JUMPDEST JUMPDEST PUSH1 0x40 MLOAD SWAP1 DUP1 DUP3 MSTORE DUP1 PUSH1 0x20 MUL PUSH1 0x20 ADD DUP3 ADD PUSH1 0x40 MSTORE DUP1 ISZERO PUSH2 0xE74 JUMPI DUP2 PUSH1 0x20 ADD JUMPDEST PUSH1 0x60 DUP2 MSTORE PUSH1 0x20 ADD SWAP1 PUSH1 0x1 SWAP1 SUB SWAP1 DUP2 PUSH2 0xE5F JUMPI SWAP1 POP JUMPDEST POP SWAP1 POP PUSH1 0x0 PUSH1 0x1 SLOAD PUSH8 0xFFFFFFFFFFFFFFFF DUP2 GT ISZERO PUSH2 0xE95 JUMPI PUSH2 0xE94 PUSH2 0x296D JUMP JUMPDEST JUMPDEST PUSH1 0x40 MLOAD SWAP1 DUP1 DUP3 MSTORE DUP1 PUSH1 0x20 MUL PUSH1 0x20 ADD DUP3 ADD PUSH1 0x40 MSTORE DUP1 ISZERO PUSH2 0xEC8 JUMPI DUP2 PUSH1 0x20 ADD JUMPDEST PUSH1 0x60 DUP2 MSTORE PUSH1 0x20 ADD SWAP1 PUSH1 0x1 SWAP1 SUB SWAP1 DUP2 PUSH2 0xEB3 JUMPI SWAP1 POP JUMPDEST POP SWAP1 POP PUSH1 0x0 PUSH1 0x1 SLOAD PUSH8 0xFFFFFFFFFFFFFFFF DUP2 GT ISZERO PUSH2 0xEE9 JUMPI PUSH2 0xEE8 PUSH2 0x296D JUMP JUMPDEST JUMPDEST PUSH1 0x40 MLOAD SWAP1 DUP1 DUP3 MSTORE DUP1 PUSH1 0x20 MUL PUSH1 0x20 ADD DUP3 ADD PUSH1 0x40 MSTORE DUP1 ISZERO PUSH2 0xF17 JUMPI DUP2 PUSH1 0x20 ADD PUSH1 0x20 DUP3 MUL DUP1 CALLDATASIZE DUP4 CALLDATACOPY DUP1 DUP3 ADD SWAP2 POP POP SWAP1 POP JUMPDEST POP SWAP1 POP PUSH1 0x0 PUSH1 0x1 SWAP1 POP JUMPDEST PUSH1 0x1 SLOAD DUP2 GT PUSH2 0x117D JUMPI PUSH1 0x5 PUSH1 0x0 DUP3 DUP2 MSTORE PUSH1 0x20 ADD SWAP1 DUP2 MSTORE PUSH1 0x20 ADD PUSH1 0x0 KECCAK256 PUSH1 0x4 ADD PUSH1 0x0 SWAP1 SLOAD SWAP1 PUSH2 0x100 EXP SWAP1 DIV PUSH1 0xFF AND ISZERO PUSH2 0x116A JUMPI PUSH1 0x5 PUSH1 0x0 DUP3 DUP2 MSTORE PUSH1 0x20 ADD SWAP1 DUP2 MSTORE PUSH1 0x20 ADD PUSH1 0x0 KECCAK256 PUSH1 0x0 ADD SLOAD DUP6 PUSH1 0x1 DUP4 PUSH2 0xF78 SWAP2 SWAP1 PUSH2 0x3B8F JUMP JUMPDEST DUP2 MLOAD DUP2 LT PUSH2 0xF89 JUMPI PUSH2 0xF88 PUSH2 0x3BC3 JUMP JUMPDEST JUMPDEST PUSH1 0x20 MUL PUSH1 0x20 ADD ADD DUP2 DUP2 MSTORE POP POP PUSH1 0x5 PUSH1 0x0 DUP3 DUP2 MSTORE PUSH1 0x20 ADD SWAP1 DUP2 MSTORE PUSH1 0x20 ADD PUSH1 0x0 KECCAK256 PUSH1 0x1 ADD DUP1 SLOAD PUSH2 0xFB6 SWAP1 PUSH2 0x31F7 JUMP JUMPDEST DUP1 PUSH1 0x1F ADD PUSH1 0x20 DUP1 SWAP2 DIV MUL PUSH1 0x20 ADD PUSH1 0x40 MLOAD SWAP1 DUP2 ADD PUSH1 0x40 MSTORE DUP1 SWAP3 SWAP2 SWAP1 DUP2 DUP2 MSTORE PUSH1 0x20 ADD DUP3 DUP1 SLOAD PUSH2 0xFE2 SWAP1 PUSH2 0x31F7 JUMP JUMPDEST DUP1 ISZERO PUSH2 0x102F JUMPI DUP1 PUSH1 0x1F LT PUSH2 0x1004 JUMPI PUSH2 0x100 DUP1 DUP4 SLOAD DIV MUL DUP4 MSTORE SWAP2 PUSH1 0x20 ADD SWAP2 PUSH2 0x102F JUMP JUMPDEST DUP3 ADD SWAP2 SWAP1 PUSH1 0x0 MSTORE PUSH1 0x20 PUSH1 0x0 KECCAK256 SWAP1 JUMPDEST DUP2 SLOAD DUP2 MSTORE SWAP1 PUSH1 0x1 ADD SWAP1 PUSH1 0x20 ADD DUP1 DUP4 GT PUSH2 0x1012 JUMPI DUP3 SWAP1 SUB PUSH1 0x1F AND DUP3 ADD SWAP2 JUMPDEST POP POP POP POP POP DUP5 PUSH1 0x1 DUP4 PUSH2 0x1042 SWAP2 SWAP1 PUSH2 0x3B8F JUMP JUMPDEST DUP2 MLOAD DUP2 LT PUSH2 0x1053 JUMPI PUSH2 0x1052 PUSH2 0x3BC3 JUMP JUMPDEST JUMPDEST PUSH1 0x20 MUL PUSH1 0x20 ADD ADD DUP2 SWAP1 MSTORE POP PUSH1 0x5 PUSH1 0x0 DUP3 DUP2 MSTORE PUSH1 0x20 ADD SWAP1 DUP2 MSTORE PUSH1 0x20 ADD PUSH1 0x0 KECCAK256 PUSH1 0x2 ADD DUP1 SLOAD PUSH2 0x107F SWAP1 PUSH2 0x31F7 JUMP JUMPDEST DUP1 PUSH1 0x1F ADD PUSH1 0x20 DUP1 SWAP2 DIV MUL PUSH1 0x20 ADD PUSH1 0x40 MLOAD SWAP1 DUP2 ADD PUSH1 0x40 MSTORE DUP1 SWAP3 SWAP2 SWAP1 DUP2 DUP2 MSTORE PUSH1 0x20 ADD DUP3 DUP1 SLOAD PUSH2 0x10AB SWAP1 PUSH2 0x31F7 JUMP JUMPDEST DUP1 ISZERO PUSH2 0x10F8 JUMPI DUP1 PUSH1 0x1F LT PUSH2 0x10CD JUMPI PUSH2 0x100 DUP1 DUP4 SLOAD DIV MUL DUP4 MSTORE SWAP2 PUSH1 0x20 ADD SWAP2 PUSH2 0x10F8 JUMP JUMPDEST DUP3 ADD SWAP2 SWAP1 PUSH1 0x0 MSTORE PUSH1 0x20 PUSH1 0x0 KECCAK256 SWAP1 JUMPDEST DUP2 SLOAD DUP2 MSTORE SWAP1 PUSH1 0x1 ADD SWAP1 PUSH1 0x20 ADD DUP1 DUP4 GT PUSH2 0x10DB JUMPI DUP3 SWAP1 SUB PUSH1 0x1F AND DUP3 ADD SWAP2 JUMPDEST POP POP POP POP POP DUP4 PUSH1 0x1 DUP4 PUSH2 0x110B SWAP2 SWAP1 PUSH2 0x3B8F JUMP JUMPDEST DUP2 MLOAD DUP2 LT PUSH2 0x111C JUMPI PUSH2 0x111B PUSH2 0x3BC3 JUMP JUMPDEST JUMPDEST PUSH1 0x20 MUL PUSH1 0x20 ADD ADD DUP2 SWAP1 MSTORE POP PUSH1 0x5 PUSH1 0x0 DUP3 DUP2 MSTORE PUSH1 0x20 ADD SWAP1 DUP2 MSTORE PUSH1 0x20 ADD PUSH1 0x0 KECCAK256 PUSH1 0x3 ADD SLOAD DUP3 PUSH1 0x1 DUP4 PUSH2 0x114C SWAP2 SWAP1 PUSH2 0x3B8F JUMP JUMPDEST DUP2 MLOAD DUP2 LT PUSH2 0x115D JUMPI PUSH2 0x115C PUSH2 0x3BC3 JUMP JUMPDEST JUMPDEST PUSH1 0x20 MUL PUSH1 0x20 ADD ADD DUP2 DUP2 MSTORE POP POP JUMPDEST DUP1 DUP1 PUSH2 0x1175 SWAP1 PUSH2 0x367E JUMP JUMPDEST SWAP2 POP POP PUSH2 0xF21 JUMP JUMPDEST POP DUP4 DUP4 DUP4 DUP4 SWAP8 POP SWAP8 POP SWAP8 POP SWAP8 POP POP POP POP POP SWAP1 SWAP2 SWAP3 SWAP4 JUMP JUMPDEST PUSH1 0x5 PUSH1 0x20 MSTORE DUP1 PUSH1 0x0 MSTORE PUSH1 0x40 PUSH1 0x0 KECCAK256 PUSH1 0x0 SWAP2 POP SWAP1 POP DUP1 PUSH1 0x0 ADD SLOAD SWAP1 DUP1 PUSH1 0x1 ADD DUP1 SLOAD PUSH2 0x11BD SWAP1 PUSH2 0x31F7 JUMP JUMPDEST DUP1 PUSH1 0x1F ADD PUSH1 0x20 DUP1 SWAP2 DIV MUL PUSH1 0x20 ADD PUSH1 0x40 MLOAD SWAP1 DUP2 ADD PUSH1 0x40 MSTORE DUP1 SWAP3 SWAP2 SWAP1 DUP2 DUP2 MSTORE PUSH1 0x20 ADD DUP3 DUP1 SLOAD PUSH2 0x11E9 SWAP1 PUSH2 0x31F7 JUMP JUMPDEST DUP1 ISZERO PUSH2 0x1236 JUMPI DUP1 PUSH1 0x1F LT PUSH2 0x120B JUMPI PUSH2 0x100 DUP1 DUP4 SLOAD DIV MUL DUP4 MSTORE SWAP2 PUSH1 0x20 ADD SWAP2 PUSH2 0x1236 JUMP JUMPDEST DUP3 ADD SWAP2 SWAP1 PUSH1 0x0 MSTORE PUSH1 0x20 PUSH1 0x0 KECCAK256 SWAP1 JUMPDEST DUP2 SLOAD DUP2 MSTORE SWAP1 PUSH1 0x1 ADD SWAP1 PUSH1 0x20 ADD DUP1 DUP4 GT PUSH2 0x1219 JUMPI DUP3 SWAP1 SUB PUSH1 0x1F AND DUP3 ADD SWAP2 JUMPDEST POP POP POP POP POP SWAP1 DUP1 PUSH1 0x2 ADD DUP1 SLOAD PUSH2 0x124B SWAP1 PUSH2 0x31F7 JUMP JUMPDEST DUP1 PUSH1 0x1F ADD PUSH1 0x20 DUP1 SWAP2 DIV MUL PUSH1 0x20 ADD PUSH1 0x40 MLOAD SWAP1 DUP2 ADD PUSH1 0x40 MSTORE DUP1 SWAP3 SWAP2 SWAP1 DUP2 DUP2 MSTORE PUSH1 0x20 ADD DUP3 DUP1 SLOAD PUSH2 0x1277 SWAP1 PUSH2 0x31F7 JUMP JUMPDEST DUP1 ISZERO PUSH2 0x12C4 JUMPI DUP1 PUSH1 0x1F LT PUSH2 0x1299 JUMPI PUSH2 0x100 DUP1 DUP4 SLOAD DIV MUL DUP4 MSTORE SWAP2 PUSH1 0x20 ADD SWAP2 PUSH2 0x12C4 JUMP JUMPDEST DUP3 ADD SWAP2 SWAP1 PUSH1 0x0 MSTORE PUSH1 0x20 PUSH1 0x0 KECCAK256 SWAP1 JUMPDEST DUP2 SLOAD DUP2 MSTORE SWAP1 PUSH1 0x1 ADD SWAP1 PUSH1 0x20 ADD DUP1 DUP4 GT PUSH2 0x12A7 JUMPI DUP3 SWAP1 SUB PUSH1 0x1F AND DUP3 ADD SWAP2 JUMPDEST POP POP POP POP POP SWAP1 DUP1 PUSH1 0x3 ADD SLOAD SWAP1 DUP1 PUSH1 0x4 ADD PUSH1 0x0 SWAP1 SLOAD SWAP1 PUSH2 0x100 EXP SWAP1 DIV PUSH1 0xFF AND SWAP1 POP DUP6 JUMP JUMPDEST PUSH1 0x0 PUSH1 0x60 DUP1 PUSH1 0x0 PUSH1 0x5 PUSH1 0x0 DUP7 DUP2 MSTORE PUSH1 0x20 ADD SWAP1 DUP2 MSTORE PUSH1 0x20 ADD PUSH1 0x0 KECCAK256 PUSH1 0x4 ADD PUSH1 0x0 SWAP1 SLOAD SWAP1 PUSH2 0x100 EXP SWAP1 DIV PUSH1 0xFF AND PUSH2 0x1351 JUMPI PUSH1 0x40 MLOAD PUSH32 0x8C379A000000000000000000000000000000000000000000000000000000000 DUP2 MSTORE PUSH1 0x4 ADD PUSH2 0x1348 SWAP1 PUSH2 0x362F JUMP JUMPDEST PUSH1 0x40 MLOAD DUP1 SWAP2 SUB SWAP1 REVERT JUMPDEST PUSH1 0x0 PUSH1 0x5 PUSH1 0x0 DUP8 DUP2 MSTORE PUSH1 0x20 ADD SWAP1 DUP2 MSTORE PUSH1 0x20 ADD PUSH1 0x0 KECCAK256 PUSH1 0x40 MLOAD DUP1 PUSH1 0xA0 ADD PUSH1 0x40 MSTORE SWAP1 DUP2 PUSH1 0x0 DUP3 ADD SLOAD DUP2 MSTORE PUSH1 0x20 ADD PUSH1 0x1 DUP3 ADD DUP1 SLOAD PUSH2 0x138B SWAP1 PUSH2 0x31F7 JUMP JUMPDEST DUP1 PUSH1 0x1F ADD PUSH1 0x20 DUP1 SWAP2 DIV MUL PUSH1 0x20 ADD PUSH1 0x40 MLOAD SWAP1 DUP2 ADD PUSH1 0x40 MSTORE DUP1 SWAP3 SWAP2 SWAP1 DUP2 DUP2 MSTORE PUSH1 0x20 ADD DUP3 DUP1 SLOAD PUSH2 0x13B7 SWAP1 PUSH2 0x31F7 JUMP JUMPDEST DUP1 ISZERO PUSH2 0x1404 JUMPI DUP1 PUSH1 0x1F LT PUSH2 0x13D9 JUMPI PUSH2 0x100 DUP1 DUP4 SLOAD DIV MUL DUP4 MSTORE SWAP2 PUSH1 0x20 ADD SWAP2 PUSH2 0x1404 JUMP JUMPDEST DUP3 ADD SWAP2 SWAP1 PUSH1 0x0 MSTORE PUSH1 0x20 PUSH1 0x0 KECCAK256 SWAP1 JUMPDEST DUP2 SLOAD DUP2 MSTORE SWAP1 PUSH1 0x1 ADD SWAP1 PUSH1 0x20 ADD DUP1 DUP4 GT PUSH2 0x13E7 JUMPI DUP3 SWAP1 SUB PUSH1 0x1F AND DUP3 ADD SWAP2 JUMPDEST POP POP POP POP POP DUP2 MSTORE PUSH1 0x20 ADD PUSH1 0x2 DUP3 ADD DUP1 SLOAD PUSH2 0x141D SWAP1 PUSH2 0x31F7 JUMP JUMPDEST DUP1 PUSH1 0x1F ADD PUSH1 0x20 DUP1 SWAP2 DIV MUL PUSH1 0x20 ADD PUSH1 0x40 MLOAD SWAP1 DUP2 ADD PUSH1 0x40 MSTORE DUP1 SWAP3 SWAP2 SWAP1 DUP2 DUP2 MSTORE PUSH1 0x20 ADD DUP3 DUP1 SLOAD PUSH2 0x1449 SWAP1 PUSH2 0x31F7 JUMP JUMPDEST DUP1 ISZERO PUSH2 0x1496 JUMPI DUP1 PUSH1 0x1F LT PUSH2 0x146B JUMPI PUSH2 0x100 DUP1 DUP4 SLOAD DIV MUL DUP4 MSTORE SWAP2 PUSH1 0x20 ADD SWAP2 PUSH2 0x1496 JUMP JUMPDEST DUP3 ADD SWAP2 SWAP1 PUSH1 0x0 MSTORE PUSH1 0x20 PUSH1 0x0 KECCAK256 SWAP1 JUMPDEST DUP2 SLOAD DUP2 MSTORE SWAP1 PUSH1 0x1 ADD SWAP1 PUSH1 0x20 ADD DUP1 DUP4 GT PUSH2 0x1479 JUMPI DUP3 SWAP1 SUB PUSH1 0x1F AND DUP3 ADD SWAP2 JUMPDEST POP POP POP POP POP DUP2 MSTORE PUSH1 0x20 ADD PUSH1 0x3 DUP3 ADD SLOAD DUP2 MSTORE PUSH1 0x20 ADD PUSH1 0x4 DUP3 ADD PUSH1 0x0 SWAP1 SLOAD SWAP1 PUSH2 0x100 EXP SWAP1 DIV PUSH1 0xFF AND ISZERO ISZERO ISZERO ISZERO DUP2 MSTORE POP POP SWAP1 POP DUP1 PUSH1 0x0 ADD MLOAD DUP2 PUSH1 0x20 ADD MLOAD DUP3 PUSH1 0x40 ADD MLOAD DUP4 PUSH1 0x60 ADD MLOAD SWAP5 POP SWAP5 POP SWAP5 POP SWAP5 POP POP SWAP2 SWAP4 POP SWAP2 SWAP4 JUMP JUMPDEST PUSH1 0x2 SLOAD DUP2 JUMP JUMPDEST PUSH1 0x0 DUP1 SLOAD SWAP1 PUSH2 0x100 EXP SWAP1 DIV PUSH20 0xFFFFFFFFFFFFFFFFFFFFFFFFFFFFFFFFFFFFFFFF AND PUSH20 0xFFFFFFFFFFFFFFFFFFFFFFFFFFFFFFFFFFFFFFFF AND CALLER PUSH20 0xFFFFFFFFFFFFFFFFFFFFFFFFFFFFFFFFFFFFFFFF AND EQ PUSH2 0x157E JUMPI PUSH1 0x40 MLOAD PUSH32 0x8C379A000000000000000000000000000000000000000000000000000000000 DUP2 MSTORE PUSH1 0x4 ADD PUSH2 0x1575 SWAP1 PUSH2 0x3768 JUMP JUMPDEST PUSH1 0x40 MLOAD DUP1 SWAP2 SUB SWAP1 REVERT JUMPDEST PUSH1 0x4 PUSH1 0x0 SWAP1 SLOAD SWAP1 PUSH2 0x100 EXP SWAP1 DIV PUSH1 0xFF AND ISZERO PUSH2 0x15CE JUMPI PUSH1 0x40 MLOAD PUSH32 0x8C379A000000000000000000000000000000000000000000000000000000000 DUP2 MSTORE PUSH1 0x4 ADD PUSH2 0x15C5 SWAP1 PUSH2 0x37D4 JUMP JUMPDEST PUSH1 0x40 MLOAD DUP1 SWAP2 SUB SWAP1 REVERT JUMPDEST PUSH1 0x8 DUP3 PUSH1 0x40 MLOAD PUSH2 0x15DE SWAP2 SWAP1 PUSH2 0x3264 JUMP JUMPDEST SWAP1 DUP2 MSTORE PUSH1 0x20 ADD PUSH1 0x40 MLOAD DUP1 SWAP2 SUB SWAP1 KECCAK256 PUSH1 0x0 SWAP1 SLOAD SWAP1 PUSH2 0x100 EXP SWAP1 DIV PUSH1 0xFF AND ISZERO PUSH2 0x163A JUMPI PUSH1 0x40 MLOAD PUSH32 0x8C379A000000000000000000000000000000000000000000000000000000000 DUP2 MSTORE PUSH1 0x4 ADD PUSH2 0x1631 SWAP1 PUSH2 0x3C3E JUMP JUMPDEST PUSH1 0x40 MLOAD DUP1 SWAP2 SUB SWAP1 REVERT JUMPDEST PUSH1 0x0 PUSH1 0x7 PUSH1 0x0 DUP4 PUSH20 0xFFFFFFFFFFFFFFFFFFFFFFFFFFFFFFFFFFFFFFFF AND PUSH20 0xFFFFFFFFFFFFFFFFFFFFFFFFFFFFFFFFFFFFFFFF AND DUP2 MSTORE PUSH1 0x20 ADD SWAP1 DUP2 MSTORE PUSH1 0x20 ADD PUSH1 0x0 KECCAK256 DUP1 SLOAD PUSH2 0x1686 SWAP1 PUSH2 0x31F7 JUMP JUMPDEST SWAP1 POP EQ PUSH2 0x16C8 JUMPI PUSH1 0x40 MLOAD PUSH32 0x8C379A000000000000000000000000000000000000000000000000000000000 DUP2 MSTORE PUSH1 0x4 ADD PUSH2 0x16BF SWAP1 PUSH2 0x3CAA JUMP JUMPDEST PUSH1 0x40 MLOAD DUP1 SWAP2 SUB SWAP1 REVERT JUMPDEST PUSH1 0x0 DUP3 MLOAD GT PUSH2 0x170C JUMPI PUSH1 0x40 MLOAD PUSH32 0x8C379A000000000000000000000000000000000000000000000000000000000 DUP2 MSTORE PUSH1 0x4 ADD PUSH2 0x1703 SWAP1 PUSH2 0x3D16 JUMP JUMPDEST PUSH1 0x40 MLOAD DUP1 SWAP2 SUB SWAP1 REVERT JUMPDEST PUSH1 0x40 MLOAD DUP1 PUSH1 0x80 ADD PUSH1 0x40 MSTORE DUP1 DUP4 DUP2 MSTORE PUSH1 0x20 ADD PUSH1 0x0 ISZERO ISZERO DUP2 MSTORE PUSH1 0x20 ADD PUSH1 0x1 ISZERO ISZERO DUP2 MSTORE PUSH1 0x20 ADD PUSH1 0x0 DUP2 MSTORE POP PUSH1 0x6 DUP4 PUSH1 0x40 MLOAD PUSH2 0x1744 SWAP2 SWAP1 PUSH2 0x3264 JUMP JUMPDEST SWAP1 DUP2 MSTORE PUSH1 0x20 ADD PUSH1 0x40 MLOAD DUP1 SWAP2 SUB SWAP1 KECCAK256 PUSH1 0x0 DUP3 ADD MLOAD DUP2 PUSH1 0x0 ADD SWAP1 DUP2 PUSH2 0x1767 SWAP2 SWAP1 PUSH2 0x3A78 JUMP JUMPDEST POP PUSH1 0x20 DUP3 ADD MLOAD DUP2 PUSH1 0x1 ADD PUSH1 0x0 PUSH2 0x100 EXP DUP2 SLOAD DUP2 PUSH1 0xFF MUL NOT AND SWAP1 DUP4 ISZERO ISZERO MUL OR SWAP1 SSTORE POP PUSH1 0x40 DUP3 ADD MLOAD DUP2 PUSH1 0x1 ADD PUSH1 0x1 PUSH2 0x100 EXP DUP2 SLOAD DUP2 PUSH1 0xFF MUL NOT AND SWAP1 DUP4 ISZERO ISZERO MUL OR SWAP1 SSTORE POP PUSH1 0x60 DUP3 ADD MLOAD DUP2 PUSH1 0x2 ADD SSTORE SWAP1 POP POP DUP2 PUSH1 0x7 PUSH1 0x0 DUP4 PUSH20 0xFFFFFFFFFFFFFFFFFFFFFFFFFFFFFFFFFFFFFFFF AND PUSH20 0xFFFFFFFFFFFFFFFFFFFFFFFFFFFFFFFFFFFFFFFF AND DUP2 MSTORE PUSH1 0x20 ADD SWAP1 DUP2 MSTORE PUSH1 0x20 ADD PUSH1 0x0 KECCAK256 SWAP1 DUP2 PUSH2 0x1801 SWAP2 SWAP1 PUSH2 0x3A78 JUMP JUMPDEST POP PUSH1 0x1 PUSH1 0x8 DUP4 PUSH1 0x40 MLOAD PUSH2 0x1814 SWAP2 SWAP1 PUSH2 0x3264 JUMP JUMPDEST SWAP1 DUP2 MSTORE PUSH1 0x20 ADD PUSH1 0x40 MLOAD DUP1 SWAP2 SUB SWAP1 KECCAK256 PUSH1 0x0 PUSH2 0x100 EXP DUP2 SLOAD DUP2 PUSH1 0xFF MUL NOT AND SWAP1 DUP4 ISZERO ISZERO MUL OR SWAP1 SSTORE POP PUSH1 0x2 PUSH1 0x0 DUP2 SLOAD DUP1 SWAP3 SWAP2 SWAP1 PUSH2 0x184C SWAP1 PUSH2 0x367E JUMP JUMPDEST SWAP2 SWAP1 POP SSTORE POP PUSH32 0xFB56E28FEAFF07A8D23B3119A966E036AE7F64FF72A539DEBC67C6E8CD787216 DUP3 DUP3 PUSH1 0x40 MLOAD PUSH2 0x1882 SWAP3 SWAP2 SWAP1 PUSH2 0x3D36 JUMP JUMPDEST PUSH1 0x40 MLOAD DUP1 SWAP2 SUB SWAP1 LOG1 POP POP JUMP JUMPDEST PUSH1 0x6 DUP2 DUP1 MLOAD PUSH1 0x20 DUP2 ADD DUP3 ADD DUP1 MLOAD DUP5 DUP3 MSTORE PUSH1 0x20 DUP4 ADD PUSH1 0x20 DUP6 ADD KECCAK256 DUP2 DUP4 MSTORE DUP1 SWAP6 POP POP POP POP POP POP PUSH1 0x0 SWAP2 POP SWAP1 POP DUP1 PUSH1 0x0 ADD DUP1 SLOAD PUSH2 0x18C7 SWAP1 PUSH2 0x31F7 JUMP JUMPDEST DUP1 PUSH1 0x1F ADD PUSH1 0x20 DUP1 SWAP2 DIV MUL PUSH1 0x20 ADD PUSH1 0x40 MLOAD SWAP1 DUP2 ADD PUSH1 0x40 MSTORE DUP1 SWAP3 SWAP2 SWAP1 DUP2 DUP2 MSTORE PUSH1 0x20 ADD DUP3 DUP1 SLOAD PUSH2 0x18F3 SWAP1 PUSH2 0x31F7 JUMP JUMPDEST DUP1 ISZERO PUSH2 0x1940 JUMPI DUP1 PUSH1 0x1F LT PUSH2 0x1915 JUMPI PUSH2 0x100 DUP1 DUP4 SLOAD DIV MUL DUP4 MSTORE SWAP2 PUSH1 0x20 ADD SWAP2 PUSH2 0x1940 JUMP JUMPDEST DUP3 ADD SWAP2 SWAP1 PUSH1 0x0 MSTORE PUSH1 0x20 PUSH1 0x0 KECCAK256 SWAP1 JUMPDEST DUP2 SLOAD DUP2 MSTORE SWAP1 PUSH1 0x1 ADD SWAP1 PUSH1 0x20 ADD DUP1 DUP4 GT PUSH2 0x1923 JUMPI DUP3 SWAP1 SUB PUSH1 0x1F AND DUP3 ADD SWAP2 JUMPDEST POP POP POP POP POP SWAP1 DUP1 PUSH1 0x1 ADD PUSH1 0x0 SWAP1 SLOAD SWAP1 PUSH2 0x100 EXP SWAP1 DIV PUSH1 0xFF AND SWAP1 DUP1 PUSH1 0x1 ADD PUSH1 0x1 SWAP1 SLOAD SWAP1 PUSH2 0x100 EXP SWAP1 DIV PUSH1 0xFF AND SWAP1 DUP1 PUSH1 0x2 ADD SLOAD SWAP1 POP DUP5 JUMP JUMPDEST PUSH1 0x0 DUP1 SLOAD SWAP1 PUSH2 0x100 EXP SWAP1 DIV PUSH20 0xFFFFFFFFFFFFFFFFFFFFFFFFFFFFFFFFFFFFFFFF AND PUSH20 0xFFFFFFFFFFFFFFFFFFFFFFFFFFFFFFFFFFFFFFFF AND CALLER PUSH20 0xFFFFFFFFFFFFFFFFFFFFFFFFFFFFFFFFFFFFFFFF AND EQ PUSH2 0x1A04 JUMPI PUSH1 0x40 MLOAD PUSH32 0x8C379A000000000000000000000000000000000000000000000000000000000 DUP2 MSTORE PUSH1 0x4 ADD PUSH2 0x19FB SWAP1 PUSH2 0x3768 JUMP JUMPDEST PUSH1 0x40 MLOAD DUP1 SWAP2 SUB SWAP1 REVERT JUMPDEST PUSH1 0x4 PUSH1 0x0 SWAP1 SLOAD SWAP1 PUSH2 0x100 EXP SWAP1 DIV PUSH1 0xFF AND PUSH2 0x1A53 JUMPI PUSH1 0x40 MLOAD PUSH32 0x8C379A000000000000000000000000000000000000000000000000000000000 DUP2 MSTORE PUSH1 0x4 ADD PUSH2 0x1A4A SWAP1 PUSH2 0x3DB2 JUMP JUMPDEST PUSH1 0x40 MLOAD DUP1 SWAP2 SUB SWAP1 REVERT JUMPDEST PUSH1 0x4 PUSH1 0x1 SWAP1 SLOAD SWAP1 PUSH2 0x100 EXP SWAP1 DIV PUSH1 0xFF AND ISZERO PUSH2 0x1AA3 JUMPI PUSH1 0x40 MLOAD PUSH32 0x8C379A000000000000000000000000000000000000000000000000000000000 DUP2 MSTORE PUSH1 0x4 ADD PUSH2 0x1A9A SWAP1 PUSH2 0x3E1E JUMP JUMPDEST PUSH1 0x40 MLOAD DUP1 SWAP2 SUB SWAP1 REVERT JUMPDEST PUSH1 0x1 PUSH1 0x4 PUSH1 0x1 PUSH2 0x100 EXP DUP2 SLOAD DUP2 PUSH1 0xFF MUL NOT AND SWAP1 DUP4 ISZERO ISZERO MUL OR SWAP1 SSTORE POP PUSH1 0x0 PUSH1 0x9 PUSH1 0x4 ADD PUSH1 0x0 PUSH2 0x100 EXP DUP2 SLOAD DUP2 PUSH1 0xFF MUL NOT AND SWAP1 DUP4 ISZERO ISZERO MUL OR SWAP1 SSTORE POP TIMESTAMP PUSH1 0x9 PUSH1 0x3 ADD DUP2 SWAP1 SSTORE POP PUSH32 0x562CD572B2BA3B666CD989FC4CA98419EC81E75F04528DF9D9D76FDB7807EE71 TIMESTAMP PUSH1 0x40 MLOAD PUSH2 0x1B15 SWAP2 SWAP1 PUSH2 0x2B30 JUMP JUMPDEST PUSH1 0x40 MLOAD DUP1 SWAP2 SUB SWAP1 LOG1 JUMP JUMPDEST PUSH1 0x0 DUP1 SLOAD SWAP1 PUSH2 0x100 EXP SWAP1 DIV PUSH20 0xFFFFFFFFFFFFFFFFFFFFFFFFFFFFFFFFFFFFFFFF AND PUSH20 0xFFFFFFFFFFFFFFFFFFFFFFFFFFFFFFFFFFFFFFFF AND CALLER PUSH20 0xFFFFFFFFFFFFFFFFFFFFFFFFFFFFFFFFFFFFFFFF AND EQ PUSH2 0x1BAD JUMPI PUSH1 0x40 MLOAD PUSH32 0x8C379A000000000000000000000000000000000000000000000000000000000 DUP2 MSTORE PUSH1 0x4 ADD PUSH2 0x1BA4 SWAP1 PUSH2 0x3768 JUMP JUMPDEST PUSH1 0x40 MLOAD DUP1 SWAP2 SUB SWAP1 REVERT JUMPDEST PUSH1 0x1 PUSH1 0x4 PUSH1 0x1 PUSH2 0x100 EXP DUP2 SLOAD DUP2 PUSH1 0xFF MUL NOT AND SWAP1 DUP4 ISZERO ISZERO MUL OR SWAP1 SSTORE POP PUSH1 0x0 PUSH1 0x9 PUSH1 0x4 ADD PUSH1 0x0 PUSH2 0x100 EXP DUP2 SLOAD DUP2 PUSH1 0xFF MUL NOT AND SWAP1 DUP4 ISZERO ISZERO MUL OR SWAP1 SSTORE POP JUMP JUMPDEST PUSH1 0x0 DUP1 SLOAD SWAP1 PUSH2 0x100 EXP SWAP1 DIV PUSH20 0xFFFFFFFFFFFFFFFFFFFFFFFFFFFFFFFFFFFFFFFF AND PUSH20 0xFFFFFFFFFFFFFFFFFFFFFFFFFFFFFFFFFFFFFFFF AND CALLER PUSH20 0xFFFFFFFFFFFFFFFFFFFFFFFFFFFFFFFFFFFFFFFF AND EQ PUSH2 0x1C76 JUMPI PUSH1 0x40 MLOAD PUSH32 0x8C379A000000000000000000000000000000000000000000000000000000000 DUP2 MSTORE PUSH1 0x4 ADD PUSH2 0x1C6D SWAP1 PUSH2 0x3768 JUMP JUMPDEST PUSH1 0x40 MLOAD DUP1 SWAP2 SUB SWAP1 REVERT JUMPDEST PUSH1 0x4 PUSH1 0x0 SWAP1 SLOAD SWAP1 PUSH2 0x100 EXP SWAP1 DIV PUSH1 0xFF AND ISZERO PUSH2 0x1CC6 JUMPI PUSH1 0x40 MLOAD PUSH32 0x8C379A000000000000000000000000000000000000000000000000000000000 DUP2 MSTORE PUSH1 0x4 ADD PUSH2 0x1CBD SWAP1 PUSH2 0x37D4 JUMP JUMPDEST PUSH1 0x40 MLOAD DUP1 SWAP2 SUB SWAP1 REVERT JUMPDEST PUSH1 0x0 PUSH1 0x1 SLOAD GT PUSH2 0x1D0B JUMPI PUSH1 0x40 MLOAD PUSH32 0x8C379A000000000000000000000000000000000000000000000000000000000 DUP2 MSTORE PUSH1 0x4 ADD PUSH2 0x1D02 SWAP1 PUSH2 0x3E8A JUMP JUMPDEST PUSH1 0x40 MLOAD DUP1 SWAP2 SUB SWAP1 REVERT JUMPDEST PUSH1 0x0 PUSH1 0x2 SLOAD GT PUSH2 0x1D50 JUMPI PUSH1 0x40 MLOAD PUSH32 0x8C379A000000000000000000000000000000000000000000000000000000000 DUP2 MSTORE PUSH1 0x4 ADD PUSH2 0x1D47 SWAP1 PUSH2 0x3EF6 JUMP JUMPDEST PUSH1 0x40 MLOAD DUP1 SWAP2 SUB SWAP1 REVERT JUMPDEST PUSH1 0x0 DUP2 GT PUSH2 0x1D93 JUMPI PUSH1 0x40 MLOAD PUSH32 0x8C379A000000000000000000000000000000000000000000000000000000000 DUP2 MSTORE PUSH1 0x4 ADD PUSH2 0x1D8A SWAP1 PUSH2 0x3F62 JUMP JUMPDEST PUSH1 0x40 MLOAD DUP1 SWAP2 SUB SWAP1 REVERT JUMPDEST TIMESTAMP PUSH1 0x9 PUSH1 0x2 ADD DUP2 SWAP1 SSTORE POP PUSH1 0x3C DUP2 PUSH2 0x1DAA SWAP2 SWAP1 PUSH2 0x3F82 JUMP JUMPDEST TIMESTAMP PUSH2 0x1DB5 SWAP2 SWAP1 PUSH2 0x3FC4 JUMP JUMPDEST PUSH1 0x9 PUSH1 0x3 ADD DUP2 SWAP1 SSTORE POP PUSH1 0x1 PUSH1 0x9 PUSH1 0x4 ADD PUSH1 0x0 PUSH2 0x100 EXP DUP2 SLOAD DUP2 PUSH1 0xFF MUL NOT AND SWAP1 DUP4 ISZERO ISZERO MUL OR SWAP1 SSTORE POP PUSH1 0x1 PUSH1 0x4 PUSH1 0x0 PUSH2 0x100 EXP DUP2 SLOAD DUP2 PUSH1 0xFF MUL NOT AND SWAP1 DUP4 ISZERO ISZERO MUL OR SWAP1 SSTORE POP PUSH1 0x0 PUSH1 0x4 PUSH1 0x1 PUSH2 0x100 EXP DUP2 SLOAD DUP2 PUSH1 0xFF MUL NOT AND SWAP1 DUP4 ISZERO ISZERO MUL OR SWAP1 SSTORE POP PUSH32 0x627FEDC2C091C67F445C74DAFA73901E80B09B2F142B1FC11FE75960202B41FD PUSH1 0x9 PUSH1 0x0 ADD PUSH1 0x9 PUSH1 0x2 ADD SLOAD PUSH1 0x40 MLOAD PUSH2 0x1E4C SWAP3 SWAP2 SWAP1 PUSH2 0x407C JUMP JUMPDEST PUSH1 0x40 MLOAD DUP1 SWAP2 SUB SWAP1 LOG1 POP JUMP JUMPDEST PUSH1 0x0 DUP1 SLOAD SWAP1 PUSH2 0x100 EXP SWAP1 DIV PUSH20 0xFFFFFFFFFFFFFFFFFFFFFFFFFFFFFFFFFFFFFFFF AND PUSH20 0xFFFFFFFFFFFFFFFFFFFFFFFFFFFFFFFFFFFFFFFF AND CALLER PUSH20 0xFFFFFFFFFFFFFFFFFFFFFFFFFFFFFFFFFFFFFFFF AND EQ PUSH2 0x1EE5 JUMPI PUSH1 0x40 MLOAD PUSH32 0x8C379A000000000000000000000000000000000000000000000000000000000 DUP2 MSTORE PUSH1 0x4 ADD PUSH2 0x1EDC SWAP1 PUSH2 0x3768 JUMP JUMPDEST PUSH1 0x40 MLOAD DUP1 SWAP2 SUB SWAP1 REVERT JUMPDEST PUSH1 0x0 PUSH20 0xFFFFFFFFFFFFFFFFFFFFFFFFFFFFFFFFFFFFFFFF AND DUP2 PUSH20 0xFFFFFFFFFFFFFFFFFFFFFFFFFFFFFFFFFFFFFFFF AND SUB PUSH2 0x1F54 JUMPI PUSH1 0x40 MLOAD PUSH32 0x8C379A000000000000000000000000000000000000000000000000000000000 DUP2 MSTORE PUSH1 0x4 ADD PUSH2 0x1F4B SWAP1 PUSH2 0x40F8 JUMP JUMPDEST PUSH1 0x40 MLOAD DUP1 SWAP2 SUB SWAP1 REVERT JUMPDEST DUP1 PUSH1 0x0 DUP1 PUSH2 0x100 EXP DUP2 SLOAD DUP2 PUSH20 0xFFFFFFFFFFFFFFFFFFFFFFFFFFFFFFFFFFFFFFFF MUL NOT AND SWAP1 DUP4 PUSH20 0xFFFFFFFFFFFFFFFFFFFFFFFFFFFFFFFFFFFFFFFF AND MUL OR SWAP1 SSTORE POP POP JUMP JUMPDEST PUSH1 0x4 PUSH1 0x0 SWAP1 SLOAD SWAP1 PUSH2 0x100 EXP SWAP1 DIV PUSH1 0xFF AND DUP2 JUMP JUMPDEST PUSH1 0x60 DUP1 PUSH1 0x0 DUP1 PUSH1 0x0 PUSH1 0x9 PUSH1 0x0 ADD PUSH1 0x9 PUSH1 0x1 ADD PUSH1 0x9 PUSH1 0x2 ADD SLOAD PUSH1 0x9 PUSH1 0x3 ADD SLOAD PUSH1 0x9 PUSH1 0x4 ADD PUSH1 0x0 SWAP1 SLOAD SWAP1 PUSH2 0x100 EXP SWAP1 DIV PUSH1 0xFF AND DUP5 DUP1 SLOAD PUSH2 0x1FE7 SWAP1 PUSH2 0x31F7 JUMP JUMPDEST DUP1 PUSH1 0x1F ADD PUSH1 0x20 DUP1 SWAP2 DIV MUL PUSH1 0x20 ADD PUSH1 0x40 MLOAD SWAP1 DUP2 ADD PUSH1 0x40 MSTORE DUP1 SWAP3 SWAP2 SWAP1 DUP2 DUP2 MSTORE PUSH1 0x20 ADD DUP3 DUP1 SLOAD PUSH2 0x2013 SWAP1 PUSH2 0x31F7 JUMP JUMPDEST DUP1 ISZERO PUSH2 0x2060 JUMPI DUP1 PUSH1 0x1F LT PUSH2 0x2035 JUMPI PUSH2 0x100 DUP1 DUP4 SLOAD DIV MUL DUP4 MSTORE SWAP2 PUSH1 0x20 ADD SWAP2 PUSH2 0x2060 JUMP JUMPDEST DUP3 ADD SWAP2 SWAP1 PUSH1 0x0 MSTORE PUSH1 0x20 PUSH1 0x0 KECCAK256 SWAP1 JUMPDEST DUP2 SLOAD DUP2 MSTORE SWAP1 PUSH1 0x1 ADD SWAP1 PUSH1 0x20 ADD DUP1 DUP4 GT PUSH2 0x2043 JUMPI DUP3 SWAP1 SUB PUSH1 0x1F AND DUP3 ADD SWAP2 JUMPDEST POP POP POP POP POP SWAP5 POP DUP4 DUP1 SLOAD PUSH2 0x2073 SWAP1 PUSH2 0x31F7 JUMP JUMPDEST DUP1 PUSH1 0x1F ADD PUSH1 0x20 DUP1 SWAP2 DIV MUL PUSH1 0x20 ADD PUSH1 0x40 MLOAD SWAP1 DUP2 ADD PUSH1 0x40 MSTORE DUP1 SWAP3 SWAP2 SWAP1 DUP2 DUP2 MSTORE PUSH1 0x20 ADD DUP3 DUP1 SLOAD PUSH2 0x209F SWAP1 PUSH2 0x31F7 JUMP JUMPDEST DUP1 ISZERO PUSH2 0x20EC JUMPI DUP1 PUSH1 0x1F LT PUSH2 0x20C1 JUMPI PUSH2 0x100 DUP1 DUP4 SLOAD DIV MUL DUP4 MSTORE SWAP2 PUSH1 0x20 ADD SWAP2 PUSH2 0x20EC JUMP JUMPDEST DUP3 ADD SWAP2 SWAP1 PUSH1 0x0 MSTORE PUSH1 0x20 PUSH1 0x0 KECCAK256 SWAP1 JUMPDEST DUP2 SLOAD DUP2 MSTORE SWAP1 PUSH1 0x1 ADD SWAP1 PUSH1 0x20 ADD DUP1 DUP4 GT PUSH2 0x20CF JUMPI DUP3 SWAP1 SUB PUSH1 0x1F AND DUP3 ADD SWAP2 JUMPDEST POP POP POP POP POP SWAP4 POP SWAP5 POP SWAP5 POP SWAP5 POP SWAP5 POP SWAP5 POP SWAP1 SWAP2 SWAP3 SWAP4 SWAP5 JUMP JUMPDEST PUSH1 0x0 PUSH1 0x60 PUSH1 0x0 PUSH1 0x4 PUSH1 0x1 SWAP1 SLOAD SWAP1 PUSH2 0x100 EXP SWAP1 DIV PUSH1 0xFF AND DUP1 PUSH2 0x2170 JUMPI POP PUSH1 0x0 DUP1 SLOAD SWAP1 PUSH2 0x100 EXP SWAP1 DIV PUSH20 0xFFFFFFFFFFFFFFFFFFFFFFFFFFFFFFFFFFFFFFFF AND PUSH20 0xFFFFFFFFFFFFFFFFFFFFFFFFFFFFFFFFFFFFFFFF AND CALLER PUSH20 0xFFFFFFFFFFFFFFFFFFFFFFFFFFFFFFFFFFFFFFFF AND EQ JUMPDEST PUSH2 0x21AF JUMPI PUSH1 0x40 MLOAD PUSH32 0x8C379A000000000000000000000000000000000000000000000000000000000 DUP2 MSTORE PUSH1 0x4 ADD PUSH2 0x21A6 SWAP1 PUSH2 0x4164 JUMP JUMPDEST PUSH1 0x40 MLOAD DUP1 SWAP2 SUB SWAP1 REVERT JUMPDEST PUSH1 0x0 PUSH1 0x3 SLOAD GT PUSH2 0x21F4 JUMPI PUSH1 0x40 MLOAD PUSH32 0x8C379A000000000000000000000000000000000000000000000000000000000 DUP2 MSTORE PUSH1 0x4 ADD PUSH2 0x21EB SWAP1 PUSH2 0x41D0 JUMP JUMPDEST PUSH1 0x40 MLOAD DUP1 SWAP2 SUB SWAP1 REVERT JUMPDEST PUSH1 0x0 DUP1 PUSH1 0x0 PUSH1 0x1 SWAP1 POP JUMPDEST PUSH1 0x1 SLOAD DUP2 GT PUSH2 0x2255 JUMPI DUP3 PUSH1 0x5 PUSH1 0x0 DUP4 DUP2 MSTORE PUSH1 0x20 ADD SWAP1 DUP2 MSTORE PUSH1 0x20 ADD PUSH1 0x0 KECCAK256 PUSH1 0x3 ADD SLOAD GT ISZERO PUSH2 0x2242 JUMPI PUSH1 0x5 PUSH1 0x0 DUP3 DUP2 MSTORE PUSH1 0x20 ADD SWAP1 DUP2 MSTORE PUSH1 0x20 ADD PUSH1 0x0 KECCAK256 PUSH1 0x3 ADD SLOAD SWAP3 POP DUP1 SWAP2 POP JUMPDEST DUP1 DUP1 PUSH2 0x224D SWAP1 PUSH2 0x367E JUMP JUMPDEST SWAP2 POP POP PUSH2 0x21FE JUMP JUMPDEST POP DUP1 PUSH1 0x5 PUSH1 0x0 DUP4 DUP2 MSTORE PUSH1 0x20 ADD SWAP1 DUP2 MSTORE PUSH1 0x20 ADD PUSH1 0x0 KECCAK256 PUSH1 0x1 ADD DUP4 DUP2 DUP1 SLOAD PUSH2 0x227A SWAP1 PUSH2 0x31F7 JUMP JUMPDEST DUP1 PUSH1 0x1F ADD PUSH1 0x20 DUP1 SWAP2 DIV MUL PUSH1 0x20 ADD PUSH1 0x40 MLOAD SWAP1 DUP2 ADD PUSH1 0x40 MSTORE DUP1 SWAP3 SWAP2 SWAP1 DUP2 DUP2 MSTORE PUSH1 0x20 ADD DUP3 DUP1 SLOAD PUSH2 0x22A6 SWAP1 PUSH2 0x31F7 JUMP JUMPDEST DUP1 ISZERO PUSH2 0x22F3 JUMPI DUP1 PUSH1 0x1F LT PUSH2 0x22C8 JUMPI PUSH2 0x100 DUP1 DUP4 SLOAD DIV MUL DUP4 MSTORE SWAP2 PUSH1 0x20 ADD SWAP2 PUSH2 0x22F3 JUMP JUMPDEST DUP3 ADD SWAP2 SWAP1 PUSH1 0x0 MSTORE PUSH1 0x20 PUSH1 0x0 KECCAK256 SWAP1 JUMPDEST DUP2 SLOAD DUP2 MSTORE SWAP1 PUSH1 0x1 ADD SWAP1 PUSH1 0x20 ADD DUP1 DUP4 GT PUSH2 0x22D6 JUMPI DUP3 SWAP1 SUB PUSH1 0x1F AND DUP3 ADD SWAP2 JUMPDEST POP POP POP POP POP SWAP2 POP SWAP5 POP SWAP5 POP SWAP5 POP POP POP SWAP1 SWAP2 SWAP3 JUMP JUMPDEST PUSH1 0x0 DUP1 PUSH1 0x0 DUP1 PUSH1 0x0 PUSH1 0x1 SLOAD PUSH1 0x2 SLOAD PUSH1 0x3 SLOAD PUSH1 0x4 PUSH1 0x0 SWAP1 SLOAD SWAP1 PUSH2 0x100 EXP SWAP1 DIV PUSH1 0xFF AND PUSH1 0x4 PUSH1 0x1 SWAP1 SLOAD SWAP1 PUSH2 0x100 EXP SWAP1 DIV PUSH1 0xFF AND SWAP5 POP SWAP5 POP SWAP5 POP SWAP5 POP SWAP5 POP SWAP1 SWAP2 SWAP3 SWAP4 SWAP5 JUMP JUMPDEST PUSH1 0x0 PUSH1 0x6 DUP3 PUSH1 0x40 MLOAD PUSH2 0x235B SWAP2 SWAP1 PUSH2 0x3264 JUMP JUMPDEST SWAP1 DUP2 MSTORE PUSH1 0x20 ADD PUSH1 0x40 MLOAD DUP1 SWAP2 SUB SWAP1 KECCAK256 PUSH1 0x1 ADD PUSH1 0x1 SWAP1 SLOAD SWAP1 PUSH2 0x100 EXP SWAP1 DIV PUSH1 0xFF AND DUP1 ISZERO PUSH2 0x23B2 JUMPI POP PUSH1 0x6 DUP3 PUSH1 0x40 MLOAD PUSH2 0x2391 SWAP2 SWAP1 PUSH2 0x3264 JUMP JUMPDEST SWAP1 DUP2 MSTORE PUSH1 0x20 ADD PUSH1 0x40 MLOAD DUP1 SWAP2 SUB SWAP1 KECCAK256 PUSH1 0x1 ADD PUSH1 0x0 SWAP1 SLOAD SWAP1 PUSH2 0x100 EXP SWAP1 DIV PUSH1 0xFF AND ISZERO JUMPDEST DUP1 ISZERO PUSH2 0x23CA JUMPI POP PUSH1 0x4 PUSH1 0x0 SWAP1 SLOAD SWAP1 PUSH2 0x100 EXP SWAP1 DIV PUSH1 0xFF AND JUMPDEST DUP1 ISZERO PUSH2 0x23E3 JUMPI POP PUSH1 0x4 PUSH1 0x1 SWAP1 SLOAD SWAP1 PUSH2 0x100 EXP SWAP1 DIV PUSH1 0xFF AND ISZERO JUMPDEST DUP1 ISZERO PUSH2 0x23F4 JUMPI POP PUSH1 0x9 PUSH1 0x2 ADD SLOAD TIMESTAMP LT ISZERO JUMPDEST DUP1 ISZERO PUSH2 0x2405 JUMPI POP PUSH1 0x9 PUSH1 0x3 ADD SLOAD TIMESTAMP GT ISZERO JUMPDEST SWAP1 POP SWAP2 SWAP1 POP JUMP JUMPDEST PUSH1 0x4 PUSH1 0x1 SWAP1 SLOAD SWAP1 PUSH2 0x100 EXP SWAP1 DIV PUSH1 0xFF AND DUP2 JUMP JUMPDEST PUSH1 0x1 SLOAD DUP2 JUMP JUMPDEST PUSH1 0x0 PUSH1 0x4 PUSH1 0x0 SWAP1 SLOAD SWAP1 PUSH2 0x100 EXP SWAP1 DIV PUSH1 0xFF AND ISZERO DUP1 PUSH2 0x244F JUMPI POP PUSH1 0x4 PUSH1 0x1 SWAP1 SLOAD SWAP1 PUSH2 0x100 EXP SWAP1 DIV PUSH1 0xFF AND JUMPDEST ISZERO PUSH2 0x245D JUMPI PUSH1 0x0 SWAP1 POP PUSH2 0x2486 JUMP JUMPDEST PUSH1 0x9 PUSH1 0x3 ADD SLOAD TIMESTAMP LT PUSH2 0x2472 JUMPI PUSH1 0x0 SWAP1 POP PUSH2 0x2486 JUMP JUMPDEST TIMESTAMP PUSH1 0x9 PUSH1 0x3 ADD SLOAD PUSH2 0x2483 SWAP2 SWAP1 PUSH2 0x3B8F JUMP JUMPDEST SWAP1 POP JUMPDEST SWAP1 JUMP JUMPDEST PUSH1 0x0 DUP1 SLOAD SWAP1 PUSH2 0x100 EXP SWAP1 DIV PUSH20 0xFFFFFFFFFFFFFFFFFFFFFFFFFFFFFFFFFFFFFFFF AND PUSH20 0xFFFFFFFFFFFFFFFFFFFFFFFFFFFFFFFFFFFFFFFF AND CALLER PUSH20 0xFFFFFFFFFFFFFFFFFFFFFFFFFFFFFFFFFFFFFFFF AND EQ PUSH2 0x2517 JUMPI PUSH1 0x40 MLOAD PUSH32 0x8C379A000000000000000000000000000000000000000000000000000000000 DUP2 MSTORE PUSH1 0x4 ADD PUSH2 0x250E SWAP1 PUSH2 0x3768 JUMP JUMPDEST PUSH1 0x40 MLOAD DUP1 SWAP2 SUB SWAP1 REVERT JUMPDEST PUSH1 0x0 PUSH1 0x1 SWAP1 POP JUMPDEST PUSH1 0x1 SLOAD DUP2 GT PUSH2 0x2594 JUMPI PUSH1 0x5 PUSH1 0x0 DUP3 DUP2 MSTORE PUSH1 0x20 ADD SWAP1 DUP2 MSTORE PUSH1 0x20 ADD PUSH1 0x0 KECCAK256 PUSH1 0x0 DUP1 DUP3 ADD PUSH1 0x0 SWAP1 SSTORE PUSH1 0x1 DUP3 ADD PUSH1 0x0 PUSH2 0x2553 SWAP2 SWAP1 PUSH2 0x27B5 JUMP JUMPDEST PUSH1 0x2 DUP3 ADD PUSH1 0x0 PUSH2 0x2563 SWAP2 SWAP1 PUSH2 0x27B5 JUMP JUMPDEST PUSH1 0x3 DUP3 ADD PUSH1 0x0 SWAP1 SSTORE PUSH1 0x4 DUP3 ADD PUSH1 0x0 PUSH2 0x100 EXP DUP2 SLOAD SWAP1 PUSH1 0xFF MUL NOT AND SWAP1 SSTORE POP POP DUP1 DUP1 PUSH2 0x258C SWAP1 PUSH2 0x367E JUMP JUMPDEST SWAP2 POP POP PUSH2 0x251E JUMP JUMPDEST POP PUSH1 0x0 PUSH1 0x4 PUSH1 0x0 PUSH2 0x100 EXP DUP2 SLOAD DUP2 PUSH1 0xFF MUL NOT AND SWAP1 DUP4 ISZERO ISZERO MUL OR SWAP1 SSTORE POP PUSH1 0x0 PUSH1 0x4 PUSH1 0x1 PUSH2 0x100 EXP DUP2 SLOAD DUP2 PUSH1 0xFF MUL NOT AND SWAP1 DUP4 ISZERO ISZERO MUL OR SWAP1 SSTORE POP PUSH1 0x0 PUSH1 0x1 DUP2 SWAP1 SSTORE POP PUSH1 0x0 PUSH1 0x3 DUP2 SWAP1 SSTORE POP PUSH1 0x0 PUSH1 0x9 PUSH1 0x2 ADD DUP2 SWAP1 SSTORE POP PUSH1 0x0 PUSH1 0x9 PUSH1 0x3 ADD DUP2 SWAP1 SSTORE POP PUSH1 0x0 PUSH1 0x9 PUSH1 0x4 ADD PUSH1 0x0 PUSH2 0x100 EXP DUP2 SLOAD DUP2 PUSH1 0xFF MUL NOT AND SWAP1 DUP4 ISZERO ISZERO MUL OR SWAP1 SSTORE POP PUSH32 0x8D1085CD9ECEAAB0B77FD20C66DEA55DF08E5EF2D52859C2CB4A1E16BA9476C0 PUSH1 0x40 MLOAD PUSH1 0x40 MLOAD DUP1 SWAP2 SUB SWAP1 LOG1 JUMP JUMPDEST PUSH1 0x0 DUP1 SLOAD SWAP1 PUSH2 0x100 EXP SWAP1 DIV PUSH20 0xFFFFFFFFFFFFFFFFFFFFFFFFFFFFFFFFFFFFFFFF AND DUP2 JUMP JUMPDEST PUSH1 0x9 DUP1 PUSH1 0x0 ADD DUP1 SLOAD PUSH2 0x2672 SWAP1 PUSH2 0x31F7 JUMP JUMPDEST DUP1 PUSH1 0x1F ADD PUSH1 0x20 DUP1 SWAP2 DIV MUL PUSH1 0x20 ADD PUSH1 0x40 MLOAD SWAP1 DUP2 ADD PUSH1 0x40 MSTORE DUP1 SWAP3 SWAP2 SWAP1 DUP2 DUP2 MSTORE PUSH1 0x20 ADD DUP3 DUP1 SLOAD PUSH2 0x269E SWAP1 PUSH2 0x31F7 JUMP JUMPDEST DUP1 ISZERO PUSH2 0x26EB JUMPI DUP1 PUSH1 0x1F LT PUSH2 0x26C0 JUMPI PUSH2 0x100 DUP1 DUP4 SLOAD DIV MUL DUP4 MSTORE SWAP2 PUSH1 0x20 ADD SWAP2 PUSH2 0x26EB JUMP JUMPDEST DUP3 ADD SWAP2 SWAP1 PUSH1 0x0 MSTORE PUSH1 0x20 PUSH1 0x0 KECCAK256 SWAP1 JUMPDEST DUP2 SLOAD DUP2 MSTORE SWAP1 PUSH1 0x1 ADD SWAP1 PUSH1 0x20 ADD DUP1 DUP4 GT PUSH2 0x26CE JUMPI DUP3 SWAP1 SUB PUSH1 0x1F AND DUP3 ADD SWAP2 JUMPDEST POP POP POP POP POP SWAP1 DUP1 PUSH1 0x1 ADD DUP1 SLOAD PUSH2 0x2700 SWAP1 PUSH2 0x31F7 JUMP JUMPDEST DUP1 PUSH1 0x1F ADD PUSH1 0x20 DUP1 SWAP2 DIV MUL PUSH1 0x20 ADD PUSH1 0x40 MLOAD SWAP1 DUP2 ADD PUSH1 0x40 MSTORE DUP1 SWAP3 SWAP2 SWAP1 DUP2 DUP2 MSTORE PUSH1 0x20 ADD DUP3 DUP1 SLOAD PUSH2 0x272C SWAP1 PUSH2 0x31F7 JUMP JUMPDEST DUP1 ISZERO PUSH2 0x2779 JUMPI DUP1 PUSH1 0x1F LT PUSH2 0x274E JUMPI PUSH2 0x100 DUP1 DUP4 SLOAD DIV MUL DUP4 MSTORE SWAP2 PUSH1 0x20 ADD SWAP2 PUSH2 0x2779 JUMP JUMPDEST DUP3 ADD SWAP2 SWAP1 PUSH1 0x0 MSTORE PUSH1 0x20 PUSH1 0x0 KECCAK256 SWAP1 JUMPDEST DUP2 SLOAD DUP2 MSTORE SWAP1 PUSH1 0x1 ADD SWAP1 PUSH1 0x20 ADD DUP1 DUP4 GT PUSH2 0x275C JUMPI DUP3 SWAP1 SUB PUSH1 0x1F AND DUP3 ADD SWAP2 JUMPDEST POP POP POP POP POP SWAP1 DUP1 PUSH1 0x2 ADD SLOAD SWAP1 DUP1 PUSH1 0x3 ADD SLOAD SWAP1 DUP1 PUSH1 0x4 ADD PUSH1 0x0 SWAP1 SLOAD SWAP1 PUSH2 0x100 EXP SWAP1 DIV PUSH1 0xFF AND SWAP1 DUP1 PUSH1 0x4 ADD PUSH1 0x1 SWAP1 SLOAD SWAP1 PUSH2 0x100 EXP SWAP1 DIV PUSH1 0xFF AND SWAP1 POP DUP7 JUMP JUMPDEST POP DUP1 SLOAD PUSH2 0x27C1 SWAP1 PUSH2 0x31F7 JUMP JUMPDEST PUSH1 0x0 DUP3 SSTORE DUP1 PUSH1 0x1F LT PUSH2 0x27D3 JUMPI POP PUSH2 0x27F2 JUMP JUMPDEST PUSH1 0x1F ADD PUSH1 0x20 SWAP1 DIV SWAP1 PUSH1 0x0 MSTORE PUSH1 0x20 PUSH1 0x0 KECCAK256 SWAP1 DUP2 ADD SWAP1 PUSH2 0x27F1 SWAP2 SWAP1 PUSH2 0x27F5 JUMP JUMPDEST JUMPDEST POP JUMP JUMPDEST JUMPDEST DUP1 DUP3 GT ISZERO PUSH2 0x280E JUMPI PUSH1 0x0 DUP2 PUSH1 0x0 SWAP1 SSTORE POP PUSH1 0x1 ADD PUSH2 0x27F6 JUMP JUMPDEST POP SWAP1 JUMP JUMPDEST PUSH1 0x0 PUSH1 0x40 MLOAD SWAP1 POP SWAP1 JUMP JUMPDEST PUSH1 0x0 DUP1 REVERT JUMPDEST PUSH1 0x0 DUP1 REVERT JUMPDEST PUSH1 0x0 PUSH20 0xFFFFFFFFFFFFFFFFFFFFFFFFFFFFFFFFFFFFFFFF DUP3 AND SWAP1 POP SWAP2 SWAP1 POP JUMP JUMPDEST PUSH1 0x0 PUSH2 0x2851 DUP3 PUSH2 0x2826 JUMP JUMPDEST SWAP1 POP SWAP2 SWAP1 POP JUMP JUMPDEST PUSH2 0x2861 DUP2 PUSH2 0x2846 JUMP JUMPDEST DUP2 EQ PUSH2 0x286C JUMPI PUSH1 0x0 DUP1 REVERT JUMPDEST POP JUMP JUMPDEST PUSH1 0x0 DUP2 CALLDATALOAD SWAP1 POP PUSH2 0x287E DUP2 PUSH2 0x2858 JUMP JUMPDEST SWAP3 SWAP2 POP POP JUMP JUMPDEST PUSH1 0x0 PUSH1 0x20 DUP3 DUP5 SUB SLT ISZERO PUSH2 0x289A JUMPI PUSH2 0x2899 PUSH2 0x281C JUMP JUMPDEST JUMPDEST PUSH1 0x0 PUSH2 0x28A8 DUP5 DUP3 DUP6 ADD PUSH2 0x286F JUMP JUMPDEST SWAP2 POP POP SWAP3 SWAP2 POP POP JUMP JUMPDEST PUSH1 0x0 DUP2 MLOAD SWAP1 POP SWAP2 SWAP1 POP JUMP JUMPDEST PUSH1 0x0 DUP3 DUP3 MSTORE PUSH1 0x20 DUP3 ADD SWAP1 POP SWAP3 SWAP2 POP POP JUMP JUMPDEST PUSH1 0x0 JUMPDEST DUP4 DUP2 LT ISZERO PUSH2 0x28EB JUMPI DUP1 DUP3 ADD MLOAD DUP2 DUP5 ADD MSTORE PUSH1 0x20 DUP2 ADD SWAP1 POP PUSH2 0x28D0 JUMP JUMPDEST PUSH1 0x0 DUP5 DUP5 ADD MSTORE POP POP POP POP JUMP JUMPDEST PUSH1 0x0 PUSH1 0x1F NOT PUSH1 0x1F DUP4 ADD AND SWAP1 POP SWAP2 SWAP1 POP JUMP JUMPDEST PUSH1 0x0 PUSH2 0x2913 DUP3 PUSH2 0x28B1 JUMP JUMPDEST PUSH2 0x291D DUP2 DUP6 PUSH2 0x28BC JUMP JUMPDEST SWAP4 POP PUSH2 0x292D DUP2 DUP6 PUSH1 0x20 DUP7 ADD PUSH2 0x28CD JUMP JUMPDEST PUSH2 0x2936 DUP2 PUSH2 0x28F7 JUMP JUMPDEST DUP5 ADD SWAP2 POP POP SWAP3 SWAP2 POP POP JUMP JUMPDEST PUSH1 0x0 PUSH1 0x20 DUP3 ADD SWAP1 POP DUP2 DUP2 SUB PUSH1 0x0 DUP4 ADD MSTORE PUSH2 0x295B DUP2 DUP5 PUSH2 0x2908 JUMP JUMPDEST SWAP1 POP SWAP3 SWAP2 POP POP JUMP JUMPDEST PUSH1 0x0 DUP1 REVERT JUMPDEST PUSH1 0x0 DUP1 REVERT JUMPDEST PUSH32 0x4E487B7100000000000000000000000000000000000000000000000000000000 PUSH1 0x0 MSTORE PUSH1 0x41 PUSH1 0x4 MSTORE PUSH1 0x24 PUSH1 0x0 REVERT JUMPDEST PUSH2 0x29A5 DUP3 PUSH2 0x28F7 JUMP JUMPDEST DUP2 ADD DUP2 DUP2 LT PUSH8 0xFFFFFFFFFFFFFFFF DUP3 GT OR ISZERO PUSH2 0x29C4 JUMPI PUSH2 0x29C3 PUSH2 0x296D JUMP JUMPDEST JUMPDEST DUP1 PUSH1 0x40 MSTORE POP POP POP JUMP JUMPDEST PUSH1 0x0 PUSH2 0x29D7 PUSH2 0x2812 JUMP JUMPDEST SWAP1 POP PUSH2 0x29E3 DUP3 DUP3 PUSH2 0x299C JUMP JUMPDEST SWAP2 SWAP1 POP JUMP JUMPDEST PUSH1 0x0 PUSH8 0xFFFFFFFFFFFFFFFF DUP3 GT ISZERO PUSH2 0x2A03 JUMPI PUSH2 0x2A02 PUSH2 0x296D JUMP JUMPDEST JUMPDEST PUSH2 0x2A0C DUP3 PUSH2 0x28F7 JUMP JUMPDEST SWAP1 POP PUSH1 0x20 DUP2 ADD SWAP1 POP SWAP2 SWAP1 POP JUMP JUMPDEST DUP3 DUP2 DUP4 CALLDATACOPY PUSH1 0x0 DUP4 DUP4 ADD MSTORE POP POP POP JUMP JUMPDEST PUSH1 0x0 PUSH2 0x2A3B PUSH2 0x2A36 DUP5 PUSH2 0x29E8 JUMP JUMPDEST PUSH2 0x29CD JUMP JUMPDEST SWAP1 POP DUP3 DUP2 MSTORE PUSH1 0x20 DUP2 ADD DUP5 DUP5 DUP5 ADD GT ISZERO PUSH2 0x2A57 JUMPI PUSH2 0x2A56 PUSH2 0x2968 JUMP JUMPDEST JUMPDEST PUSH2 0x2A62 DUP5 DUP3 DUP6 PUSH2 0x2A19 JUMP JUMPDEST POP SWAP4 SWAP3 POP POP POP JUMP JUMPDEST PUSH1 0x0 DUP3 PUSH1 0x1F DUP4 ADD SLT PUSH2 0x2A7F JUMPI PUSH2 0x2A7E PUSH2 0x2963 JUMP JUMPDEST JUMPDEST DUP2 CALLDATALOAD PUSH2 0x2A8F DUP5 DUP3 PUSH1 0x20 DUP7 ADD PUSH2 0x2A28 JUMP JUMPDEST SWAP2 POP POP SWAP3 SWAP2 POP POP JUMP JUMPDEST PUSH1 0x0 PUSH1 0x20 DUP3 DUP5 SUB SLT ISZERO PUSH2 0x2AAE JUMPI PUSH2 0x2AAD PUSH2 0x281C JUMP JUMPDEST JUMPDEST PUSH1 0x0 DUP3 ADD CALLDATALOAD PUSH8 0xFFFFFFFFFFFFFFFF DUP2 GT ISZERO PUSH2 0x2ACC JUMPI PUSH2 0x2ACB PUSH2 0x2821 JUMP JUMPDEST JUMPDEST PUSH2 0x2AD8 DUP5 DUP3 DUP6 ADD PUSH2 0x2A6A JUMP JUMPDEST SWAP2 POP POP SWAP3 SWAP2 POP POP JUMP JUMPDEST PUSH1 0x0 DUP2 ISZERO ISZERO SWAP1 POP SWAP2 SWAP1 POP JUMP JUMPDEST PUSH2 0x2AF6 DUP2 PUSH2 0x2AE1 JUMP JUMPDEST DUP3 MSTORE POP POP JUMP JUMPDEST PUSH1 0x0 PUSH1 0x20 DUP3 ADD SWAP1 POP PUSH2 0x2B11 PUSH1 0x0 DUP4 ADD DUP5 PUSH2 0x2AED JUMP JUMPDEST SWAP3 SWAP2 POP POP JUMP JUMPDEST PUSH1 0x0 DUP2 SWAP1 POP SWAP2 SWAP1 POP JUMP JUMPDEST PUSH2 0x2B2A DUP2 PUSH2 0x2B17 JUMP JUMPDEST DUP3 MSTORE POP POP JUMP JUMPDEST PUSH1 0x0 PUSH1 0x20 DUP3 ADD SWAP1 POP PUSH2 0x2B45 PUSH1 0x0 DUP4 ADD DUP5 PUSH2 0x2B21 JUMP JUMPDEST SWAP3 SWAP2 POP POP JUMP JUMPDEST PUSH1 0x0 PUSH1 0x60 DUP3 ADD SWAP1 POP DUP2 DUP2 SUB PUSH1 0x0 DUP4 ADD MSTORE PUSH2 0x2B65 DUP2 DUP7 PUSH2 0x2908 JUMP JUMPDEST SWAP1 POP PUSH2 0x2B74 PUSH1 0x20 DUP4 ADD DUP6 PUSH2 0x2AED JUMP JUMPDEST PUSH2 0x2B81 PUSH1 0x40 DUP4 ADD DUP5 PUSH2 0x2B21 JUMP JUMPDEST SWAP5 SWAP4 POP POP POP POP JUMP JUMPDEST PUSH2 0x2B92 DUP2 PUSH2 0x2B17 JUMP JUMPDEST DUP2 EQ PUSH2 0x2B9D JUMPI PUSH1 0x0 DUP1 REVERT JUMPDEST POP JUMP JUMPDEST PUSH1 0x0 DUP2 CALLDATALOAD SWAP1 POP PUSH2 0x2BAF DUP2 PUSH2 0x2B89 JUMP JUMPDEST SWAP3 SWAP2 POP POP JUMP JUMPDEST PUSH1 0x0 DUP1 PUSH1 0x40 DUP4 DUP6 SUB SLT ISZERO PUSH2 0x2BCC JUMPI PUSH2 0x2BCB PUSH2 0x281C JUMP JUMPDEST JUMPDEST PUSH1 0x0 PUSH2 0x2BDA DUP6 DUP3 DUP7 ADD PUSH2 0x2BA0 JUMP JUMPDEST SWAP3 POP POP PUSH1 0x20 DUP4 ADD CALLDATALOAD PUSH8 0xFFFFFFFFFFFFFFFF DUP2 GT ISZERO PUSH2 0x2BFB JUMPI PUSH2 0x2BFA PUSH2 0x2821 JUMP JUMPDEST JUMPDEST PUSH2 0x2C07 DUP6 DUP3 DUP7 ADD PUSH2 0x2A6A JUMP JUMPDEST SWAP2 POP POP SWAP3 POP SWAP3 SWAP1 POP JUMP JUMPDEST PUSH1 0x0 DUP1 PUSH1 0x40 DUP4 DUP6 SUB SLT ISZERO PUSH2 0x2C28 JUMPI PUSH2 0x2C27 PUSH2 0x281C JUMP JUMPDEST JUMPDEST PUSH1 0x0 DUP4 ADD CALLDATALOAD PUSH8 0xFFFFFFFFFFFFFFFF DUP2 GT ISZERO PUSH2 0x2C46 JUMPI PUSH2 0x2C45 PUSH2 0x2821 JUMP JUMPDEST JUMPDEST PUSH2 0x2C52 DUP6 DUP3 DUP7 ADD PUSH2 0x2A6A JUMP JUMPDEST SWAP3 POP POP PUSH1 0x20 DUP4 ADD CALLDATALOAD PUSH8 0xFFFFFFFFFFFFFFFF DUP2 GT ISZERO PUSH2 0x2C73 JUMPI PUSH2 0x2C72 PUSH2 0x2821 JUMP JUMPDEST JUMPDEST PUSH2 0x2C7F DUP6 DUP3 DUP7 ADD PUSH2 0x2A6A JUMP JUMPDEST SWAP2 POP POP SWAP3 POP SWAP3 SWAP1 POP JUMP JUMPDEST PUSH1 0x0 DUP2 MLOAD SWAP1 POP SWAP2 SWAP1 POP JUMP JUMPDEST PUSH1 0x0 DUP3 DUP3 MSTORE PUSH1 0x20 DUP3 ADD SWAP1 POP SWAP3 SWAP2 POP POP JUMP JUMPDEST PUSH1 0x0 DUP2 SWAP1 POP PUSH1 0x20 DUP3 ADD SWAP1 POP SWAP2 SWAP1 POP JUMP JUMPDEST PUSH2 0x2CBE DUP2 PUSH2 0x2B17 JUMP JUMPDEST DUP3 MSTORE POP POP JUMP JUMPDEST PUSH1 0x0 PUSH2 0x2CD0 DUP4 DUP4 PUSH2 0x2CB5 JUMP JUMPDEST PUSH1 0x20 DUP4 ADD SWAP1 POP SWAP3 SWAP2 POP POP JUMP JUMPDEST PUSH1 0x0 PUSH1 0x20 DUP3 ADD SWAP1 POP SWAP2 SWAP1 POP JUMP JUMPDEST PUSH1 0x0 PUSH2 0x2CF4 DUP3 PUSH2 0x2C89 JUMP JUMPDEST PUSH2 0x2CFE DUP2 DUP6 PUSH2 0x2C94 JUMP JUMPDEST SWAP4 POP PUSH2 0x2D09 DUP4 PUSH2 0x2CA5 JUMP JUMPDEST DUP1 PUSH1 0x0 JUMPDEST DUP4 DUP2 LT ISZERO PUSH2 0x2D3A JUMPI DUP2 MLOAD PUSH2 0x2D21 DUP9 DUP3 PUSH2 0x2CC4 JUMP JUMPDEST SWAP8 POP PUSH2 0x2D2C DUP4 PUSH2 0x2CDC JUMP JUMPDEST SWAP3 POP POP PUSH1 0x1 DUP2 ADD SWAP1 POP PUSH2 0x2D0D JUMP JUMPDEST POP DUP6 SWAP4 POP POP POP POP SWAP3 SWAP2 POP POP JUMP JUMPDEST PUSH1 0x0 DUP2 MLOAD SWAP1 POP SWAP2 SWAP1 POP JUMP JUMPDEST PUSH1 0x0 DUP3 DUP3 MSTORE PUSH1 0x20 DUP3 ADD SWAP1 POP SWAP3 SWAP2 POP POP JUMP JUMPDEST PUSH1 0x0 DUP2 SWAP1 POP PUSH1 0x20 DUP3 ADD SWAP1 POP SWAP2 SWAP1 POP JUMP JUMPDEST PUSH1 0x0 DUP3 DUP3 MSTORE PUSH1 0x20 DUP3 ADD SWAP1 POP SWAP3 SWAP2 POP POP JUMP JUMPDEST PUSH1 0x0 PUSH2 0x2D8F DUP3 PUSH2 0x28B1 JUMP JUMPDEST PUSH2 0x2D99 DUP2 DUP6 PUSH2 0x2D73 JUMP JUMPDEST SWAP4 POP PUSH2 0x2DA9 DUP2 DUP6 PUSH1 0x20 DUP7 ADD PUSH2 0x28CD JUMP JUMPDEST PUSH2 0x2DB2 DUP2 PUSH2 0x28F7 JUMP JUMPDEST DUP5 ADD SWAP2 POP POP SWAP3 SWAP2 POP POP JUMP JUMPDEST PUSH1 0x0 PUSH2 0x2DC9 DUP4 DUP4 PUSH2 0x2D84 JUMP JUMPDEST SWAP1 POP SWAP3 SWAP2 POP POP JUMP JUMPDEST PUSH1 0x0 PUSH1 0x20 DUP3 ADD SWAP1 POP SWAP2 SWAP1 POP JUMP JUMPDEST PUSH1 0x0 PUSH2 0x2DE9 DUP3 PUSH2 0x2D47 JUMP JUMPDEST PUSH2 0x2DF3 DUP2 DUP6 PUSH2 0x2D52 JUMP JUMPDEST SWAP4 POP DUP4 PUSH1 0x20 DUP3 MUL DUP6 ADD PUSH2 0x2E05 DUP6 PUSH2 0x2D63 JUMP JUMPDEST DUP1 PUSH1 0x0 JUMPDEST DUP6 DUP2 LT ISZERO PUSH2 0x2E41 JUMPI DUP5 DUP5 SUB DUP10 MSTORE DUP2 MLOAD PUSH2 0x2E22 DUP6 DUP3 PUSH2 0x2DBD JUMP JUMPDEST SWAP5 POP PUSH2 0x2E2D DUP4 PUSH2 0x2DD1 JUMP JUMPDEST SWAP3 POP PUSH1 0x20 DUP11 ADD SWAP10 POP POP PUSH1 0x1 DUP2 ADD SWAP1 POP PUSH2 0x2E09 JUMP JUMPDEST POP DUP3 SWAP8 POP DUP8 SWAP6 POP POP POP POP POP POP SWAP3 SWAP2 POP POP JUMP JUMPDEST PUSH1 0x0 PUSH1 0x80 DUP3 ADD SWAP1 POP DUP2 DUP2 SUB PUSH1 0x0 DUP4 ADD MSTORE PUSH2 0x2E6D DUP2 DUP8 PUSH2 0x2CE9 JUMP JUMPDEST SWAP1 POP DUP2 DUP2 SUB PUSH1 0x20 DUP4 ADD MSTORE PUSH2 0x2E81 DUP2 DUP7 PUSH2 0x2DDE JUMP JUMPDEST SWAP1 POP DUP2 DUP2 SUB PUSH1 0x40 DUP4 ADD MSTORE PUSH2 0x2E95 DUP2 DUP6 PUSH2 0x2DDE JUMP JUMPDEST SWAP1 POP DUP2 DUP2 SUB PUSH1 0x60 DUP4 ADD MSTORE PUSH2 0x2EA9 DUP2 DUP5 PUSH2 0x2CE9 JUMP JUMPDEST SWAP1 POP SWAP6 SWAP5 POP POP POP POP POP JUMP JUMPDEST PUSH1 0x0 PUSH1 0x20 DUP3 DUP5 SUB SLT ISZERO PUSH2 0x2ECA JUMPI PUSH2 0x2EC9 PUSH2 0x281C JUMP JUMPDEST JUMPDEST PUSH1 0x0 PUSH2 0x2ED8 DUP5 DUP3 DUP6 ADD PUSH2 0x2BA0 JUMP JUMPDEST SWAP2 POP POP SWAP3 SWAP2 POP POP JUMP JUMPDEST PUSH1 0x0 PUSH1 0xA0 DUP3 ADD SWAP1 POP PUSH2 0x2EF6 PUSH1 0x0 DUP4 ADD DUP9 PUSH2 0x2B21 JUMP JUMPDEST DUP2 DUP2 SUB PUSH1 0x20 DUP4 ADD MSTORE PUSH2 0x2F08 DUP2 DUP8 PUSH2 0x2908 JUMP JUMPDEST SWAP1 POP DUP2 DUP2 SUB PUSH1 0x40 DUP4 ADD MSTORE PUSH2 0x2F1C DUP2 DUP7 PUSH2 0x2908 JUMP JUMPDEST SWAP1 POP PUSH2 0x2F2B PUSH1 0x60 DUP4 ADD DUP6 PUSH2 0x2B21 JUMP JUMPDEST PUSH2 0x2F38 PUSH1 0x80 DUP4 ADD DUP5 PUSH2 0x2AED JUMP JUMPDEST SWAP7 SWAP6 POP POP POP POP POP POP JUMP JUMPDEST PUSH1 0x0 PUSH1 0x80 DUP3 ADD SWAP1 POP PUSH2 0x2F57 PUSH1 0x0 DUP4 ADD DUP8 PUSH2 0x2B21 JUMP JUMPDEST DUP2 DUP2 SUB PUSH1 0x20 DUP4 ADD MSTORE PUSH2 0x2F69 DUP2 DUP7 PUSH2 0x2908 JUMP JUMPDEST SWAP1 POP DUP2 DUP2 SUB PUSH1 0x40 DUP4 ADD MSTORE PUSH2 0x2F7D DUP2 DUP6 PUSH2 0x2908 JUMP JUMPDEST SWAP1 POP PUSH2 0x2F8C PUSH1 0x60 DUP4 ADD DUP5 PUSH2 0x2B21 JUMP JUMPDEST SWAP6 SWAP5 POP POP POP POP POP JUMP JUMPDEST PUSH1 0x0 DUP1 PUSH1 0x40 DUP4 DUP6 SUB SLT ISZERO PUSH2 0x2FAC JUMPI PUSH2 0x2FAB PUSH2 0x281C JUMP JUMPDEST JUMPDEST PUSH1 0x0 DUP4 ADD CALLDATALOAD PUSH8 0xFFFFFFFFFFFFFFFF DUP2 GT ISZERO PUSH2 0x2FCA JUMPI PUSH2 0x2FC9 PUSH2 0x2821 JUMP JUMPDEST JUMPDEST PUSH2 0x2FD6 DUP6 DUP3 DUP7 ADD PUSH2 0x2A6A JUMP JUMPDEST SWAP3 POP POP PUSH1 0x20 PUSH2 0x2FE7 DUP6 DUP3 DUP7 ADD PUSH2 0x286F JUMP JUMPDEST SWAP2 POP POP SWAP3 POP SWAP3 SWAP1 POP JUMP JUMPDEST PUSH1 0x0 PUSH1 0x80 DUP3 ADD SWAP1 POP DUP2 DUP2 SUB PUSH1 0x0 DUP4 ADD MSTORE PUSH2 0x300B DUP2 DUP8 PUSH2 0x2908 JUMP JUMPDEST SWAP1 POP PUSH2 0x301A PUSH1 0x20 DUP4 ADD DUP7 PUSH2 0x2AED JUMP JUMPDEST PUSH2 0x3027 PUSH1 0x40 DUP4 ADD DUP6 PUSH2 0x2AED JUMP JUMPDEST PUSH2 0x3034 PUSH1 0x60 DUP4 ADD DUP5 PUSH2 0x2B21 JUMP JUMPDEST SWAP6 SWAP5 POP POP POP POP POP JUMP JUMPDEST PUSH1 0x0 PUSH1 0xA0 DUP3 ADD SWAP1 POP DUP2 DUP2 SUB PUSH1 0x0 DUP4 ADD MSTORE PUSH2 0x3057 DUP2 DUP9 PUSH2 0x2908 JUMP JUMPDEST SWAP1 POP DUP2 DUP2 SUB PUSH1 0x20 DUP4 ADD MSTORE PUSH2 0x306B DUP2 DUP8 PUSH2 0x2908 JUMP JUMPDEST SWAP1 POP PUSH2 0x307A PUSH1 0x40 DUP4 ADD DUP7 PUSH2 0x2B21 JUMP JUMPDEST PUSH2 0x3087 PUSH1 0x60 DUP4 ADD DUP6 PUSH2 0x2B21 JUMP JUMPDEST PUSH2 0x3094 PUSH1 0x80 DUP4 ADD DUP5 PUSH2 0x2AED JUMP JUMPDEST SWAP7 SWAP6 POP POP POP POP POP POP JUMP JUMPDEST PUSH1 0x0 PUSH1 0x60 DUP3 ADD SWAP1 POP PUSH2 0x30B3 PUSH1 0x0 DUP4 ADD DUP7 PUSH2 0x2B21 JUMP JUMPDEST DUP2 DUP2 SUB PUSH1 0x20 DUP4 ADD MSTORE PUSH2 0x30C5 DUP2 DUP6 PUSH2 0x2908 JUMP JUMPDEST SWAP1 POP PUSH2 0x30D4 PUSH1 0x40 DUP4 ADD DUP5 PUSH2 0x2B21 JUMP JUMPDEST SWAP5 SWAP4 POP POP POP POP JUMP JUMPDEST PUSH1 0x0 PUSH1 0xA0 DUP3 ADD SWAP1 POP PUSH2 0x30F1 PUSH1 0x0 DUP4 ADD DUP9 PUSH2 0x2B21 JUMP JUMPDEST PUSH2 0x30FE PUSH1 0x20 DUP4 ADD DUP8 PUSH2 0x2B21 JUMP JUMPDEST PUSH2 0x310B PUSH1 0x40 DUP4 ADD DUP7 PUSH2 0x2B21 JUMP JUMPDEST PUSH2 0x3118 PUSH1 0x60 DUP4 ADD DUP6 PUSH2 0x2AED JUMP JUMPDEST PUSH2 0x3125 PUSH1 0x80 DUP4 ADD DUP5 PUSH2 0x2AED JUMP JUMPDEST SWAP7 SWAP6 POP POP POP POP POP POP JUMP JUMPDEST PUSH2 0x3138 DUP2 PUSH2 0x2846 JUMP JUMPDEST DUP3 MSTORE POP POP JUMP JUMPDEST PUSH1 0x0 PUSH1 0x20 DUP3 ADD SWAP1 POP PUSH2 0x3153 PUSH1 0x0 DUP4 ADD DUP5 PUSH2 0x312F JUMP JUMPDEST SWAP3 SWAP2 POP POP JUMP JUMPDEST PUSH1 0x0 PUSH1 0xC0 DUP3 ADD SWAP1 POP DUP2 DUP2 SUB PUSH1 0x0 DUP4 ADD MSTORE PUSH2 0x3173 DUP2 DUP10 PUSH2 0x2908 JUMP JUMPDEST SWAP1 POP DUP2 DUP2 SUB PUSH1 0x20 DUP4 ADD MSTORE PUSH2 0x3187 DUP2 DUP9 PUSH2 0x2908 JUMP JUMPDEST SWAP1 POP PUSH2 0x3196 PUSH1 0x40 DUP4 ADD DUP8 PUSH2 0x2B21 JUMP JUMPDEST PUSH2 0x31A3 PUSH1 0x60 DUP4 ADD DUP7 PUSH2 0x2B21 JUMP JUMPDEST PUSH2 0x31B0 PUSH1 0x80 DUP4 ADD DUP6 PUSH2 0x2AED JUMP JUMPDEST PUSH2 0x31BD PUSH1 0xA0 DUP4 ADD DUP5 PUSH2 0x2AED JUMP JUMPDEST SWAP8 SWAP7 POP POP POP POP POP POP POP JUMP JUMPDEST PUSH32 0x4E487B7100000000000000000000000000000000000000000000000000000000 PUSH1 0x0 MSTORE PUSH1 0x22 PUSH1 0x4 MSTORE PUSH1 0x24 PUSH1 0x0 REVERT JUMPDEST PUSH1 0x0 PUSH1 0x2 DUP3 DIV SWAP1 POP PUSH1 0x1 DUP3 AND DUP1 PUSH2 0x320F JUMPI PUSH1 0x7F DUP3 AND SWAP2 POP JUMPDEST PUSH1 0x20 DUP3 LT DUP2 SUB PUSH2 0x3222 JUMPI PUSH2 0x3221 PUSH2 0x31C8 JUMP JUMPDEST JUMPDEST POP SWAP2 SWAP1 POP JUMP JUMPDEST PUSH1 0x0 DUP2 SWAP1 POP SWAP3 SWAP2 POP POP JUMP JUMPDEST PUSH1 0x0 PUSH2 0x323E DUP3 PUSH2 0x28B1 JUMP JUMPDEST PUSH2 0x3248 DUP2 DUP6 PUSH2 0x3228 JUMP JUMPDEST SWAP4 POP PUSH2 0x3258 DUP2 DUP6 PUSH1 0x20 DUP7 ADD PUSH2 0x28CD JUMP JUMPDEST DUP1 DUP5 ADD SWAP2 POP POP SWAP3 SWAP2 POP POP JUMP JUMPDEST PUSH1 0x0 PUSH2 0x3270 DUP3 DUP5 PUSH2 0x3233 JUMP JUMPDEST SWAP2 POP DUP2 SWAP1 POP SWAP3 SWAP2 POP POP JUMP JUMPDEST PUSH32 0x566F746572206E6F742072656769737465726564000000000000000000000000 PUSH1 0x0 DUP3 ADD MSTORE POP JUMP JUMPDEST PUSH1 0x0 PUSH2 0x32B1 PUSH1 0x14 DUP4 PUSH2 0x28BC JUMP JUMPDEST SWAP2 POP PUSH2 0x32BC DUP3 PUSH2 0x327B JUMP JUMPDEST PUSH1 0x20 DUP3 ADD SWAP1 POP SWAP2 SWAP1 POP JUMP JUMPDEST PUSH1 0x0 PUSH1 0x20 DUP3 ADD SWAP1 POP DUP2 DUP2 SUB PUSH1 0x0 DUP4 ADD MSTORE PUSH2 0x32E0 DUP2 PUSH2 0x32A4 JUMP JUMPDEST SWAP1 POP SWAP2 SWAP1 POP JUMP JUMPDEST PUSH32 0x566F74696E67206973206E6F7420616374697665000000000000000000000000 PUSH1 0x0 DUP3 ADD MSTORE POP JUMP JUMPDEST PUSH1 0x0 PUSH2 0x331D PUSH1 0x14 DUP4 PUSH2 0x28BC JUMP JUMPDEST SWAP2 POP PUSH2 0x3328 DUP3 PUSH2 0x32E7 JUMP JUMPDEST PUSH1 0x20 DUP3 ADD SWAP1 POP SWAP2 SWAP1 POP JUMP JUMPDEST PUSH1 0x0 PUSH1 0x20 DUP3 ADD SWAP1 POP DUP2 DUP2 SUB PUSH1 0x0 DUP4 ADD MSTORE PUSH2 0x334C DUP2 PUSH2 0x3310 JUMP JUMPDEST SWAP1 POP SWAP2 SWAP1 POP JUMP JUMPDEST PUSH32 0x456C656374696F6E206E6F7420696E2070726F67726573730000000000000000 PUSH1 0x0 DUP3 ADD MSTORE POP JUMP JUMPDEST PUSH1 0x0 PUSH2 0x3389 PUSH1 0x18 DUP4 PUSH2 0x28BC JUMP JUMPDEST SWAP2 POP PUSH2 0x3394 DUP3 PUSH2 0x3353 JUMP JUMPDEST PUSH1 0x20 DUP3 ADD SWAP1 POP SWAP2 SWAP1 POP JUMP JUMPDEST PUSH1 0x0 PUSH1 0x20 DUP3 ADD SWAP1 POP DUP2 DUP2 SUB PUSH1 0x0 DUP4 ADD MSTORE PUSH2 0x33B8 DUP2 PUSH2 0x337C JUMP JUMPDEST SWAP1 POP SWAP2 SWAP1 POP JUMP JUMPDEST PUSH32 0x566F7465722068617320616C726561647920766F746564000000000000000000 PUSH1 0x0 DUP3 ADD MSTORE POP JUMP JUMPDEST PUSH1 0x0 PUSH2 0x33F5 PUSH1 0x17 DUP4 PUSH2 0x28BC JUMP JUMPDEST SWAP2 POP PUSH2 0x3400 DUP3 PUSH2 0x33BF JUMP JUMPDEST PUSH1 0x20 DUP3 ADD SWAP1 POP SWAP2 SWAP1 POP JUMP JUMPDEST PUSH1 0x0 PUSH1 0x20 DUP3 ADD SWAP1 POP DUP2 DUP2 SUB PUSH1 0x0 DUP4 ADD MSTORE PUSH2 0x3424 DUP2 PUSH2 0x33E8 JUMP JUMPDEST SWAP1 POP SWAP2 SWAP1 POP JUMP JUMPDEST PUSH1 0x0 DUP2 SWAP1 POP SWAP3 SWAP2 POP POP JUMP JUMPDEST PUSH1 0x0 DUP2 SWAP1 POP DUP2 PUSH1 0x0 MSTORE PUSH1 0x20 PUSH1 0x0 KECCAK256 SWAP1 POP SWAP2 SWAP1 POP JUMP JUMPDEST PUSH1 0x0 DUP2 SLOAD PUSH2 0x3458 DUP2 PUSH2 0x31F7 JUMP JUMPDEST PUSH2 0x3462 DUP2 DUP7 PUSH2 0x342B JUMP JUMPDEST SWAP5 POP PUSH1 0x1 DUP3 AND PUSH1 0x0 DUP2 EQ PUSH2 0x347D JUMPI PUSH1 0x1 DUP2 EQ PUSH2 0x3492 JUMPI PUSH2 0x34C5 JUMP JUMPDEST PUSH1 0xFF NOT DUP4 AND DUP7 MSTORE DUP2 ISZERO ISZERO DUP3 MUL DUP7 ADD SWAP4 POP PUSH2 0x34C5 JUMP JUMPDEST PUSH2 0x349B DUP6 PUSH2 0x3436 JUMP JUMPDEST PUSH1 0x0 JUMPDEST DUP4 DUP2 LT ISZERO PUSH2 0x34BD JUMPI DUP2 SLOAD DUP2 DUP10 ADD MSTORE PUSH1 0x1 DUP3 ADD SWAP2 POP PUSH1 0x20 DUP2 ADD SWAP1 POP PUSH2 0x349E JUMP JUMPDEST DUP4 DUP9 ADD SWAP6 POP POP POP JUMPDEST POP POP POP SWAP3 SWAP2 POP POP JUMP JUMPDEST PUSH1 0x0 PUSH2 0x34DA DUP3 DUP5 PUSH2 0x344B JUMP JUMPDEST SWAP2 POP DUP2 SWAP1 POP SWAP3 SWAP2 POP POP JUMP JUMPDEST PUSH32 0x53656E646572206164647265737320646F65736E2774206D6174636820726567 PUSH1 0x0 DUP3 ADD MSTORE PUSH32 0x697374657265642073747564656E742049440000000000000000000000000000 PUSH1 0x20 DUP3 ADD MSTORE POP JUMP JUMPDEST PUSH1 0x0 PUSH2 0x3541 PUSH1 0x32 DUP4 PUSH2 0x28BC JUMP JUMPDEST SWAP2 POP PUSH2 0x354C DUP3 PUSH2 0x34E5 JUMP JUMPDEST PUSH1 0x40 DUP3 ADD SWAP1 POP SWAP2 SWAP1 POP JUMP JUMPDEST PUSH1 0x0 PUSH1 0x20 DUP3 ADD SWAP1 POP DUP2 DUP2 SUB PUSH1 0x0 DUP4 ADD MSTORE PUSH2 0x3570 DUP2 PUSH2 0x3534 JUMP JUMPDEST SWAP1 POP SWAP2 SWAP1 POP JUMP JUMPDEST PUSH32 0x496E76616C69642063616E646964617465000000000000000000000000000000 PUSH1 0x0 DUP3 ADD MSTORE POP JUMP JUMPDEST PUSH1 0x0 PUSH2 0x35AD PUSH1 0x11 DUP4 PUSH2 0x28BC JUMP JUMPDEST SWAP2 POP PUSH2 0x35B8 DUP3 PUSH2 0x3577 JUMP JUMPDEST PUSH1 0x20 DUP3 ADD SWAP1 POP SWAP2 SWAP1 POP JUMP JUMPDEST PUSH1 0x0 PUSH1 0x20 DUP3 ADD SWAP1 POP DUP2 DUP2 SUB PUSH1 0x0 DUP4 ADD MSTORE PUSH2 0x35DC DUP2 PUSH2 0x35A0 JUMP JUMPDEST SWAP1 POP SWAP2 SWAP1 POP JUMP JUMPDEST PUSH32 0x43616E64696461746520646F6573206E6F742065786973740000000000000000 PUSH1 0x0 DUP3 ADD MSTORE POP JUMP JUMPDEST PUSH1 0x0 PUSH2 0x3619 PUSH1 0x18 DUP4 PUSH2 0x28BC JUMP JUMPDEST SWAP2 POP PUSH2 0x3624 DUP3 PUSH2 0x35E3 JUMP JUMPDEST PUSH1 0x20 DUP3 ADD SWAP1 POP SWAP2 SWAP1 POP JUMP JUMPDEST PUSH1 0x0 PUSH1 0x20 DUP3 ADD SWAP1 POP DUP2 DUP2 SUB PUSH1 0x0 DUP4 ADD MSTORE PUSH2 0x3648 DUP2 PUSH2 0x360C JUMP JUMPDEST SWAP1 POP SWAP2 SWAP1 POP JUMP JUMPDEST PUSH32 0x4E487B7100000000000000000000000000000000000000000000000000000000 PUSH1 0x0 MSTORE PUSH1 0x11 PUSH1 0x4 MSTORE PUSH1 0x24 PUSH1 0x0 REVERT JUMPDEST PUSH1 0x0 PUSH2 0x3689 DUP3 PUSH2 0x2B17 JUMP JUMPDEST SWAP2 POP PUSH32 0xFFFFFFFFFFFFFFFFFFFFFFFFFFFFFFFFFFFFFFFFFFFFFFFFFFFFFFFFFFFFFFFF DUP3 SUB PUSH2 0x36BB JUMPI PUSH2 0x36BA PUSH2 0x364F JUMP JUMPDEST JUMPDEST PUSH1 0x1 DUP3 ADD SWAP1 POP SWAP2 SWAP1 POP JUMP JUMPDEST PUSH1 0x0 PUSH1 0x40 DUP3 ADD SWAP1 POP DUP2 DUP2 SUB PUSH1 0x0 DUP4 ADD MSTORE PUSH2 0x36E0 DUP2 DUP6 PUSH2 0x2908 JUMP JUMPDEST SWAP1 POP PUSH2 0x36EF PUSH1 0x20 DUP4 ADD DUP5 PUSH2 0x2B21 JUMP JUMPDEST SWAP4 SWAP3 POP POP POP JUMP JUMPDEST PUSH32 0x4F6E6C792061646D696E2063616E20706572666F726D20746869732061637469 PUSH1 0x0 DUP3 ADD MSTORE PUSH32 0x6F6E000000000000000000000000000000000000000000000000000000000000 PUSH1 0x20 DUP3 ADD MSTORE POP JUMP JUMPDEST PUSH1 0x0 PUSH2 0x3752 PUSH1 0x22 DUP4 PUSH2 0x28BC JUMP JUMPDEST SWAP2 POP PUSH2 0x375D DUP3 PUSH2 0x36F6 JUMP JUMPDEST PUSH1 0x40 DUP3 ADD SWAP1 POP SWAP2 SWAP1 POP JUMP JUMPDEST PUSH1 0x0 PUSH1 0x20 DUP3 ADD SWAP1 POP DUP2 DUP2 SUB PUSH1 0x0 DUP4 ADD MSTORE PUSH2 0x3781 DUP2 PUSH2 0x3745 JUMP JUMPDEST SWAP1 POP SWAP2 SWAP1 POP JUMP JUMPDEST PUSH32 0x566F74696E672068617320616C72656164792073746172746564000000000000 PUSH1 0x0 DUP3 ADD MSTORE POP JUMP JUMPDEST PUSH1 0x0 PUSH2 0x37BE PUSH1 0x1A DUP4 PUSH2 0x28BC JUMP JUMPDEST SWAP2 POP PUSH2 0x37C9 DUP3 PUSH2 0x3788 JUMP JUMPDEST PUSH1 0x20 DUP3 ADD SWAP1 POP SWAP2 SWAP1 POP JUMP JUMPDEST PUSH1 0x0 PUSH1 0x20 DUP3 ADD SWAP1 POP DUP2 DUP2 SUB PUSH1 0x0 DUP4 ADD MSTORE PUSH2 0x37ED DUP2 PUSH2 0x37B1 JUMP JUMPDEST SWAP1 POP SWAP2 SWAP1 POP JUMP JUMPDEST PUSH32 0x43616E646964617465206E616D652063616E6E6F7420626520656D7074790000 PUSH1 0x0 DUP3 ADD MSTORE POP JUMP JUMPDEST PUSH1 0x0 PUSH2 0x382A PUSH1 0x1E DUP4 PUSH2 0x28BC JUMP JUMPDEST SWAP2 POP PUSH2 0x3835 DUP3 PUSH2 0x37F4 JUMP JUMPDEST PUSH1 0x20 DUP3 ADD SWAP1 POP SWAP2 SWAP1 POP JUMP JUMPDEST PUSH1 0x0 PUSH1 0x20 DUP3 ADD SWAP1 POP DUP2 DUP2 SUB PUSH1 0x0 DUP4 ADD MSTORE PUSH2 0x3859 DUP2 PUSH2 0x381D JUMP JUMPDEST SWAP1 POP SWAP2 SWAP1 POP JUMP JUMPDEST PUSH32 0x53747564656E742049442063616E6E6F7420626520656D707479000000000000 PUSH1 0x0 DUP3 ADD MSTORE POP JUMP JUMPDEST PUSH1 0x0 PUSH2 0x3896 PUSH1 0x1A DUP4 PUSH2 0x28BC JUMP JUMPDEST SWAP2 POP PUSH2 0x38A1 DUP3 PUSH2 0x3860 JUMP JUMPDEST PUSH1 0x20 DUP3 ADD SWAP1 POP SWAP2 SWAP1 POP JUMP JUMPDEST PUSH1 0x0 PUSH1 0x20 DUP3 ADD SWAP1 POP DUP2 DUP2 SUB PUSH1 0x0 DUP4 ADD MSTORE PUSH2 0x38C5 DUP2 PUSH2 0x3889 JUMP JUMPDEST SWAP1 POP SWAP2 SWAP1 POP JUMP JUMPDEST PUSH1 0x0 DUP2 SWAP1 POP DUP2 PUSH1 0x0 MSTORE PUSH1 0x20 PUSH1 0x0 KECCAK256 SWAP1 POP SWAP2 SWAP1 POP JUMP JUMPDEST PUSH1 0x0 PUSH1 0x20 PUSH1 0x1F DUP4 ADD DIV SWAP1 POP SWAP2 SWAP1 POP JUMP JUMPDEST PUSH1 0x0 DUP3 DUP3 SHL SWAP1 POP SWAP3 SWAP2 POP POP JUMP JUMPDEST PUSH1 0x0 PUSH1 0x8 DUP4 MUL PUSH2 0x392E PUSH32 0xFFFFFFFFFFFFFFFFFFFFFFFFFFFFFFFFFFFFFFFFFFFFFFFFFFFFFFFFFFFFFFFF DUP3 PUSH2 0x38F1 JUMP JUMPDEST PUSH2 0x3938 DUP7 DUP4 PUSH2 0x38F1 JUMP JUMPDEST SWAP6 POP DUP1 NOT DUP5 AND SWAP4 POP DUP1 DUP7 AND DUP5 OR SWAP3 POP POP POP SWAP4 SWAP3 POP POP POP JUMP JUMPDEST PUSH1 0x0 DUP2 SWAP1 POP SWAP2 SWAP1 POP JUMP JUMPDEST PUSH1 0x0 PUSH2 0x3975 PUSH2 0x3970 PUSH2 0x396B DUP5 PUSH2 0x2B17 JUMP JUMPDEST PUSH2 0x3950 JUMP JUMPDEST PUSH2 0x2B17 JUMP JUMPDEST SWAP1 POP SWAP2 SWAP1 POP JUMP JUMPDEST PUSH1 0x0 DUP2 SWAP1 POP SWAP2 SWAP1 POP JUMP JUMPDEST PUSH2 0x398F DUP4 PUSH2 0x395A JUMP JUMPDEST PUSH2 0x39A3 PUSH2 0x399B DUP3 PUSH2 0x397C JUMP JUMPDEST DUP5 DUP5 SLOAD PUSH2 0x38FE JUMP JUMPDEST DUP3 SSTORE POP POP POP POP JUMP JUMPDEST PUSH1 0x0 SWAP1 JUMP JUMPDEST PUSH2 0x39B8 PUSH2 0x39AB JUMP JUMPDEST PUSH2 0x39C3 DUP2 DUP5 DUP5 PUSH2 0x3986 JUMP JUMPDEST POP POP POP JUMP JUMPDEST JUMPDEST DUP2 DUP2 LT ISZERO PUSH2 0x39E7 JUMPI PUSH2 0x39DC PUSH1 0x0 DUP3 PUSH2 0x39B0 JUMP JUMPDEST PUSH1 0x1 DUP2 ADD SWAP1 POP PUSH2 0x39C9 JUMP JUMPDEST POP POP JUMP JUMPDEST PUSH1 0x1F DUP3 GT ISZERO PUSH2 0x3A2C JUMPI PUSH2 0x39FD DUP2 PUSH2 0x38CC JUMP JUMPDEST PUSH2 0x3A06 DUP5 PUSH2 0x38E1 JUMP JUMPDEST DUP2 ADD PUSH1 0x20 DUP6 LT ISZERO PUSH2 0x3A15 JUMPI DUP2 SWAP1 POP JUMPDEST PUSH2 0x3A29 PUSH2 0x3A21 DUP6 PUSH2 0x38E1 JUMP JUMPDEST DUP4 ADD DUP3 PUSH2 0x39C8 JUMP JUMPDEST POP POP JUMPDEST POP POP POP JUMP JUMPDEST PUSH1 0x0 DUP3 DUP3 SHR SWAP1 POP SWAP3 SWAP2 POP POP JUMP JUMPDEST PUSH1 0x0 PUSH2 0x3A4F PUSH1 0x0 NOT DUP5 PUSH1 0x8 MUL PUSH2 0x3A31 JUMP JUMPDEST NOT DUP1 DUP4 AND SWAP2 POP POP SWAP3 SWAP2 POP POP JUMP JUMPDEST PUSH1 0x0 PUSH2 0x3A68 DUP4 DUP4 PUSH2 0x3A3E JUMP JUMPDEST SWAP2 POP DUP3 PUSH1 0x2 MUL DUP3 OR SWAP1 POP SWAP3 SWAP2 POP POP JUMP JUMPDEST PUSH2 0x3A81 DUP3 PUSH2 0x28B1 JUMP JUMPDEST PUSH8 0xFFFFFFFFFFFFFFFF DUP2 GT ISZERO PUSH2 0x3A9A JUMPI PUSH2 0x3A99 PUSH2 0x296D JUMP JUMPDEST JUMPDEST PUSH2 0x3AA4 DUP3 SLOAD PUSH2 0x31F7 JUMP JUMPDEST PUSH2 0x3AAF DUP3 DUP3 DUP6 PUSH2 0x39EB JUMP JUMPDEST PUSH1 0x0 PUSH1 0x20 SWAP1 POP PUSH1 0x1F DUP4 GT PUSH1 0x1 DUP2 EQ PUSH2 0x3AE2 JUMPI PUSH1 0x0 DUP5 ISZERO PUSH2 0x3AD0 JUMPI DUP3 DUP8 ADD MLOAD SWAP1 POP JUMPDEST PUSH2 0x3ADA DUP6 DUP3 PUSH2 0x3A5C JUMP JUMPDEST DUP7 SSTORE POP PUSH2 0x3B42 JUMP JUMPDEST PUSH1 0x1F NOT DUP5 AND PUSH2 0x3AF0 DUP7 PUSH2 0x38CC JUMP JUMPDEST PUSH1 0x0 JUMPDEST DUP3 DUP2 LT ISZERO PUSH2 0x3B18 JUMPI DUP5 DUP10 ADD MLOAD DUP3 SSTORE PUSH1 0x1 DUP3 ADD SWAP2 POP PUSH1 0x20 DUP6 ADD SWAP5 POP PUSH1 0x20 DUP2 ADD SWAP1 POP PUSH2 0x3AF3 JUMP JUMPDEST DUP7 DUP4 LT ISZERO PUSH2 0x3B35 JUMPI DUP5 DUP10 ADD MLOAD PUSH2 0x3B31 PUSH1 0x1F DUP10 AND DUP3 PUSH2 0x3A3E JUMP JUMPDEST DUP4 SSTORE POP JUMPDEST PUSH1 0x1 PUSH1 0x2 DUP9 MUL ADD DUP9 SSTORE POP POP POP JUMPDEST POP POP POP POP POP POP JUMP JUMPDEST PUSH1 0x0 PUSH1 0x60 DUP3 ADD SWAP1 POP PUSH2 0x3B5F PUSH1 0x0 DUP4 ADD DUP7 PUSH2 0x2B21 JUMP JUMPDEST DUP2 DUP2 SUB PUSH1 0x20 DUP4 ADD MSTORE PUSH2 0x3B71 DUP2 DUP6 PUSH2 0x2908 JUMP JUMPDEST SWAP1 POP DUP2 DUP2 SUB PUSH1 0x40 DUP4 ADD MSTORE PUSH2 0x3B85 DUP2 DUP5 PUSH2 0x2908 JUMP JUMPDEST SWAP1 POP SWAP5 SWAP4 POP POP POP POP JUMP JUMPDEST PUSH1 0x0 PUSH2 0x3B9A DUP3 PUSH2 0x2B17 JUMP JUMPDEST SWAP2 POP PUSH2 0x3BA5 DUP4 PUSH2 0x2B17 JUMP JUMPDEST SWAP3 POP DUP3 DUP3 SUB SWAP1 POP DUP2 DUP2 GT ISZERO PUSH2 0x3BBD JUMPI PUSH2 0x3BBC PUSH2 0x364F JUMP JUMPDEST JUMPDEST SWAP3 SWAP2 POP POP JUMP JUMPDEST PUSH32 0x4E487B7100000000000000000000000000000000000000000000000000000000 PUSH1 0x0 MSTORE PUSH1 0x32 PUSH1 0x4 MSTORE PUSH1 0x24 PUSH1 0x0 REVERT JUMPDEST PUSH32 0x53747564656E7420494420616C72656164792072656769737465726564000000 PUSH1 0x0 DUP3 ADD MSTORE POP JUMP JUMPDEST PUSH1 0x0 PUSH2 0x3C28 PUSH1 0x1D DUP4 PUSH2 0x28BC JUMP JUMPDEST SWAP2 POP PUSH2 0x3C33 DUP3 PUSH2 0x3BF2 JUMP JUMPDEST PUSH1 0x20 DUP3 ADD SWAP1 POP SWAP2 SWAP1 POP JUMP JUMPDEST PUSH1 0x0 PUSH1 0x20 DUP3 ADD SWAP1 POP DUP2 DUP2 SUB PUSH1 0x0 DUP4 ADD MSTORE PUSH2 0x3C57 DUP2 PUSH2 0x3C1B JUMP JUMPDEST SWAP1 POP SWAP2 SWAP1 POP JUMP JUMPDEST PUSH32 0x4164647265737320616C72656164792072656769737465726564000000000000 PUSH1 0x0 DUP3 ADD MSTORE POP JUMP JUMPDEST PUSH1 0x0 PUSH2 0x3C94 PUSH1 0x1A DUP4 PUSH2 0x28BC JUMP JUMPDEST SWAP2 POP PUSH2 0x3C9F DUP3 PUSH2 0x3C5E JUMP JUMPDEST PUSH1 0x20 DUP3 ADD SWAP1 POP SWAP2 SWAP1 POP JUMP JUMPDEST PUSH1 0x0 PUSH1 0x20 DUP3 ADD SWAP1 POP DUP2 DUP2 SUB PUSH1 0x0 DUP4 ADD MSTORE PUSH2 0x3CC3 DUP2 PUSH2 0x3C87 JUMP JUMPDEST SWAP1 POP SWAP2 SWAP1 POP JUMP JUMPDEST PUSH32 0x496E76616C69642073747564656E742049440000000000000000000000000000 PUSH1 0x0 DUP3 ADD MSTORE POP JUMP JUMPDEST PUSH1 0x0 PUSH2 0x3D00 PUSH1 0x12 DUP4 PUSH2 0x28BC JUMP JUMPDEST SWAP2 POP PUSH2 0x3D0B DUP3 PUSH2 0x3CCA JUMP JUMPDEST PUSH1 0x20 DUP3 ADD SWAP1 POP SWAP2 SWAP1 POP JUMP JUMPDEST PUSH1 0x0 PUSH1 0x20 DUP3 ADD SWAP1 POP DUP2 DUP2 SUB PUSH1 0x0 DUP4 ADD MSTORE PUSH2 0x3D2F DUP2 PUSH2 0x3CF3 JUMP JUMPDEST SWAP1 POP SWAP2 SWAP1 POP JUMP JUMPDEST PUSH1 0x0 PUSH1 0x40 DUP3 ADD SWAP1 POP DUP2 DUP2 SUB PUSH1 0x0 DUP4 ADD MSTORE PUSH2 0x3D50 DUP2 DUP6 PUSH2 0x2908 JUMP JUMPDEST SWAP1 POP PUSH2 0x3D5F PUSH1 0x20 DUP4 ADD DUP5 PUSH2 0x312F JUMP JUMPDEST SWAP4 SWAP3 POP POP POP JUMP JUMPDEST PUSH32 0x566F74696E67206861736E277420737461727465642079657400000000000000 PUSH1 0x0 DUP3 ADD MSTORE POP JUMP JUMPDEST PUSH1 0x0 PUSH2 0x3D9C PUSH1 0x19 DUP4 PUSH2 0x28BC JUMP JUMPDEST SWAP2 POP PUSH2 0x3DA7 DUP3 PUSH2 0x3D66 JUMP JUMPDEST PUSH1 0x20 DUP3 ADD SWAP1 POP SWAP2 SWAP1 POP JUMP JUMPDEST PUSH1 0x0 PUSH1 0x20 DUP3 ADD SWAP1 POP DUP2 DUP2 SUB PUSH1 0x0 DUP4 ADD MSTORE PUSH2 0x3DCB DUP2 PUSH2 0x3D8F JUMP JUMPDEST SWAP1 POP SWAP2 SWAP1 POP JUMP JUMPDEST PUSH32 0x566F74696E6720616C726561647920656E646564000000000000000000000000 PUSH1 0x0 DUP3 ADD MSTORE POP JUMP JUMPDEST PUSH1 0x0 PUSH2 0x3E08 PUSH1 0x14 DUP4 PUSH2 0x28BC JUMP JUMPDEST SWAP2 POP PUSH2 0x3E13 DUP3 PUSH2 0x3DD2 JUMP JUMPDEST PUSH1 0x20 DUP3 ADD SWAP1 POP SWAP2 SWAP1 POP JUMP JUMPDEST PUSH1 0x0 PUSH1 0x20 DUP3 ADD SWAP1 POP DUP2 DUP2 SUB PUSH1 0x0 DUP4 ADD MSTORE PUSH2 0x3E37 DUP2 PUSH2 0x3DFB JUMP JUMPDEST SWAP1 POP SWAP2 SWAP1 POP JUMP JUMPDEST PUSH32 0x4E6F2063616E6469646174657320726567697374657265640000000000000000 PUSH1 0x0 DUP3 ADD MSTORE POP JUMP JUMPDEST PUSH1 0x0 PUSH2 0x3E74 PUSH1 0x18 DUP4 PUSH2 0x28BC JUMP JUMPDEST SWAP2 POP PUSH2 0x3E7F DUP3 PUSH2 0x3E3E JUMP JUMPDEST PUSH1 0x20 DUP3 ADD SWAP1 POP SWAP2 SWAP1 POP JUMP JUMPDEST PUSH1 0x0 PUSH1 0x20 DUP3 ADD SWAP1 POP DUP2 DUP2 SUB PUSH1 0x0 DUP4 ADD MSTORE PUSH2 0x3EA3 DUP2 PUSH2 0x3E67 JUMP JUMPDEST SWAP1 POP SWAP2 SWAP1 POP JUMP JUMPDEST PUSH32 0x4E6F20766F746572732072656769737465726564000000000000000000000000 PUSH1 0x0 DUP3 ADD MSTORE POP JUMP JUMPDEST PUSH1 0x0 PUSH2 0x3EE0 PUSH1 0x14 DUP4 PUSH2 0x28BC JUMP JUMPDEST SWAP2 POP PUSH2 0x3EEB DUP3 PUSH2 0x3EAA JUMP JUMPDEST PUSH1 0x20 DUP3 ADD SWAP1 POP SWAP2 SWAP1 POP JUMP JUMPDEST PUSH1 0x0 PUSH1 0x20 DUP3 ADD SWAP1 POP DUP2 DUP2 SUB PUSH1 0x0 DUP4 ADD MSTORE PUSH2 0x3F0F DUP2 PUSH2 0x3ED3 JUMP JUMPDEST SWAP1 POP SWAP2 SWAP1 POP JUMP JUMPDEST PUSH32 0x496E76616C6964206475726174696F6E00000000000000000000000000000000 PUSH1 0x0 DUP3 ADD MSTORE POP JUMP JUMPDEST PUSH1 0x0 PUSH2 0x3F4C PUSH1 0x10 DUP4 PUSH2 0x28BC JUMP JUMPDEST SWAP2 POP PUSH2 0x3F57 DUP3 PUSH2 0x3F16 JUMP JUMPDEST PUSH1 0x20 DUP3 ADD SWAP1 POP SWAP2 SWAP1 POP JUMP JUMPDEST PUSH1 0x0 PUSH1 0x20 DUP3 ADD SWAP1 POP DUP2 DUP2 SUB PUSH1 0x0 DUP4 ADD MSTORE PUSH2 0x3F7B DUP2 PUSH2 0x3F3F JUMP JUMPDEST SWAP1 POP SWAP2 SWAP1 POP JUMP JUMPDEST PUSH1 0x0 PUSH2 0x3F8D DUP3 PUSH2 0x2B17 JUMP JUMPDEST SWAP2 POP PUSH2 0x3F98 DUP4 PUSH2 0x2B17 JUMP JUMPDEST SWAP3 POP DUP3 DUP3 MUL PUSH2 0x3FA6 DUP2 PUSH2 0x2B17 JUMP JUMPDEST SWAP2 POP DUP3 DUP3 DIV DUP5 EQ DUP4 ISZERO OR PUSH2 0x3FBD JUMPI PUSH2 0x3FBC PUSH2 0x364F JUMP JUMPDEST JUMPDEST POP SWAP3 SWAP2 POP POP JUMP JUMPDEST PUSH1 0x0 PUSH2 0x3FCF DUP3 PUSH2 0x2B17 JUMP JUMPDEST SWAP2 POP PUSH2 0x3FDA DUP4 PUSH2 0x2B17 JUMP JUMPDEST SWAP3 POP DUP3 DUP3 ADD SWAP1 POP DUP1 DUP3 GT ISZERO PUSH2 0x3FF2 JUMPI PUSH2 0x3FF1 PUSH2 0x364F JUMP JUMPDEST JUMPDEST SWAP3 SWAP2 POP POP JUMP JUMPDEST PUSH1 0x0 DUP2 SLOAD PUSH2 0x4005 DUP2 PUSH2 0x31F7 JUMP JUMPDEST PUSH2 0x400F DUP2 DUP7 PUSH2 0x28BC JUMP JUMPDEST SWAP5 POP PUSH1 0x1 DUP3 AND PUSH1 0x0 DUP2 EQ PUSH2 0x402A JUMPI PUSH1 0x1 DUP2 EQ PUSH2 0x4040 JUMPI PUSH2 0x4073 JUMP JUMPDEST PUSH1 0xFF NOT DUP4 AND DUP7 MSTORE DUP2 ISZERO ISZERO PUSH1 0x20 MUL DUP7 ADD SWAP4 POP PUSH2 0x4073 JUMP JUMPDEST PUSH2 0x4049 DUP6 PUSH2 0x38CC JUMP JUMPDEST PUSH1 0x0 JUMPDEST DUP4 DUP2 LT ISZERO PUSH2 0x406B JUMPI DUP2 SLOAD DUP2 DUP10 ADD MSTORE PUSH1 0x1 DUP3 ADD SWAP2 POP PUSH1 0x20 DUP2 ADD SWAP1 POP PUSH2 0x404C JUMP JUMPDEST DUP1 DUP9 ADD SWAP6 POP POP POP JUMPDEST POP POP POP SWAP3 SWAP2 POP POP JUMP JUMPDEST PUSH1 0x0 PUSH1 0x40 DUP3 ADD SWAP1 POP DUP2 DUP2 SUB PUSH1 0x0 DUP4 ADD MSTORE PUSH2 0x4096 DUP2 DUP6 PUSH2 0x3FF8 JUMP JUMPDEST SWAP1 POP PUSH2 0x40A5 PUSH1 0x20 DUP4 ADD DUP5 PUSH2 0x2B21 JUMP JUMPDEST SWAP4 SWAP3 POP POP POP JUMP JUMPDEST PUSH32 0x496E76616C69642061646D696E20616464726573730000000000000000000000 PUSH1 0x0 DUP3 ADD MSTORE POP JUMP JUMPDEST PUSH1 0x0 PUSH2 0x40E2 PUSH1 0x15 DUP4 PUSH2 0x28BC JUMP JUMPDEST SWAP2 POP PUSH2 0x40ED DUP3 PUSH2 0x40AC JUMP JUMPDEST PUSH1 0x20 DUP3 ADD SWAP1 POP SWAP2 SWAP1 POP JUMP JUMPDEST PUSH1 0x0 PUSH1 0x20 DUP3 ADD SWAP1 POP DUP2 DUP2 SUB PUSH1 0x0 DUP4 ADD MSTORE PUSH2 0x4111 DUP2 PUSH2 0x40D5 JUMP JUMPDEST SWAP1 POP SWAP2 SWAP1 POP JUMP JUMPDEST PUSH32 0x566F74696E67207374696C6C20696E2070726F67726573730000000000000000 PUSH1 0x0 DUP3 ADD MSTORE POP JUMP JUMPDEST PUSH1 0x0 PUSH2 0x414E PUSH1 0x18 DUP4 PUSH2 0x28BC JUMP JUMPDEST SWAP2 POP PUSH2 0x4159 DUP3 PUSH2 0x4118 JUMP JUMPDEST PUSH1 0x20 DUP3 ADD SWAP1 POP SWAP2 SWAP1 POP JUMP JUMPDEST PUSH1 0x0 PUSH1 0x20 DUP3 ADD SWAP1 POP DUP2 DUP2 SUB PUSH1 0x0 DUP4 ADD MSTORE PUSH2 0x417D DUP2 PUSH2 0x4141 JUMP JUMPDEST SWAP1 POP SWAP2 SWAP1 POP JUMP JUMPDEST PUSH32 0x4E6F20766F746573206361737400000000000000000000000000000000000000 PUSH1 0x0 DUP3 ADD MSTORE POP JUMP JUMPDEST PUSH1 0x0 PUSH2 0x41BA PUSH1 0xD DUP4 PUSH2 0x28BC JUMP JUMPDEST SWAP2 POP PUSH2 0x41C5 DUP3 PUSH2 0x4184 JUMP JUMPDEST PUSH1 0x20 DUP3 ADD SWAP1 POP SWAP2 SWAP1 POP JUMP JUMPDEST PUSH1 0x0 PUSH1 0x20 DUP3 ADD SWAP1 POP DUP2 DUP2 SUB PUSH1 0x0 DUP4 ADD MSTORE PUSH2 0x41E9 DUP2 PUSH2 0x41AD JUMP JUMPDEST SWAP1 POP SWAP2 SWAP1 POP JUMP INVALID LOG2 PUSH5 0x6970667358 0x22 SLT KECCAK256 SWAP15 0x2C MULMOD MOD CALL DUP8 SGT 0xEE 0x1E 0xE4 JUMPI DUP2 0xAB PUSH28 0xBF92310D858C563B2CB982210877A8CA414064736F6C634300081300 CALLER GASLIMIT PUSH13 0x656374696F6E20666F72205374 PUSH22 0x64656E7420556E696F6E20507265736964656E742061 PUSH21 0x204665646572616C20556E6976657273697479204C PUSH16 0x6B6F6A6153747564656E7420556E696F PUSH15 0x2045786563757469766520456C6563 PUSH21 0x696F6E732032303234000000000000000000000000 "},"methodIdentifiers":{"addCandidate(string,string)":"26541b56","admin()":"f851a440","canVote(string)":"91ca78d1","candidateCount()":"a9a981a3","candidates(uint256)":"3477ee2e","currentElection()":"fcae83a7","emergencyStop()":"63a599a4","endElection()":"59f78468","getAllCandidates()":"2e6997fe","getCandidate(uint256)":"35b8e820","getElectionInfo()":"86852dca","getElectionStats()":"906ad2a9","getTimeRemaining()":"dac6270d","getVoter(string)":"14a0069a","getWinner()":"8e7ea5b2","registerVoter(string,address)":"4a075de2","registeredStudentIds(string)":"0484aca1","resetElection()":"e8f30523","startElection(uint256)":"6d32dc4b","totalVotes()":"0d15fd77","transferAdmin(address)":"75829def","vote(uint256,string)":"24108475","voterAddresses(address)":"03727283","voterCount()":"42169e48","voters(string)":"53fa2e64","votingEnded()":"9d5a0529","votingStarted()":"83d948b7"}}}}}