{
  "_format": "hh-sol-artifact-1",
  "contractName": "FULVotingSystem",
  "sourceName": "contracts/FULVotingSystem.sol",
  "abi": [
    {
      "inputs": [],
      "stateMutability": "nonpayable",
      "type": "constructor"
    },
    {
      "anonymous": false,
      "inputs": [
        {
          "indexed": false,
          "internalType": "uint256",
          "name": "candidateId",
          "type": "uint256"
        },
        {
          "indexed": false,
          "internalType": "string",
          "name": "name",
          "type": "string"
        },
        {
          "indexed": false,
          "internalType": "string",
          "name": "studentId",
          "type": "string"
        }
      ],
      "name": "CandidateAdded",
      "type": "event"
    },
    {
      "anonymous": false,
      "inputs": [
        {
          "indexed": false,
          "internalType": "uint256",
          "name": "endTime",
          "type": "uint256"
        }
      ],
      "name": "ElectionEnded",
      "type": "event"
    },
    {
      "anonymous": false,
      "inputs": [],
      "name": "ElectionReset",
      "type": "event"
    },
    {
      "anonymous": false,
      "inputs": [
        {
          "indexed": false,
          "internalType": "string",
          "name": "title",
          "type": "string"
        },
        {
          "indexed": false,
          "internalType": "uint256",
          "name": "startTime",
          "type": "uint256"
        }
      ],
      "name": "ElectionStarted",
      "type": "event"
    },
    {
      "anonymous": false,
      "inputs": [
        {
          "indexed": false,
          "internalType": "string",
          "name": "voterStudentId",
          "type": "string"
        },
        {
          "indexed": false,
          "internalType": "uint256",
          "name": "candidateId",
          "type": "uint256"
        }
      ],
      "name": "VoteCast",
      "type": "event"
    },
    {
      "anonymous": false,
      "inputs": [
        {
          "indexed": false,
          "internalType": "string",
          "name": "studentId",
          "type": "string"
        },
        {
          "indexed": false,
          "internalType": "address",
          "name": "voterAddress",
          "type": "address"
        }
      ],
      "name": "VoterRegistered",
      "type": "event"
    },
    {
      "inputs": [
        {
          "internalType": "string",
          "name": "name",
          "type": "string"
        },
        {
          "internalType": "string",
          "name": "studentId",
          "type": "string"
        }
      ],
      "name": "addCandidate",
      "outputs": [],
      "stateMutability": "nonpayable",
      "type": "function"
    },
    {
      "inputs": [],
      "name": "admin",
      "outputs": [
        {
          "internalType": "address",
          "name": "",
          "type": "address"
        }
      ],
      "stateMutability": "view",
      "type": "function"
    },
    {
      "inputs": [
        {
          "internalType": "string",
          "name": "studentId",
          "type": "string"
        }
      ],
      "name": "canVote",
      "outputs": [
        {
          "internalType": "bool",
          "name": "",
          "type": "bool"
        }
      ],
      "stateMutability": "view",
      "type": "function"
    },
    {
      "inputs": [],
      "name": "candidateCount",
      "outputs": [
        {
          "internalType": "uint256",
          "name": "",
          "type": "uint256"
        }
      ],
      "stateMutability": "view",
      "type": "function"
    },
    {
      "inputs": [
        {
          "internalType": "uint256",
          "name": "",
          "type": "uint256"
        }
      ],
      "name": "candidates",
      "outputs": [
        {
          "internalType": "uint256",
          "name": "id",
          "type": "uint256"
        },
        {
          "internalType": "string",
          "name": "name",
          "type": "string"
        },
        {
          "internalType": "string",
          "name": "studentId",
          "type": "string"
        },
        {
          "internalType": "uint256",
          "name": "voteCount",
          "type": "uint256"
        },
        {
          "internalType": "bool",
          "name": "exists",
          "type": "bool"
        }
      ],
      "stateMutability": "view",
      "type": "function"
    },
    {
      "inputs": [],
      "name": "currentElection",
      "outputs": [
        {
          "internalType": "string",
          "name": "title",
          "type": "string"
        },
        {
          "internalType": "string",
          "name": "description",
          "type": "string"
        },
        {
          "internalType": "uint256",
          "name": "startTime",
          "type": "uint256"
        },
        {
          "internalType": "uint256",
          "name": "endTime",
          "type": "uint256"
        },
        {
          "internalType": "bool",
          "name": "isActive",
          "type": "bool"
        },
        {
          "internalType": "bool",
          "name": "exists",
          "type": "bool"
        }
      ],
      "stateMutability": "view",
      "type": "function"
    },
    {
      "inputs": [],
      "name": "emergencyStop",
      "outputs": [],
      "stateMutability": "nonpayable",
      "type": "function"
    },
    {
      "inputs": [],
      "name": "endElection",
      "outputs": [],
      "stateMutability": "nonpayable",
      "type": "function"
    },
    {
      "inputs": [],
      "name": "getAllCandidates",
      "outputs": [
        {
          "internalType": "uint256[]",
          "name": "",
          "type": "uint256[]"
        },
        {
          "internalType": "string[]",
          "name": "",
          "type": "string[]"
        },
        {
          "internalType": "string[]",
          "name": "",
          "type": "string[]"
        },
        {
          "internalType": "uint256[]",
          "name": "",
          "type": "uint256[]"
        }
      ],
      "stateMutability": "view",
      "type": "function"
    },
    {
      "inputs": [
        {
          "internalType": "uint256",
          "name": "candidateId",
          "type": "uint256"
        }
      ],
      "name": "getCandidate",
      "outputs": [
        {
          "internalType": "uint256",
          "name": "",
          "type": "uint256"
        },
        {
          "internalType": "string",
          "name": "",
          "type": "string"
        },
        {
          "internalType": "string",
          "name": "",
          "type": "string"
        },
        {
          "internalType": "uint256",
          "name": "",
          "type": "uint256"
        }
      ],
      "stateMutability": "view",
      "type": "function"
    },
    {
      "inputs": [],
      "name": "getElectionInfo",
      "outputs": [
        {
          "internalType": "string",
          "name": "",
          "type": "string"
        },
        {
          "internalType": "string",
          "name": "",
          "type": "string"
        },
        {
          "internalType": "uint256",
          "name": "",
          "type": "uint256"
        },
        {
          "internalType": "uint256",
          "name": "",
          "type": "uint256"
        },
        {
          "internalType": "bool",
          "name": "",
          "type": "bool"
        }
      ],
      "stateMutability": "view",
      "type": "function"
    },
    {
      "inputs": [],
      "name": "getElectionStats",
      "outputs": [
        {
          "internalType": "uint256",
          "name": "",
          "type": "uint256"
        },
        {
          "internalType": "uint256",
          "name": "",
          "type": "uint256"
        },
        {
          "internalType": "uint256",
          "name": "",
          "type": "uint256"
        },
        {
          "internalType": "bool",
          "name": "",
          "type": "bool"
        },
        {
          "internalType": "bool",
          "name": "",
          "type": "bool"
        }
      ],
      "stateMutability": "view",
      "type": "function"
    },
    {
      "inputs": [],
      "name": "getTimeRemaining",
      "outputs": [
        {
          "internalType": "uint256",
          "name": "",
          "type": "uint256"
        }
      ],
      "stateMutability": "view",
      "type": "function"
    },
    {
      "inputs": [
        {
          "internalType": "string",
          "name": "studentId",
          "type": "string"
        }
      ],
      "name": "getVoter",
      "outputs": [
        {
          "internalType": "string",
          "name": "",
          "type": "string"
        },
        {
          "internalType": "bool",
          "name": "",
          "type": "bool"
        },
        {
          "internalType": "uint256",
          "name": "",
          "type": "uint256"
        }
      ],
      "stateMutability": "view",
      "type": "function"
    },
    {
      "inputs": [],
      "name": "getWinner",
      "outputs": [
        {
          "internalType": "uint256",
          "name": "",
          "type": "uint256"
        },
        {
          "internalType": "string",
          "name": "",
          "type": "string"
        },
        {
          "internalType": "uint256",
          "name": "",
          "type": "uint256"
        }
      ],
      "stateMutability": "view",
      "type": "function"
    },
    {
      "inputs": [
        {
          "internalType": "string",
          "name": "studentId",
          "type": "string"
        },
        {
          "internalType": "address",
          "name": "voterAddress",
          "type": "address"
        }
      ],
      "name": "registerVoter",
      "outputs": [],
      "stateMutability": "nonpayable",
      "type": "function"
    },
    {
      "inputs": [
        {
          "internalType": "string",
          "name": "",
          "type": "string"
        }
      ],
      "name": "registeredStudentIds",
      "outputs": [
        {
          "internalType": "bool",
          "name": "",
          "type": "bool"
        }
      ],
      "stateMutability": "view",
      "type": "function"
    },
    {
      "inputs": [],
      "name": "resetElection",
      "outputs": [],
      "stateMutability": "nonpayable",
      "type": "function"
    },
    {
      "inputs": [
        {
          "internalType": "uint256",
          "name": "durationInMinutes",
          "type": "uint256"
        }
      ],
      "name": "startElection",
      "outputs": [],
      "stateMutability": "nonpayable",
      "type": "function"
    },
    {
      "inputs": [],
      "name": "totalVotes",
      "outputs": [
        {
          "internalType": "uint256",
          "name": "",
          "type": "uint256"
        }
      ],
      "stateMutability": "view",
      "type": "function"
    },
    {
      "inputs": [
        {
          "internalType": "address",
          "name": "newAdmin",
          "type": "address"
        }
      ],
      "name": "transferAdmin",
      "outputs": [],
      "stateMutability": "nonpayable",
      "type": "function"
    },
    {
      "inputs": [
        {
          "internalType": "uint256",
          "name": "candidateId",
          "type": "uint256"
        },
        {
          "internalType": "string",
          "name": "voterStudentId",
          "type": "string"
        }
      ],
      "name": "vote",
      "outputs": [],
      "stateMutability": "nonpayable",
      "type": "function"
    },
    {
      "inputs": [
        {
          "internalType": "address",
          "name": "",
          "type": "address"
        }
      ],
      "name": "voterAddresses",
      "outputs": [
        {
          "internalType": "string",
          "name": "",
          "type": "string"
        }
      ],
      "stateMutability": "view",
      "type": "function"
    },
    {
      "inputs": [],
      "name": "voterCount",
      "outputs": [
        {
          "internalType": "uint256",
          "name": "",
          "type": "uint256"
        }
      ],
      "stateMutability": "view",
      "type": "function"
    },
    {
      "inputs": [
        {
          "internalType": "string",
          "name": "",
          "type": "string"
        }
      ],
      "name": "voters",
      "outputs": [
        {
          "internalType": "string",
          "name": "studentId",
          "type": "string"
        },
        {
          "internalType": "bool",
          "name": "hasVoted",
          "type": "bool"
        },
        {
          "internalType": "bool",
          "name": "isRegistered",
          "type": "bool"
        },
        {
          "internalType": "uint256",
          "name": "votedCandidateId",
          "type": "uint256"
        }
      ],
      "stateMutability": "view",
      "type": "function"
    },
    {
      "inputs": [],
      "name": "votingEnded",
      "outputs": [
        {
          "internalType": "bool",
          "name": "",
          "type": "bool"
        }
      ],
      "stateMutability": "view",
      "type": "function"
    },
    {
      "inputs": [],
      "name": "votingStarted",
      "outputs": [
        {
          "internalType": "bool",
          "name": "",
          "type": "bool"
        }
      ],
      "stateMutability": "view",
      "type": "function"
    }
  ],
  "bytecode": "0x60806040523480156200001157600080fd5b50336000806101000a81548173ffffffffffffffffffffffffffffffffffffffff021916908373ffffffffffffffffffffffffffffffffffffffff1602179055506000600181905550600060028190555060006003819055506000600460006101000a81548160ff0219169083151502179055506000600460016101000a81548160ff0219169083151502179055506040518060c001604052806040518060600160405280602681526020016200476e6026913981526020016040518060800160405280604181526020016200472d6041913981526020016000815260200160008152602001600015158152602001600115158152506009600082015181600001908162000120919062000410565b50602082015181600101908162000138919062000410565b50604082015181600201556060820151816003015560808201518160040160006101000a81548160ff02191690831515021790555060a08201518160040160016101000a81548160ff021916908315150217905550905050620004f7565b600081519050919050565b7f4e487b7100000000000000000000000000000000000000000000000000000000600052604160045260246000fd5b7f4e487b7100000000000000000000000000000000000000000000000000000000600052602260045260246000fd5b600060028204905060018216806200021857607f821691505b6020821081036200022e576200022d620001d0565b5b50919050565b60008190508160005260206000209050919050565b60006020601f8301049050919050565b600082821b905092915050565b600060088302620002987fffffffffffffffffffffffffffffffffffffffffffffffffffffffffffffffff8262000259565b620002a4868362000259565b95508019841693508086168417925050509392505050565b6000819050919050565b6000819050919050565b6000620002f1620002eb620002e584620002bc565b620002c6565b620002bc565b9050919050565b6000819050919050565b6200030d83620002d0565b620003256200031c82620002f8565b84845462000266565b825550505050565b600090565b6200033c6200032d565b6200034981848462000302565b505050565b5b8181101562000371576200036560008262000332565b6001810190506200034f565b5050565b601f821115620003c0576200038a8162000234565b620003958462000249565b81016020851015620003a5578190505b620003bd620003b48562000249565b8301826200034e565b50505b505050565b600082821c905092915050565b6000620003e560001984600802620003c5565b1980831691505092915050565b6000620004008383620003d2565b9150826002028217905092915050565b6200041b8262000196565b67ffffffffffffffff811115620004375762000436620001a1565b5b620004438254620001ff565b6200045082828562000375565b600060209050601f83116001811462000488576000841562000473578287015190505b6200047f8582620003f2565b865550620004ef565b601f198416620004988662000234565b60005b82811015620004c2578489015182556001820191506020850194506020810190506200049b565b86831015620004e25784890151620004de601f891682620003d2565b8355505b6001600288020188555050505b505050505050565b61422680620005076000396000f3fe608060405234801561001057600080fd5b50600436106101a95760003560e01c806363a599a4116100f957806391ca78d111610097578063dac6270d11610071578063dac6270d146104c5578063e8f30523146104e3578063f851a440146104ed578063fcae83a71461050b576101a9565b806391ca78d1146104595780639d5a052914610489578063a9a981a3146104a7576101a9565b806383d948b7116100d357806383d948b7146103d757806386852dca146103f55780638e7ea5b214610417578063906ad2a914610437576101a9565b806363a599a4146103955780636d32dc4b1461039f57806375829def146103bb576101a9565b80632e6997fe1161016657806342169e481161014057806342169e481461031e5780634a075de21461033c57806353fa2e641461035857806359f784681461038b576101a9565b80632e6997fe146102965780633477ee2e146102b757806335b8e820146102eb576101a9565b806303727283146101ae5780630484aca1146101de5780630d15fd771461020e57806314a0069a1461022c578063241084751461025e57806326541b561461027a575b600080fd5b6101c860048036038101906101c39190612884565b61052e565b6040516101d59190612941565b60405180910390f35b6101f860048036038101906101f39190612a98565b6105ce565b6040516102059190612afc565b60405180910390f35b610216610604565b6040516102239190612b30565b60405180910390f35b61024660048036038101906102419190612a98565b61060a565b60405161025593929190612b4b565b60405180910390f35b61027860048036038101906102739190612bb5565b610799565b005b610294600480360381019061028f9190612c11565b610b6a565b005b61029e610dce565b6040516102ae9493929190612e53565b60405180910390f35b6102d160048036038101906102cc9190612eb4565b611194565b6040516102e2959493929190612ee1565b60405180910390f35b61030560048036038101906103009190612eb4565b6112e7565b6040516103159493929190612f42565b60405180910390f35b6103266114ea565b6040516103339190612b30565b60405180910390f35b61035660048036038101906103519190612f95565b6114f0565b005b610372600480360381019061036d9190612a98565b61188e565b6040516103829493929190612ff1565b60405180910390f35b610393611976565b005b61039d611b1f565b005b6103b960048036038101906103b49190612eb4565b611be8565b005b6103d560048036038101906103d09190612884565b611e57565b005b6103df611f97565b6040516103ec9190612afc565b60405180910390f35b6103fd611faa565b60405161040e95949392919061303d565b60405180910390f35b61041f612104565b60405161042e9392919061309e565b60405180910390f35b61043f612307565b6040516104509594939291906130dc565b60405180910390f35b610473600480360381019061046e9190612a98565b612349565b6040516104809190612afc565b60405180910390f35b61049161240c565b60405161049e9190612afc565b60405180910390f35b6104af61241f565b6040516104bc9190612b30565b60405180910390f35b6104cd612425565b6040516104da9190612b30565b60405180910390f35b6104eb612489565b005b6104f561263d565b604051610502919061313e565b60405180910390f35b610513612661565b60405161052596959493929190613159565b60405180910390f35b6007602052806000526040600020600091509050805461054d906131f7565b80601f0160208091040260200160405190810160405280929190818152602001828054610579906131f7565b80156105c65780601f1061059b576101008083540402835291602001916105c6565b820191906000526020600020905b8154815290600101906020018083116105a957829003601f168201915b505050505081565b6008818051602081018201805184825260208301602085012081835280955050505050506000915054906101000a900460ff1681565b60035481565b606060008060068460405161061f9190613264565b908152602001604051809103902060010160019054906101000a900460ff1661067d576040517f08c379a0000000000000000000000000000000000000000000000000000000008152600401610674906132c7565b60405180910390fd5b600060068560405161068f9190613264565b90815260200160405180910390206040518060800160405290816000820180546106b8906131f7565b80601f01602080910402602001604051908101604052809291908181526020018280546106e4906131f7565b80156107315780601f1061070657610100808354040283529160200191610731565b820191906000526020600020905b81548152906001019060200180831161071457829003601f168201915b505050505081526020016001820160009054906101000a900460ff161515151581526020016001820160019054906101000a900460ff161515151581526020016002820154815250509050806000015181602001518260600151935093509350509193909250565b600460009054906101000a900460ff1680156107c25750600460019054906101000a900460ff16155b610801576040517f08c379a00000000000000000000000000000000000000000000000000000000081526004016107f890613333565b60405180910390fd5b600960020154421015801561081b57506009600301544211155b61085a576040517f08c379a00000000000000000000000000000000000000000000000000000000081526004016108519061339f565b60405180910390fd5b8060068160405161086b9190613264565b908152602001604051809103902060010160019054906101000a900460ff166108c9576040517f08c379a00000000000000000000000000000000000000000000000000000000081526004016108c0906132c7565b60405180910390fd5b6006816040516108d99190613264565b908152602001604051809103902060010160009054906101000a900460ff1615610938576040517f08c379a000000000000000000000000000000000000000000000000000000000815260040161092f9061340b565b60405180910390fd5b8080519060200120600760003373ffffffffffffffffffffffffffffffffffffffff1673ffffffffffffffffffffffffffffffffffffffff16815260200190815260200160002060405161098c91906134ce565b6040518091039020146109d4576040517f08c379a00000000000000000000000000000000000000000000000000000000081526004016109cb90613557565b60405180910390fd5b6005600084815260200190815260200160002060040160009054906101000a900460ff16610a37576040517f08c379a0000000000000000000000000000000000000000000000000000000008152600401610a2e906135c3565b60405180910390fd5b6001548311158015610a495750600083115b610a88576040517f08c379a0000000000000000000000000000000000000000000000000000000008152600401610a7f9061362f565b60405180910390fd5b6001600683604051610a9a9190613264565b908152602001604051809103902060010160006101000a81548160ff02191690831515021790555082600683604051610ad39190613264565b908152602001604051809103902060020181905550600560008481526020019081526020016000206003016000815480929190610b0f9061367e565b919050555060036000815480929190610b279061367e565b91905055507f777e12406713e556f995ae7467576ea751d01f243ff84668ef43b36634f3fa888284604051610b5d9291906136c6565b60405180910390a1505050565b60008054906101000a900473ffffffffffffffffffffffffffffffffffffffff1673ffffffffffffffffffffffffffffffffffffffff163373ffffffffffffffffffffffffffffffffffffffff1614610bf8576040517f08c379a0000000000000000000000000000000000000000000000000000000008152600401610bef90613768565b60405180910390fd5b600460009054906101000a900460ff1615610c48576040517f08c379a0000000000000000000000000000000000000000000000000000000008152600401610c3f906137d4565b60405180910390fd5b6000825111610c8c576040517f08c379a0000000000000000000000000000000000000000000000000000000008152600401610c8390613840565b60405180910390fd5b6000815111610cd0576040517f08c379a0000000000000000000000000000000000000000000000000000000008152600401610cc7906138ac565b60405180910390fd5b60016000815480929190610ce39061367e565b91905055506040518060a0016040528060015481526020018381526020018281526020016000815260200160011515815250600560006001548152602001908152602001600020600082015181600001556020820151816001019081610d499190613a78565b506040820151816002019081610d5f9190613a78565b506060820151816003015560808201518160040160006101000a81548160ff0219169083151502179055509050507fe64f834082661dd9ed89427b87edb6270fd6dad17198b0938f0edd058914c87f6001548383604051610dc293929190613b4a565b60405180910390a15050565b606080606080600060015467ffffffffffffffff811115610df257610df161296d565b5b604051908082528060200260200182016040528015610e205781602001602082028036833780820191505090505b509050600060015467ffffffffffffffff811115610e4157610e4061296d565b5b604051908082528060200260200182016040528015610e7457816020015b6060815260200190600190039081610e5f5790505b509050600060015467ffffffffffffffff811115610e9557610e9461296d565b5b604051908082528060200260200182016040528015610ec857816020015b6060815260200190600190039081610eb35790505b509050600060015467ffffffffffffffff811115610ee957610ee861296d565b5b604051908082528060200260200182016040528015610f175781602001602082028036833780820191505090505b5090506000600190505b600154811161117d576005600082815260200190815260200160002060040160009054906101000a900460ff161561116a57600560008281526020019081526020016000206000015485600183610f789190613b8f565b81518110610f8957610f88613bc3565b5b602002602001018181525050600560008281526020019081526020016000206001018054610fb6906131f7565b80601f0160208091040260200160405190810160405280929190818152602001828054610fe2906131f7565b801561102f5780601f106110045761010080835404028352916020019161102f565b820191906000526020600020905b81548152906001019060200180831161101257829003601f168201915b5050505050846001836110429190613b8f565b8151811061105357611052613bc3565b5b602002602001018190525060056000828152602001908152602001600020600201805461107f906131f7565b80601f01602080910402602001604051908101604052809291908181526020018280546110ab906131f7565b80156110f85780601f106110cd576101008083540402835291602001916110f8565b820191906000526020600020905b8154815290600101906020018083116110db57829003601f168201915b50505050508360018361110b9190613b8f565b8151811061111c5761111b613bc3565b5b602002602001018190525060056000828152602001908152602001600020600301548260018361114c9190613b8f565b8151811061115d5761115c613bc3565b5b6020026020010181815250505b80806111759061367e565b915050610f21565b508383838397509750975097505050505090919293565b60056020528060005260406000206000915090508060000154908060010180546111bd906131f7565b80601f01602080910402602001604051908101604052809291908181526020018280546111e9906131f7565b80156112365780601f1061120b57610100808354040283529160200191611236565b820191906000526020600020905b81548152906001019060200180831161121957829003601f168201915b50505050509080600201805461124b906131f7565b80601f0160208091040260200160405190810160405280929190818152602001828054611277906131f7565b80156112c45780601f10611299576101008083540402835291602001916112c4565b820191906000526020600020905b8154815290600101906020018083116112a757829003601f168201915b5050505050908060030154908060040160009054906101000a900460ff16905085565b600060608060006005600086815260200190815260200160002060040160009054906101000a900460ff16611351576040517f08c379a00000000000000000000000000000000000000000000000000000000081526004016113489061362f565b60405180910390fd5b6000600560008781526020019081526020016000206040518060a00160405290816000820154815260200160018201805461138b906131f7565b80601f01602080910402602001604051908101604052809291908181526020018280546113b7906131f7565b80156114045780601f106113d957610100808354040283529160200191611404565b820191906000526020600020905b8154815290600101906020018083116113e757829003601f168201915b5050505050815260200160028201805461141d906131f7565b80601f0160208091040260200160405190810160405280929190818152602001828054611449906131f7565b80156114965780601f1061146b57610100808354040283529160200191611496565b820191906000526020600020905b81548152906001019060200180831161147957829003601f168201915b50505050508152602001600382015481526020016004820160009054906101000a900460ff161515151581525050905080600001518160200151826040015183606001519450945094509450509193509193565b60025481565b60008054906101000a900473ffffffffffffffffffffffffffffffffffffffff1673ffffffffffffffffffffffffffffffffffffffff163373ffffffffffffffffffffffffffffffffffffffff161461157e576040517f08c379a000000000000000000000000000000000000000000000000000000000815260040161157590613768565b60405180910390fd5b600460009054906101000a900460ff16156115ce576040517f08c379a00000000000000000000000000000000000000000000000000000000081526004016115c5906137d4565b60405180910390fd5b6008826040516115de9190613264565b908152602001604051809103902060009054906101000a900460ff161561163a576040517f08c379a000000000000000000000000000000000000000000000000000000000815260040161163190613c3e565b60405180910390fd5b6000600760008373ffffffffffffffffffffffffffffffffffffffff1673ffffffffffffffffffffffffffffffffffffffff1681526020019081526020016000208054611686906131f7565b9050146116c8576040517f08c379a00000000000000000000000000000000000000000000000000000000081526004016116bf90613caa565b60405180910390fd5b600082511161170c576040517f08c379a000000000000000000000000000000000000000000000000000000000815260040161170390613d16565b60405180910390fd5b604051806080016040528083815260200160001515815260200160011515815260200160008152506006836040516117449190613264565b908152602001604051809103902060008201518160000190816117679190613a78565b5060208201518160010160006101000a81548160ff02191690831515021790555060408201518160010160016101000a81548160ff0219169083151502179055506060820151816002015590505081600760008373ffffffffffffffffffffffffffffffffffffffff1673ffffffffffffffffffffffffffffffffffffffff16815260200190815260200160002090816118019190613a78565b5060016008836040516118149190613264565b908152602001604051809103902060006101000a81548160ff0219169083151502179055506002600081548092919061184c9061367e565b91905055507ffb56e28feaff07a8d23b3119a966e036ae7f64ff72a539debc67c6e8cd7872168282604051611882929190613d36565b60405180910390a15050565b6006818051602081018201805184825260208301602085012081835280955050505050506000915090508060000180546118c7906131f7565b80601f01602080910402602001604051908101604052809291908181526020018280546118f3906131f7565b80156119405780601f1061191557610100808354040283529160200191611940565b820191906000526020600020905b81548152906001019060200180831161192357829003601f168201915b5050505050908060010160009054906101000a900460ff16908060010160019054906101000a900460ff16908060020154905084565b60008054906101000a900473ffffffffffffffffffffffffffffffffffffffff1673ffffffffffffffffffffffffffffffffffffffff163373ffffffffffffffffffffffffffffffffffffffff1614611a04576040517f08c379a00000000000000000000000000000000000000000000000000000000081526004016119fb90613768565b60405180910390fd5b600460009054906101000a900460ff16611a53576040517f08c379a0000000000000000000000000000000000000000000000000000000008152600401611a4a90613db2565b60405180910390fd5b600460019054906101000a900460ff1615611aa3576040517f08c379a0000000000000000000000000000000000000000000000000000000008152600401611a9a90613e1e565b60405180910390fd5b6001600460016101000a81548160ff0219169083151502179055506000600960040160006101000a81548160ff021916908315150217905550426009600301819055507f562cd572b2ba3b666cd989fc4ca98419ec81e75f04528df9d9d76fdb7807ee7142604051611b159190612b30565b60405180910390a1565b60008054906101000a900473ffffffffffffffffffffffffffffffffffffffff1673ffffffffffffffffffffffffffffffffffffffff163373ffffffffffffffffffffffffffffffffffffffff1614611bad576040517f08c379a0000000000000000000000000000000000000000000000000000000008152600401611ba490613768565b60405180910390fd5b6001600460016101000a81548160ff0219169083151502179055506000600960040160006101000a81548160ff021916908315150217905550565b60008054906101000a900473ffffffffffffffffffffffffffffffffffffffff1673ffffffffffffffffffffffffffffffffffffffff163373ffffffffffffffffffffffffffffffffffffffff1614611c76576040517f08c379a0000000000000000000000000000000000000000000000000000000008152600401611c6d90613768565b60405180910390fd5b600460009054906101000a900460ff1615611cc6576040517f08c379a0000000000000000000000000000000000000000000000000000000008152600401611cbd906137d4565b60405180910390fd5b600060015411611d0b576040517f08c379a0000000000000000000000000000000000000000000000000000000008152600401611d0290613e8a565b60405180910390fd5b600060025411611d50576040517f08c379a0000000000000000000000000000000000000000000000000000000008152600401611d4790613ef6565b60405180910390fd5b60008111611d93576040517f08c379a0000000000000000000000000000000000000000000000000000000008152600401611d8a90613f62565b60405180910390fd5b42600960020181905550603c81611daa9190613f82565b42611db59190613fc4565b6009600301819055506001600960040160006101000a81548160ff0219169083151502179055506001600460006101000a81548160ff0219169083151502179055506000600460016101000a81548160ff0219169083151502179055507f627fedc2c091c67f445c74dafa73901e80b09b2f142b1fc11fe75960202b41fd6009600001600960020154604051611e4c92919061407c565b60405180910390a150565b60008054906101000a900473ffffffffffffffffffffffffffffffffffffffff1673ffffffffffffffffffffffffffffffffffffffff163373ffffffffffffffffffffffffffffffffffffffff1614611ee5576040517f08c379a0000000000000000000000000000000000000000000000000000000008152600401611edc90613768565b60405180910390fd5b600073ffffffffffffffffffffffffffffffffffffffff168173ffffffffffffffffffffffffffffffffffffffff1603611f54576040517f08c379a0000000000000000000000000000000000000000000000000000000008152600401611f4b906140f8565b60405180910390fd5b806000806101000a81548173ffffffffffffffffffffffffffffffffffffffff021916908373ffffffffffffffffffffffffffffffffffffffff16021790555050565b600460009054906101000a900460ff1681565b606080600080600060096000016009600101600960020154600960030154600960040160009054906101000a900460ff16848054611fe7906131f7565b80601f0160208091040260200160405190810160405280929190818152602001828054612013906131f7565b80156120605780601f1061203557610100808354040283529160200191612060565b820191906000526020600020905b81548152906001019060200180831161204357829003601f168201915b50505050509450838054612073906131f7565b80601f016020809104026020016040519081016040528092919081815260200182805461209f906131f7565b80156120ec5780601f106120c1576101008083540402835291602001916120ec565b820191906000526020600020905b8154815290600101906020018083116120cf57829003601f168201915b50505050509350945094509450945094509091929394565b600060606000600460019054906101000a900460ff1680612170575060008054906101000a900473ffffffffffffffffffffffffffffffffffffffff1673ffffffffffffffffffffffffffffffffffffffff163373ffffffffffffffffffffffffffffffffffffffff16145b6121af576040517f08c379a00000000000000000000000000000000000000000000000000000000081526004016121a690614164565b60405180910390fd5b6000600354116121f4576040517f08c379a00000000000000000000000000000000000000000000000000000000081526004016121eb906141d0565b60405180910390fd5b6000806000600190505b600154811161225557826005600083815260200190815260200160002060030154111561224257600560008281526020019081526020016000206003015492508091505b808061224d9061367e565b9150506121fe565b5080600560008381526020019081526020016000206001018381805461227a906131f7565b80601f01602080910402602001604051908101604052809291908181526020018280546122a6906131f7565b80156122f35780601f106122c8576101008083540402835291602001916122f3565b820191906000526020600020905b8154815290600101906020018083116122d657829003601f168201915b505050505091509450945094505050909192565b6000806000806000600154600254600354600460009054906101000a900460ff16600460019054906101000a900460ff16945094509450945094509091929394565b600060068260405161235b9190613264565b908152602001604051809103902060010160019054906101000a900460ff1680156123b257506006826040516123919190613264565b908152602001604051809103902060010160009054906101000a900460ff16155b80156123ca5750600460009054906101000a900460ff165b80156123e35750600460019054906101000a900460ff16155b80156123f457506009600201544210155b801561240557506009600301544211155b9050919050565b600460019054906101000a900460ff1681565b60015481565b6000600460009054906101000a900460ff16158061244f5750600460019054906101000a900460ff165b1561245d5760009050612486565b60096003015442106124725760009050612486565b426009600301546124839190613b8f565b90505b90565b60008054906101000a900473ffffffffffffffffffffffffffffffffffffffff1673ffffffffffffffffffffffffffffffffffffffff163373ffffffffffffffffffffffffffffffffffffffff1614612517576040517f08c379a000000000000000000000000000000000000000000000000000000000815260040161250e90613768565b60405180910390fd5b6000600190505b6001548111612594576005600082815260200190815260200160002060008082016000905560018201600061255391906127b5565b60028201600061256391906127b5565b60038201600090556004820160006101000a81549060ff02191690555050808061258c9061367e565b91505061251e565b506000600460006101000a81548160ff0219169083151502179055506000600460016101000a81548160ff02191690831515021790555060006001819055506000600381905550600060096002018190555060006009600301819055506000600960040160006101000a81548160ff0219169083151502179055507f8d1085cd9eceaab0b77fd20c66dea55df08e5ef2d52859c2cb4a1e16ba9476c060405160405180910390a1565b60008054906101000a900473ffffffffffffffffffffffffffffffffffffffff1681565b6009806000018054612672906131f7565b80601f016020809104026020016040519081016040528092919081815260200182805461269e906131f7565b80156126eb5780601f106126c0576101008083540402835291602001916126eb565b820191906000526020600020905b8154815290600101906020018083116126ce57829003601f168201915b505050505090806001018054612700906131f7565b80601f016020809104026020016040519081016040528092919081815260200182805461272c906131f7565b80156127795780601f1061274e57610100808354040283529160200191612779565b820191906000526020600020905b81548152906001019060200180831161275c57829003601f168201915b5050505050908060020154908060030154908060040160009054906101000a900460ff16908060040160019054906101000a900460ff16905086565b5080546127c1906131f7565b6000825580601f106127d357506127f2565b601f0160209004906000526020600020908101906127f191906127f5565b5b50565b5b8082111561280e5760008160009055506001016127f6565b5090565b6000604051905090565b600080fd5b600080fd5b600073ffffffffffffffffffffffffffffffffffffffff82169050919050565b600061285182612826565b9050919050565b61286181612846565b811461286c57600080fd5b50565b60008135905061287e81612858565b92915050565b60006020828403121561289a5761289961281c565b5b60006128a88482850161286f565b91505092915050565b600081519050919050565b600082825260208201905092915050565b60005b838110156128eb5780820151818401526020810190506128d0565b60008484015250505050565b6000601f19601f8301169050919050565b6000612913826128b1565b61291d81856128bc565b935061292d8185602086016128cd565b612936816128f7565b840191505092915050565b6000602082019050818103600083015261295b8184612908565b905092915050565b600080fd5b600080fd5b7f4e487b7100000000000000000000000000000000000000000000000000000000600052604160045260246000fd5b6129a5826128f7565b810181811067ffffffffffffffff821117156129c4576129c361296d565b5b80604052505050565b60006129d7612812565b90506129e3828261299c565b919050565b600067ffffffffffffffff821115612a0357612a0261296d565b5b612a0c826128f7565b9050602081019050919050565b82818337600083830152505050565b6000612a3b612a36846129e8565b6129cd565b905082815260208101848484011115612a5757612a56612968565b5b612a62848285612a19565b509392505050565b600082601f830112612a7f57612a7e612963565b5b8135612a8f848260208601612a28565b91505092915050565b600060208284031215612aae57612aad61281c565b5b600082013567ffffffffffffffff811115612acc57612acb612821565b5b612ad884828501612a6a565b91505092915050565b60008115159050919050565b612af681612ae1565b82525050565b6000602082019050612b116000830184612aed565b92915050565b6000819050919050565b612b2a81612b17565b82525050565b6000602082019050612b456000830184612b21565b92915050565b60006060820190508181036000830152612b658186612908565b9050612b746020830185612aed565b612b816040830184612b21565b949350505050565b612b9281612b17565b8114612b9d57600080fd5b50565b600081359050612baf81612b89565b92915050565b60008060408385031215612bcc57612bcb61281c565b5b6000612bda85828601612ba0565b925050602083013567ffffffffffffffff811115612bfb57612bfa612821565b5b612c0785828601612a6a565b9150509250929050565b60008060408385031215612c2857612c2761281c565b5b600083013567ffffffffffffffff811115612c4657612c45612821565b5b612c5285828601612a6a565b925050602083013567ffffffffffffffff811115612c7357612c72612821565b5b612c7f85828601612a6a565b9150509250929050565b600081519050919050565b600082825260208201905092915050565b6000819050602082019050919050565b612cbe81612b17565b82525050565b6000612cd08383612cb5565b60208301905092915050565b6000602082019050919050565b6000612cf482612c89565b612cfe8185612c94565b9350612d0983612ca5565b8060005b83811015612d3a578151612d218882612cc4565b9750612d2c83612cdc565b925050600181019050612d0d565b5085935050505092915050565b600081519050919050565b600082825260208201905092915050565b6000819050602082019050919050565b600082825260208201905092915050565b6000612d8f826128b1565b612d998185612d73565b9350612da98185602086016128cd565b612db2816128f7565b840191505092915050565b6000612dc98383612d84565b905092915050565b6000602082019050919050565b6000612de982612d47565b612df38185612d52565b935083602082028501612e0585612d63565b8060005b85811015612e415784840389528151612e228582612dbd565b9450612e2d83612dd1565b925060208a01995050600181019050612e09565b50829750879550505050505092915050565b60006080820190508181036000830152612e6d8187612ce9565b90508181036020830152612e818186612dde565b90508181036040830152612e958185612dde565b90508181036060830152612ea98184612ce9565b905095945050505050565b600060208284031215612eca57612ec961281c565b5b6000612ed884828501612ba0565b91505092915050565b600060a082019050612ef66000830188612b21565b8181036020830152612f088187612908565b90508181036040830152612f1c8186612908565b9050612f2b6060830185612b21565b612f386080830184612aed565b9695505050505050565b6000608082019050612f576000830187612b21565b8181036020830152612f698186612908565b90508181036040830152612f7d8185612908565b9050612f8c6060830184612b21565b95945050505050565b60008060408385031215612fac57612fab61281c565b5b600083013567ffffffffffffffff811115612fca57612fc9612821565b5b612fd685828601612a6a565b9250506020612fe78582860161286f565b9150509250929050565b6000608082019050818103600083015261300b8187612908565b905061301a6020830186612aed565b6130276040830185612aed565b6130346060830184612b21565b95945050505050565b600060a08201905081810360008301526130578188612908565b9050818103602083015261306b8187612908565b905061307a6040830186612b21565b6130876060830185612b21565b6130946080830184612aed565b9695505050505050565b60006060820190506130b36000830186612b21565b81810360208301526130c58185612908565b90506130d46040830184612b21565b949350505050565b600060a0820190506130f16000830188612b21565b6130fe6020830187612b21565b61310b6040830186612b21565b6131186060830185612aed565b6131256080830184612aed565b9695505050505050565b61313881612846565b82525050565b6000602082019050613153600083018461312f565b92915050565b600060c08201905081810360008301526131738189612908565b905081810360208301526131878188612908565b90506131966040830187612b21565b6131a36060830186612b21565b6131b06080830185612aed565b6131bd60a0830184612aed565b979650505050505050565b7f4e487b7100000000000000000000000000000000000000000000000000000000600052602260045260246000fd5b6000600282049050600182168061320f57607f821691505b602082108103613222576132216131c8565b5b50919050565b600081905092915050565b600061323e826128b1565b6132488185613228565b93506132588185602086016128cd565b80840191505092915050565b60006132708284613233565b915081905092915050565b7f566f746572206e6f742072656769737465726564000000000000000000000000600082015250565b60006132b16014836128bc565b91506132bc8261327b565b602082019050919050565b600060208201905081810360008301526132e0816132a4565b9050919050565b7f566f74696e67206973206e6f7420616374697665000000000000000000000000600082015250565b600061331d6014836128bc565b9150613328826132e7565b602082019050919050565b6000602082019050818103600083015261334c81613310565b9050919050565b7f456c656374696f6e206e6f7420696e2070726f67726573730000000000000000600082015250565b60006133896018836128bc565b915061339482613353565b602082019050919050565b600060208201905081810360008301526133b88161337c565b9050919050565b7f566f7465722068617320616c726561647920766f746564000000000000000000600082015250565b60006133f56017836128bc565b9150613400826133bf565b602082019050919050565b60006020820190508181036000830152613424816133e8565b9050919050565b600081905092915050565b60008190508160005260206000209050919050565b60008154613458816131f7565b613462818661342b565b9450600182166000811461347d5760018114613492576134c5565b60ff19831686528115158202860193506134c5565b61349b85613436565b60005b838110156134bd5781548189015260018201915060208101905061349e565b838801955050505b50505092915050565b60006134da828461344b565b915081905092915050565b7f53656e646572206164647265737320646f65736e2774206d617463682072656760008201527f697374657265642073747564656e742049440000000000000000000000000000602082015250565b60006135416032836128bc565b915061354c826134e5565b604082019050919050565b6000602082019050818103600083015261357081613534565b9050919050565b7f496e76616c69642063616e646964617465000000000000000000000000000000600082015250565b60006135ad6011836128bc565b91506135b882613577565b602082019050919050565b600060208201905081810360008301526135dc816135a0565b9050919050565b7f43616e64696461746520646f6573206e6f742065786973740000000000000000600082015250565b60006136196018836128bc565b9150613624826135e3565b602082019050919050565b600060208201905081810360008301526136488161360c565b9050919050565b7f4e487b7100000000000000000000000000000000000000000000000000000000600052601160045260246000fd5b600061368982612b17565b91507fffffffffffffffffffffffffffffffffffffffffffffffffffffffffffffffff82036136bb576136ba61364f565b5b600182019050919050565b600060408201905081810360008301526136e08185612908565b90506136ef6020830184612b21565b9392505050565b7f4f6e6c792061646d696e2063616e20706572666f726d2074686973206163746960008201527f6f6e000000000000000000000000000000000000000000000000000000000000602082015250565b60006137526022836128bc565b915061375d826136f6565b604082019050919050565b6000602082019050818103600083015261378181613745565b9050919050565b7f566f74696e672068617320616c72656164792073746172746564000000000000600082015250565b60006137be601a836128bc565b91506137c982613788565b602082019050919050565b600060208201905081810360008301526137ed816137b1565b9050919050565b7f43616e646964617465206e616d652063616e6e6f7420626520656d7074790000600082015250565b600061382a601e836128bc565b9150613835826137f4565b602082019050919050565b600060208201905081810360008301526138598161381d565b9050919050565b7f53747564656e742049442063616e6e6f7420626520656d707479000000000000600082015250565b6000613896601a836128bc565b91506138a182613860565b602082019050919050565b600060208201905081810360008301526138c581613889565b9050919050565b60008190508160005260206000209050919050565b60006020601f8301049050919050565b600082821b905092915050565b60006008830261392e7fffffffffffffffffffffffffffffffffffffffffffffffffffffffffffffffff826138f1565b61393886836138f1565b95508019841693508086168417925050509392505050565b6000819050919050565b600061397561397061396b84612b17565b613950565b612b17565b9050919050565b6000819050919050565b61398f8361395a565b6139a361399b8261397c565b8484546138fe565b825550505050565b600090565b6139b86139ab565b6139c3818484613986565b505050565b5b818110156139e7576139dc6000826139b0565b6001810190506139c9565b5050565b601f821115613a2c576139fd816138cc565b613a06846138e1565b81016020851015613a15578190505b613a29613a21856138e1565b8301826139c8565b50505b505050565b600082821c905092915050565b6000613a4f60001984600802613a31565b1980831691505092915050565b6000613a688383613a3e565b9150826002028217905092915050565b613a81826128b1565b67ffffffffffffffff811115613a9a57613a9961296d565b5b613aa482546131f7565b613aaf8282856139eb565b600060209050601f831160018114613ae25760008415613ad0578287015190505b613ada8582613a5c565b865550613b42565b601f198416613af0866138cc565b60005b82811015613b1857848901518255600182019150602085019450602081019050613af3565b86831015613b355784890151613b31601f891682613a3e565b8355505b6001600288020188555050505b505050505050565b6000606082019050613b5f6000830186612b21565b8181036020830152613b718185612908565b90508181036040830152613b858184612908565b9050949350505050565b6000613b9a82612b17565b9150613ba583612b17565b9250828203905081811115613bbd57613bbc61364f565b5b92915050565b7f4e487b7100000000000000000000000000000000000000000000000000000000600052603260045260246000fd5b7f53747564656e7420494420616c72656164792072656769737465726564000000600082015250565b6000613c28601d836128bc565b9150613c3382613bf2565b602082019050919050565b60006020820190508181036000830152613c5781613c1b565b9050919050565b7f4164647265737320616c72656164792072656769737465726564000000000000600082015250565b6000613c94601a836128bc565b9150613c9f82613c5e565b602082019050919050565b60006020820190508181036000830152613cc381613c87565b9050919050565b7f496e76616c69642073747564656e742049440000000000000000000000000000600082015250565b6000613d006012836128bc565b9150613d0b82613cca565b602082019050919050565b60006020820190508181036000830152613d2f81613cf3565b9050919050565b60006040820190508181036000830152613d508185612908565b9050613d5f602083018461312f565b9392505050565b7f566f74696e67206861736e277420737461727465642079657400000000000000600082015250565b6000613d9c6019836128bc565b9150613da782613d66565b602082019050919050565b60006020820190508181036000830152613dcb81613d8f565b9050919050565b7f566f74696e6720616c726561647920656e646564000000000000000000000000600082015250565b6000613e086014836128bc565b9150613e1382613dd2565b602082019050919050565b60006020820190508181036000830152613e3781613dfb565b9050919050565b7f4e6f2063616e6469646174657320726567697374657265640000000000000000600082015250565b6000613e746018836128bc565b9150613e7f82613e3e565b602082019050919050565b60006020820190508181036000830152613ea381613e67565b9050919050565b7f4e6f20766f746572732072656769737465726564000000000000000000000000600082015250565b6000613ee06014836128bc565b9150613eeb82613eaa565b602082019050919050565b60006020820190508181036000830152613f0f81613ed3565b9050919050565b7f496e76616c6964206475726174696f6e00000000000000000000000000000000600082015250565b6000613f4c6010836128bc565b9150613f5782613f16565b602082019050919050565b60006020820190508181036000830152613f7b81613f3f565b9050919050565b6000613f8d82612b17565b9150613f9883612b17565b9250828202613fa681612b17565b91508282048414831517613fbd57613fbc61364f565b5b5092915050565b6000613fcf82612b17565b9150613fda83612b17565b9250828201905080821115613ff257613ff161364f565b5b92915050565b60008154614005816131f7565b61400f81866128bc565b9450600182166000811461402a576001811461404057614073565b60ff198316865281151560200286019350614073565b614049856138cc565b60005b8381101561406b5781548189015260018201915060208101905061404c565b808801955050505b50505092915050565b600060408201905081810360008301526140968185613ff8565b90506140a56020830184612b21565b9392505050565b7f496e76616c69642061646d696e20616464726573730000000000000000000000600082015250565b60006140e26015836128bc565b91506140ed826140ac565b602082019050919050565b60006020820190508181036000830152614111816140d5565b9050919050565b7f566f74696e67207374696c6c20696e2070726f67726573730000000000000000600082015250565b600061414e6018836128bc565b915061415982614118565b602082019050919050565b6000602082019050818103600083015261417d81614141565b9050919050565b7f4e6f20766f746573206361737400000000000000000000000000000000000000600082015250565b60006141ba600d836128bc565b91506141c582614184565b602082019050919050565b600060208201905081810360008301526141e9816141ad565b905091905056fea26469706673582212209e2c0906f18713ee1ee45781ab7bbf92310d858c563b2cb982210877a8ca414064736f6c63430008130033456c656374696f6e20666f722053747564656e7420556e696f6e20507265736964656e74206174204665646572616c20556e6976657273697479204c6f6b6f6a6153747564656e7420556e696f6e2045786563757469766520456c656374696f6e732032303234",
  "linkReferences": {},
  "deployedLinkReferences": {}
}